{
  "address": "0xa25E5394Bc021C91F49ebb5AC7dA8faED25a78eD",
  "abi": [
    {
      "inputs": [
        {
          "internalType": "address",
          "name": "_owner",
          "type": "address"
        },
        {
          "internalType": "address",
          "name": "router_Addr",
          "type": "address"
        },
        {
          "internalType": "contract StandardTokenFactory",
          "name": "_standardTokenFactory",
          "type": "address"
        },
        {
          "internalType": "contract LiquidityTokenFactory",
          "name": "_liquidityTokenFactory",
          "type": "address"
        }
      ],
      "stateMutability": "nonpayable",
      "type": "constructor"
    },
    {
      "anonymous": false,
      "inputs": [
        {
          "indexed": false,
          "internalType": "address",
          "name": "",
          "type": "address"
        }
      ],
      "name": "CreateStandardSuccess",
      "type": "event"
    },
    {
      "anonymous": false,
      "inputs": [],
      "name": "InitFeeSuccess",
      "type": "event"
    },
    {
      "anonymous": false,
      "inputs": [
        {
          "indexed": false,
          "internalType": "uint256",
          "name": "value",
          "type": "uint256"
        }
      ],
      "name": "OwnerWithdrawSuccess",
      "type": "event"
    },
    {
      "anonymous": false,
      "inputs": [
        {
          "indexed": false,
          "internalType": "address",
          "name": "",
          "type": "address"
        }
      ],
      "name": "createLiquditySuccess",
      "type": "event"
    },
    {
      "anonymous": false,
      "inputs": [
        {
          "indexed": false,
          "internalType": "address",
          "name": "",
          "type": "address"
        }
      ],
      "name": "setOwnerSucess",
      "type": "event"
    },
    {
      "inputs": [
        {
          "internalType": "address",
          "name": "creator_",
          "type": "address"
        },
        {
          "internalType": "address",
          "name": "reciever",
          "type": "address"
        },
        {
          "internalType": "string",
          "name": "name_",
          "type": "string"
        },
        {
          "internalType": "string",
          "name": "symbol_",
          "type": "string"
        },
        {
          "internalType": "uint8",
          "name": "decimal_",
          "type": "uint8"
        },
        {
          "internalType": "uint256",
          "name": "supply",
          "type": "uint256"
        },
        {
          "internalType": "uint256",
          "name": "settingflag",
          "type": "uint256"
        },
        {
          "internalType": "uint256[4]",
          "name": "fees",
          "type": "uint256[4]"
        },
        {
          "components": [
            {
              "internalType": "uint256",
              "name": "mintflag",
              "type": "uint256"
            },
            {
              "internalType": "uint256",
              "name": "pauseflag",
              "type": "uint256"
            },
            {
              "internalType": "uint256",
              "name": "burnflag",
              "type": "uint256"
            },
            {
              "internalType": "uint256",
              "name": "blacklistflag",
              "type": "uint256"
            }
          ],
          "internalType": "struct SharedStructs.status",
          "name": "_state",
          "type": "tuple"
        }
      ],
      "name": "createLiquidity",
      "outputs": [],
      "stateMutability": "payable",
      "type": "function"
    },
    {
      "inputs": [
        {
          "internalType": "address",
          "name": "creator_",
          "type": "address"
        },
        {
          "internalType": "string",
          "name": "name_",
          "type": "string"
        },
        {
          "internalType": "string",
          "name": "symbol_",
          "type": "string"
        },
        {
          "internalType": "uint8",
          "name": "decimals_",
          "type": "uint8"
        },
        {
          "internalType": "uint256",
          "name": "tokenSupply_",
          "type": "uint256"
        },
        {
          "components": [
            {
              "internalType": "uint256",
              "name": "mintflag",
              "type": "uint256"
            },
            {
              "internalType": "uint256",
              "name": "pauseflag",
              "type": "uint256"
            },
            {
              "internalType": "uint256",
              "name": "burnflag",
              "type": "uint256"
            },
            {
              "internalType": "uint256",
              "name": "blacklistflag",
              "type": "uint256"
            }
          ],
          "internalType": "struct SharedStructs.status",
          "name": "_state",
          "type": "tuple"
        }
      ],
      "name": "createStandard",
      "outputs": [],
      "stateMutability": "payable",
      "type": "function"
    },
    {
      "inputs": [],
      "name": "fee",
      "outputs": [
        {
          "internalType": "uint256",
          "name": "normal",
          "type": "uint256"
        },
        {
          "internalType": "uint256",
          "name": "mint",
          "type": "uint256"
        },
        {
          "internalType": "uint256",
          "name": "burn",
          "type": "uint256"
        },
        {
          "internalType": "uint256",
          "name": "pause",
          "type": "uint256"
        },
        {
          "internalType": "uint256",
          "name": "blacklist",
          "type": "uint256"
        },
        {
          "internalType": "uint256",
          "name": "deflation",
          "type": "uint256"
        }
      ],
      "stateMutability": "view",
      "type": "function"
    },
    {
      "inputs": [],
      "name": "getBalance",
      "outputs": [
        {
          "internalType": "uint256",
          "name": "",
          "type": "uint256"
        }
      ],
      "stateMutability": "view",
      "type": "function"
    },
    {
      "inputs": [
        {
          "internalType": "address",
          "name": "creater",
          "type": "address"
        }
      ],
      "name": "getCreatedToken",
      "outputs": [
        {
          "internalType": "address[]",
          "name": "",
          "type": "address[]"
        }
      ],
      "stateMutability": "view",
      "type": "function"
    },
    {
      "inputs": [
        {
          "components": [
            {
              "internalType": "uint256",
              "name": "normal",
              "type": "uint256"
            },
            {
              "internalType": "uint256",
              "name": "mint",
              "type": "uint256"
            },
            {
              "internalType": "uint256",
              "name": "burn",
              "type": "uint256"
            },
            {
              "internalType": "uint256",
              "name": "pause",
              "type": "uint256"
            },
            {
              "internalType": "uint256",
              "name": "blacklist",
              "type": "uint256"
            },
            {
              "internalType": "uint256",
              "name": "deflation",
              "type": "uint256"
            }
          ],
          "internalType": "struct CreateManage.feeInfo",
          "name": "_fee",
          "type": "tuple"
        }
      ],
      "name": "initFee",
      "outputs": [],
      "stateMutability": "nonpayable",
      "type": "function"
    },
    {
      "inputs": [],
      "name": "owner",
      "outputs": [
        {
          "internalType": "address",
          "name": "",
          "type": "address"
        }
      ],
      "stateMutability": "view",
      "type": "function"
    },
    {
      "inputs": [],
      "name": "ownerWithdraw",
      "outputs": [],
      "stateMutability": "nonpayable",
      "type": "function"
    },
    {
      "inputs": [
        {
          "internalType": "address",
          "name": "newowner",
          "type": "address"
        }
      ],
      "name": "setOwner",
      "outputs": [],
      "stateMutability": "nonpayable",
      "type": "function"
    }
  ],
  "transactionHash": "0xe68759bc26edf0b6caaebb94b46350713657fbc297a907033bef2e11318683f7",
  "args": [
    "0x20613aBe93e4611Cf547b4395E4248c6129c8697",
    "0x4df04E20cCd9a8B82634754fcB041e86c5FF085A",
    "0x521757C0C82004f04Aa504e8bbEe6a34436cfea4",
    "0x80C5B26AAbd6549D01DB391281987E2c438C2540"
  ],
  "solcInputHash": "0b2f36874526c3ea18fd5f6c69eec79a",
  "bytecode": "0x608060405234801561001057600080fd5b506040516200121f3803806200121f833981016040819052610031916100d5565b600080546001600160a01b039586166001600160a01b0319918216179091556040805160c0810182526509184e72a00080825260208201819052918101829052606081018290526080810182905260a0018190526003819055600481905560058190556006819055600781905560085560018054948616948216949094179093556009805492851692841692909217909155600a805491909316911617905561014c565b600080600080608085870312156100eb57600080fd5b84516100f681610134565b602086015190945061010781610134565b604086015190935061011881610134565b606086015190925061012981610134565b939692955090935050565b6001600160a01b038116811461014957600080fd5b50565b6110c3806200015c6000396000f3fe6080604052600436106100965760003560e01c806376f444a311610069578063cf3059721161004e578063cf30597214610184578063ddca3f4314610197578063df251962146101ef57600080fd5b806376f444a31461011f5780638da5cb5b1461013257600080fd5b806312065fe01461009b57806313af4035146100bb57806336646180146100dd5780634311de8f1461010a575b600080fd5b3480156100a757600080fd5b506040514781526020015b60405180910390f35b3480156100c757600080fd5b506100db6100d6366004610ba8565b61020f565b005b3480156100e957600080fd5b506100fd6100f8366004610ba8565b61030f565b6040516100b29190610f3d565b34801561011657600080fd5b506100db61039f565b6100db61012d366004610bcc565b61049b565b34801561013e57600080fd5b5060005461015f9073ffffffffffffffffffffffffffffffffffffffff1681565b60405173ffffffffffffffffffffffffffffffffffffffff90911681526020016100b2565b6100db610192366004610c9d565b610779565b3480156101a357600080fd5b506003546004546005546006546007546008546101c295949392919086565b604080519687526020870195909552938501929092526060840152608083015260a082015260c0016100b2565b3480156101fb57600080fd5b506100db61020a366004610d5c565b610941565b60005473ffffffffffffffffffffffffffffffffffffffff163314610295576040517f08c379a000000000000000000000000000000000000000000000000000000000815260206004820152601660248201527f4f6e6c79206d616e616765722063616e20646f2069740000000000000000000060448201526064015b60405180910390fd5b600080547fffffffffffffffffffffffff00000000000000000000000000000000000000001673ffffffffffffffffffffffffffffffffffffffff83169081179091556040519081527f2ad00119c52384b34359201efdeae8e4bcc95b285f433b645adb782ef8ffb367906020015b60405180910390a150565b73ffffffffffffffffffffffffffffffffffffffff811660009081526002602090815260409182902080548351818402810184019094528084526060939283018282801561039357602002820191906000526020600020905b815473ffffffffffffffffffffffffffffffffffffffff168152600190910190602001808311610368575b50505050509050919050565b60005473ffffffffffffffffffffffffffffffffffffffff163314610420576040517f08c379a000000000000000000000000000000000000000000000000000000000815260206004820152601960248201527f4f6e6c79206d616e616765722063616e20776974686472617700000000000000604482015260640161028c565b6000805460405173ffffffffffffffffffffffffffffffffffffffff9091169182914780156108fc0292909190818181858888f1935050505015801561046a573d6000803e3d6000fd5b506040514781527fc67a6e2c9e13b320d5ce7e24743ea93ba9261320310966dd6240569493690eff90602001610304565b6104a481610999565b34101561050d576040517f08c379a000000000000000000000000000000000000000000000000000000000815260206004820152601660248201527f42616c616e636520697320696e737566666963656e7400000000000000000000604482015260640161028c565b600a546001546040517fb304372d00000000000000000000000000000000000000000000000000000000815260009273ffffffffffffffffffffffffffffffffffffffff9081169263b304372d9261057792909116908e908e908e908e908e908e90600401610e41565b602060405180830381600087803b15801561059157600080fd5b505af11580156105a5573d6000803e3d6000fd5b505050506040513d601f19601f820116820180604052508101906105c99190610d3f565b6040517f67d2465600000000000000000000000000000000000000000000000000000000815290915073ffffffffffffffffffffffffffffffffffffffff8216906367d24656906106209087908790600401610fc2565b600060405180830381600087803b15801561063a57600080fd5b505af115801561064e573d6000803e3d6000fd5b50506040517f245e579800000000000000000000000000000000000000000000000000000000815273ffffffffffffffffffffffffffffffffffffffff8416925063245e579891506106a4908590600401610f97565b600060405180830381600087803b1580156106be57600080fd5b505af11580156106d2573d6000803e3d6000fd5b5050505073ffffffffffffffffffffffffffffffffffffffff8a8116600090815260026020908152604080832080546001810182559084529282902090920180547fffffffffffffffffffffffff000000000000000000000000000000000000000016938516938417905590519182527fd38b5c5c827552bf78686fe20cff5da58946cbe6fab7a370a203e365ced42253910160405180910390a150505050505050505050565b61078281610999565b3410156107eb576040517f08c379a000000000000000000000000000000000000000000000000000000000815260206004820152601660248201527f42616c616e636520697320696e737566666963656e7400000000000000000000604482015260640161028c565b6009546040517f213db6b700000000000000000000000000000000000000000000000000000000815260009173ffffffffffffffffffffffffffffffffffffffff169063213db6b79061084c908a908a908a908a908a908a90600401610eae565b602060405180830381600087803b15801561086657600080fd5b505af115801561087a573d6000803e3d6000fd5b505050506040513d601f19601f8201168201806040525081019061089e9190610d3f565b73ffffffffffffffffffffffffffffffffffffffff888116600090815260026020908152604080832080546001810182559084529282902090920180547fffffffffffffffffffffffff000000000000000000000000000000000000000016938516938417905590519182529192507f11d95a3a35d0b4b9b14fd17216057aeefef842668d998184cb9f2e114a467a91910160405180910390a150505050505050565b805160035560208101516004556040808201516005556060820151600655608082015160075560a0820151600855517f03855d30824d2deef7728a39f080e5bdad2c59aaeaf4397540a00186095d463a90600090a150565b600354815160009190156109b7576004546109b49082610ffa565b90505b6040830151156109d1576005546109ce9082610ffa565b90505b6020830151156109eb576006546109e89082610ffa565b90505b606083015115610a0557600754610a029082610ffa565b90505b92915050565b600082601f830112610a1c57600080fd5b6040516080810181811067ffffffffffffffff82111715610a3f57610a3f611039565b604052808360808101861015610a5457600080fd5b60005b6004811015610a76578135835260209283019290910190600101610a57565b509195945050505050565b600082601f830112610a9257600080fd5b813567ffffffffffffffff80821115610aad57610aad611039565b604051601f83017fffffffffffffffffffffffffffffffffffffffffffffffffffffffffffffffe0908116603f01168101908282118183101715610af357610af3611039565b81604052838152866020858801011115610b0c57600080fd5b836020870160208301376000602085830101528094505050505092915050565b600060808284031215610b3e57600080fd5b6040516080810181811067ffffffffffffffff82111715610b6157610b61611039565b8060405250809150823581526020830135602082015260408301356040820152606083013560608201525092915050565b803560ff81168114610ba357600080fd5b919050565b600060208284031215610bba57600080fd5b8135610bc581611068565b9392505050565b60008060008060008060008060006101e08a8c031215610beb57600080fd5b8935610bf681611068565b985060208a0135610c0681611068565b975060408a013567ffffffffffffffff80821115610c2357600080fd5b610c2f8d838e01610a81565b985060608c0135915080821115610c4557600080fd5b50610c528c828d01610a81565b965050610c6160808b01610b92565b945060a08a0135935060c08a01359250610c7e8b60e08c01610a0b565b9150610c8e8b6101608c01610b2c565b90509295985092959850929598565b6000806000806000806101208789031215610cb757600080fd5b8635610cc281611068565b9550602087013567ffffffffffffffff80821115610cdf57600080fd5b610ceb8a838b01610a81565b96506040890135915080821115610d0157600080fd5b50610d0e89828a01610a81565b945050610d1d60608801610b92565b925060808701359150610d338860a08901610b2c565b90509295509295509295565b600060208284031215610d5157600080fd5b8151610bc581611068565b600060c08284031215610d6e57600080fd5b60405160c0810181811067ffffffffffffffff82111715610d9157610d91611039565b8060405250823581526020830135602082015260408301356040820152606083013560608201526080830135608082015260a083013560a08201528091505092915050565b6000815180845260005b81811015610dfc57602081850181015186830182015201610de0565b81811115610e0e576000602083870101525b50601f017fffffffffffffffffffffffffffffffffffffffffffffffffffffffffffffffe0169290920160200192915050565b600073ffffffffffffffffffffffffffffffffffffffff808a168352808916602084015280881660408401525060e06060830152610e8260e0830187610dd6565b8281036080840152610e948187610dd6565b60ff9590951660a0840152505060c0015295945050505050565b600061012073ffffffffffffffffffffffffffffffffffffffff89168352806020840152610ede81840189610dd6565b90508281036040840152610ef28188610dd6565b91505060ff85166060830152836080830152610f3260a0830184805182526020810151602083015260408101516040830152606081015160608301525050565b979650505050505050565b6020808252825182820181905260009190848201906040850190845b81811015610f8b57835173ffffffffffffffffffffffffffffffffffffffff1683529284019291840191600101610f59565b50909695505050505050565b8151815260208083015190820152604080830151908201526060808301519082015260808101610a05565b82815260a0810160208083018460005b6004811015610fef57815183529183019190830190600101610fd2565b505050509392505050565b60008219821115611034577f4e487b7100000000000000000000000000000000000000000000000000000000600052601160045260246000fd5b500190565b7f4e487b7100000000000000000000000000000000000000000000000000000000600052604160045260246000fd5b73ffffffffffffffffffffffffffffffffffffffff8116811461108a57600080fd5b5056fea264697066735822122098786ea183e240a14df98691b081eccc6bfd882873071b02175f27f01a0e2f5d64736f6c63430008070033",
  "devdoc": {
    "kind": "dev",
    "methods": {},
    "version": 1
  },
  "userdoc": {
    "kind": "user",
    "methods": {},
    "version": 1
  },
  "storageLayout": {
    "storage": [
      {
        "astId": 480,
        "contract": "contracts/CreateToken/Meter/CreateVerify.sol:CreateManage",
        "label": "owner",
        "offset": 0,
        "slot": "0",
        "type": "t_address"
      },
      {
        "astId": 482,
        "contract": "contracts/CreateToken/Meter/CreateVerify.sol:CreateManage",
        "label": "router_address",
        "offset": 0,
        "slot": "1",
        "type": "t_address"
      },
      {
        "astId": 487,
        "contract": "contracts/CreateToken/Meter/CreateVerify.sol:CreateManage",
        "label": "tokens",
        "offset": 0,
        "slot": "2",
        "type": "t_mapping(t_address,t_array(t_address)dyn_storage)"
      },
      {
        "astId": 490,
        "contract": "contracts/CreateToken/Meter/CreateVerify.sol:CreateManage",
        "label": "fee",
        "offset": 0,
        "slot": "3",
        "type": "t_struct(feeInfo)478_storage"
      },
      {
        "astId": 493,
        "contract": "contracts/CreateToken/Meter/CreateVerify.sol:CreateManage",
        "label": "standardTokenFactory",
        "offset": 0,
        "slot": "9",
        "type": "t_contract(StandardTokenFactory)4291"
      },
      {
        "astId": 496,
        "contract": "contracts/CreateToken/Meter/CreateVerify.sol:CreateManage",
        "label": "liquidityTokenFactory",
        "offset": 0,
        "slot": "10",
        "type": "t_contract(LiquidityTokenFactory)3399"
      }
    ],
    "types": {
      "t_address": {
        "encoding": "inplace",
        "label": "address",
        "numberOfBytes": "20"
      },
      "t_array(t_address)dyn_storage": {
        "base": "t_address",
        "encoding": "dynamic_array",
        "label": "address[]",
        "numberOfBytes": "32"
      },
      "t_contract(LiquidityTokenFactory)3399": {
        "encoding": "inplace",
        "label": "contract LiquidityTokenFactory",
        "numberOfBytes": "20"
      },
      "t_contract(StandardTokenFactory)4291": {
        "encoding": "inplace",
        "label": "contract StandardTokenFactory",
        "numberOfBytes": "20"
      },
      "t_mapping(t_address,t_array(t_address)dyn_storage)": {
        "encoding": "mapping",
        "key": "t_address",
        "label": "mapping(address => address[])",
        "numberOfBytes": "32",
        "value": "t_array(t_address)dyn_storage"
      },
      "t_struct(feeInfo)478_storage": {
        "encoding": "inplace",
        "label": "struct CreateManage.feeInfo",
        "members": [
          {
            "astId": 467,
            "contract": "contracts/CreateToken/Meter/CreateVerify.sol:CreateManage",
            "label": "normal",
            "offset": 0,
            "slot": "0",
            "type": "t_uint256"
          },
          {
            "astId": 469,
            "contract": "contracts/CreateToken/Meter/CreateVerify.sol:CreateManage",
            "label": "mint",
            "offset": 0,
            "slot": "1",
            "type": "t_uint256"
          },
          {
            "astId": 471,
            "contract": "contracts/CreateToken/Meter/CreateVerify.sol:CreateManage",
            "label": "burn",
            "offset": 0,
            "slot": "2",
            "type": "t_uint256"
          },
          {
            "astId": 473,
            "contract": "contracts/CreateToken/Meter/CreateVerify.sol:CreateManage",
            "label": "pause",
            "offset": 0,
            "slot": "3",
            "type": "t_uint256"
          },
          {
            "astId": 475,
            "contract": "contracts/CreateToken/Meter/CreateVerify.sol:CreateManage",
            "label": "blacklist",
            "offset": 0,
            "slot": "4",
            "type": "t_uint256"
          },
          {
            "astId": 477,
            "contract": "contracts/CreateToken/Meter/CreateVerify.sol:CreateManage",
            "label": "deflation",
            "offset": 0,
            "slot": "5",
            "type": "t_uint256"
          }
        ],
        "numberOfBytes": "192"
      },
      "t_uint256": {
        "encoding": "inplace",
        "label": "uint256",
        "numberOfBytes": "32"
      }
    }
  }
}