{
  "address": "0xf75D4068A75278d014Cd02906E45cCF4c089F212",
  "abi": [
    {
      "inputs": [
        {
          "internalType": "address payable",
          "name": "_owner",
          "type": "address"
        },
        {
          "internalType": "address",
          "name": "lock_addr",
          "type": "address"
        },
        {
          "internalType": "address",
          "name": "uniswapfactory_addr",
          "type": "address"
        },
        {
          "internalType": "address",
          "name": "uniswaprouter_Addr",
          "type": "address"
        },
        {
          "internalType": "address",
          "name": "weth_addr",
          "type": "address"
        },
        {
          "internalType": "contract PresaleFactory",
          "name": "_presaleFactory",
          "type": "address"
        }
      ],
      "stateMutability": "nonpayable",
      "type": "constructor"
    },
    {
      "anonymous": false,
      "inputs": [
        {
          "indexed": false,
          "internalType": "address",
          "name": "",
          "type": "address"
        },
        {
          "indexed": false,
          "internalType": "address",
          "name": "",
          "type": "address"
        }
      ],
      "name": "CreatePreslaeSuccess",
      "type": "event"
    },
    {
      "anonymous": false,
      "inputs": [
        {
          "indexed": false,
          "internalType": "uint256",
          "name": "value",
          "type": "uint256"
        }
      ],
      "name": "OwnerWithdrawSuccess",
      "type": "event"
    },
    {
      "inputs": [
        {
          "internalType": "address",
          "name": "presale_addr",
          "type": "address"
        }
      ],
      "name": "IsRegistered",
      "outputs": [
        {
          "internalType": "bool",
          "name": "",
          "type": "bool"
        }
      ],
      "stateMutability": "view",
      "type": "function"
    },
    {
      "inputs": [
        {
          "internalType": "uint256",
          "name": "_amount",
          "type": "uint256"
        },
        {
          "internalType": "uint256",
          "name": "_tokenPrice",
          "type": "uint256"
        },
        {
          "internalType": "uint256",
          "name": "_listingRate",
          "type": "uint256"
        },
        {
          "internalType": "uint256",
          "name": "_liquidityPercent",
          "type": "uint256"
        },
        {
          "internalType": "uint256",
          "name": "_tokenFee",
          "type": "uint256"
        }
      ],
      "name": "calculateAmountRequired",
      "outputs": [
        {
          "internalType": "uint256",
          "name": "",
          "type": "uint256"
        }
      ],
      "stateMutability": "pure",
      "type": "function"
    },
    {
      "inputs": [
        {
          "components": [
            {
              "internalType": "address payable",
              "name": "presale_owner",
              "type": "address"
            },
            {
              "internalType": "address",
              "name": "sale_token",
              "type": "address"
            },
            {
              "internalType": "uint256",
              "name": "token_rate",
              "type": "uint256"
            },
            {
              "internalType": "uint256",
              "name": "raise_min",
              "type": "uint256"
            },
            {
              "internalType": "uint256",
              "name": "raise_max",
              "type": "uint256"
            },
            {
              "internalType": "uint256",
              "name": "hardcap",
              "type": "uint256"
            },
            {
              "internalType": "uint256",
              "name": "softcap",
              "type": "uint256"
            },
            {
              "internalType": "uint256",
              "name": "liqudity_percent",
              "type": "uint256"
            },
            {
              "internalType": "uint256",
              "name": "listing_rate",
              "type": "uint256"
            },
            {
              "internalType": "uint256",
              "name": "lock_end",
              "type": "uint256"
            },
            {
              "internalType": "uint256",
              "name": "lock_start",
              "type": "uint256"
            },
            {
              "internalType": "uint256",
              "name": "presale_end",
              "type": "uint256"
            },
            {
              "internalType": "uint256",
              "name": "presale_start",
              "type": "uint256"
            }
          ],
          "internalType": "struct SharedStructs.PresaleInfo",
          "name": "_presale_info",
          "type": "tuple"
        },
        {
          "components": [
            {
              "internalType": "string",
              "name": "website_link",
              "type": "string"
            },
            {
              "internalType": "string",
              "name": "github_link",
              "type": "string"
            },
            {
              "internalType": "string",
              "name": "twitter_link",
              "type": "string"
            },
            {
              "internalType": "string",
              "name": "reddit_link",
              "type": "string"
            },
            {
              "internalType": "string",
              "name": "telegram_link",
              "type": "string"
            }
          ],
          "internalType": "struct SharedStructs.PresaleLink",
          "name": "_presalelink",
          "type": "tuple"
        }
      ],
      "name": "createPresale",
      "outputs": [],
      "stateMutability": "payable",
      "type": "function"
    },
    {
      "inputs": [],
      "name": "getBalance",
      "outputs": [
        {
          "internalType": "uint256",
          "name": "",
          "type": "uint256"
        }
      ],
      "stateMutability": "view",
      "type": "function"
    },
    {
      "inputs": [],
      "name": "getCount",
      "outputs": [
        {
          "internalType": "uint256",
          "name": "",
          "type": "uint256"
        }
      ],
      "stateMutability": "view",
      "type": "function"
    },
    {
      "inputs": [
        {
          "internalType": "uint256",
          "name": "index",
          "type": "uint256"
        }
      ],
      "name": "getPresaleAt",
      "outputs": [
        {
          "internalType": "address",
          "name": "",
          "type": "address"
        }
      ],
      "stateMutability": "view",
      "type": "function"
    },
    {
      "inputs": [],
      "name": "ownerWithdraw",
      "outputs": [],
      "stateMutability": "nonpayable",
      "type": "function"
    },
    {
      "inputs": [],
      "name": "presale_lock_forward_addr",
      "outputs": [
        {
          "internalType": "address",
          "name": "",
          "type": "address"
        }
      ],
      "stateMutability": "view",
      "type": "function"
    },
    {
      "inputs": [],
      "name": "presale_setting_addr",
      "outputs": [
        {
          "internalType": "address",
          "name": "",
          "type": "address"
        }
      ],
      "stateMutability": "view",
      "type": "function"
    },
    {
      "inputs": [],
      "name": "settings",
      "outputs": [
        {
          "internalType": "contract PresaleSettings",
          "name": "",
          "type": "address"
        }
      ],
      "stateMutability": "view",
      "type": "function"
    }
  ],
  "transactionHash": "0x702db5ba8bae9d85363676a0da576fc727d71cbcc2f7087f1c280353095a8df1",
  "args": [
    "0xDeAdA90a7B242FC396eB277717a31e67A6005c93",
    "0x7c3F3bA9153C868D5091bf03629e3bf7E4d5969f",
    "0xab740666e226cb5b6b451eb943b0257a7cb3ce0a",
    "0x4df04E20cCd9a8B82634754fcB041e86c5FF085A",
    "0xDeadDeAddeAddEAddeadDEaDDEAdDeaDDeAD0000",
    "0x8175026502FEa0172Bc8b5dDa39Fd0D802E755e9"
  ],
  "solcInputHash": "d7bb5aae49da3eb763f53c6bb21abd0a",
  "bytecode": "0x60806040523480156200001157600080fd5b50604051620038ad380380620038ad833981016040819052620000349162000259565b600980546001600160a01b038089166001600160a01b0319928316179092556006805487841690831617905560088054928516929091169190911790556040513090869086908690869062000089906200023d565b6001600160a01b0395861681529385166020850152918416604084015283166060830152909116608082015260a001604051809103906000f080158015620000d5573d6000803e3d6000fd5b50600580546001600160a01b03929092166001600160a01b031992831681179091556003805490921617905560405160009030908890889062000118906200024b565b6001600160a01b03938416815291831660208301529091166040820152606001604051809103906000f08015801562000155573d6000803e3d6000fd5b50600954604051637e6117e960e11b81526001600160a01b0391821660048201819052662386f26fc10000602483015260448201819052600a606483018190526084830182905260a4830181905260c483019190915260e482015291925082169063fcc22fd29061010401600060405180830381600087803b158015620001db57600080fd5b505af1158015620001f0573d6000803e3d6000fd5b5050600480546001600160a01b039485166001600160a01b03199182168117909255601c805482169092179091556002805495909416941693909317909155506200030695505050505050565b610ffa8062001b3c83390190565b610d778062002b3683390190565b60008060008060008060c087890312156200027357600080fd5b86516200028081620002ed565b60208801519096506200029381620002ed565b6040880151909550620002a681620002ed565b6060880151909450620002b981620002ed565b6080880151909350620002cc81620002ed565b60a0880151909250620002df81620002ed565b809150509295509295509295565b6001600160a01b03811681146200030357600080fd5b50565b61182680620003166000396000f3fe6080604052600436106100b15760003560e01c8063a725976711610069578063b014afb31161004e578063b014afb3146101a0578063c224122d146101b3578063e06174e4146101e357600080fd5b8063a72597671461016b578063a87d942c1461018b57600080fd5b806312065fe01161009a57806312065fe0146101215780634311de8f14610134578063a00d16961461014b57600080fd5b8063108a67a6146100b65780631185168a146100f3575b600080fd5b3480156100c257600080fd5b506003546100d6906001600160a01b031681565b6040516001600160a01b0390911681526020015b60405180910390f35b3480156100ff57600080fd5b5061011361010e36600461140a565b610203565b6040519081526020016100ea565b34801561012d57600080fd5b5047610113565b34801561014057600080fd5b506101496102be565b005b34801561015757600080fd5b506004546100d6906001600160a01b031681565b34801561017757600080fd5b506100d66101863660046113d8565b6104ae565b34801561019757600080fd5b506101136104c0565b6101496101ae3660046112e9565b6104d1565b3480156101bf57600080fd5b506101d36101ce36600461128d565b610e29565b60405190151581526020016100ea565b3480156101ef57600080fd5b50601c546100d6906001600160a01b031681565b600080670de0b6b3a76400006102198789611673565b6102239190611638565b9050600086670de0b6b3a7640000606461023d878c611673565b6102479190611638565b6102519190611638565b61025b9190611673565b90506000670de0b6b3a7640000610272888b611673565b61027c9190611638565b90506000606461028c8884611673565b6102969190611638565b90506000836102a58387611620565b6102af9190611620565b9b9a5050505050505050505050565b601c60009054906101000a90046001600160a01b03166001600160a01b0316635a305ff86040518163ffffffff1660e01b815260040160206040518083038186803b15801561030c57600080fd5b505afa158015610320573d6000803e3d6000fd5b505050506040513d601f19601f8201168201806040525081019061034491906112aa565b6001600160a01b0316336001600160a01b0316146103a95760405162461bcd60e51b815260206004820152601960248201527f4f6e6c7920637265617465722063616e2077697468647261770000000000000060448201526064015b60405180910390fd5b601c54604080517f5a305ff800000000000000000000000000000000000000000000000000000000815290516000926001600160a01b031691635a305ff8916004808301926020929190829003018186803b15801561040757600080fd5b505afa15801561041b573d6000803e3d6000fd5b505050506040513d601f19601f8201168201806040525081019061043f91906112aa565b6040519091506001600160a01b038216904780156108fc02916000818181858888f19350505050158015610477573d6000803e3d6000fd5b506040514781527fc67a6e2c9e13b320d5ce7e24743ea93ba9261320310966dd6240569493690eff9060200160405180910390a150565b60006104ba8183610e35565b92915050565b60006104cc6000610e48565b905090565b8151600a80547fffffffffffffffffffffffff00000000000000000000000000000000000000009081166001600160a01b0393841617909155602080850151600b805490931693169290921790556040830151600c556060830151600d556080830151600e5560a0830151600f5560c083015160105560e08301516011556101008301516012556101208301516013556101408301516014556101608301516015556101808301516016558151805183926017926105959284929190910190611079565b5060208281015180516105ae9260018501920190611079565b50604082015180516105ca916002840191602090910190611079565b50606082015180516105e6916003840191602090910190611079565b5060808201518051610602916004840191602090910190611079565b5050601c54604080517fdb28dbd100000000000000000000000000000000000000000000000000000000815290516001600160a01b03909216925063db28dbd1916004808301926020929190829003018186803b15801561066257600080fd5b505afa158015610676573d6000803e3d6000fd5b505050506040513d601f19601f8201168201806040525081019061069a91906113f1565b601c60009054906101000a90046001600160a01b03166001600160a01b0316632107c1016040518163ffffffff1660e01b815260040160206040518083038186803b1580156106e857600080fd5b505afa1580156106fc573d6000803e3d6000fd5b505050506040513d601f19601f8201168201806040525081019061072091906113f1565b61072a9190611620565b3410156107795760405162461bcd60e51b815260206004820152601660248201527f42616c616e636520697320696e737566666963656e740000000000000000000060448201526064016103a0565b60008260400151116107cd5760405162461bcd60e51b815260206004820152601560248201527f746f6b656e207261746520697320696e76616c6964000000000000000000000060448201526064016103a0565b81608001518260600151106108245760405162461bcd60e51b815260206004820152601860248201527f7261697365206d696e2f6d617820696e20696e76616c6964000000000000000060448201526064016103a0565b8160a001518260c00151111561087c5760405162461bcd60e51b815260206004820152601a60248201527f736f66746361702f6861726463617020697320696e76616c696400000000000060448201526064016103a0565b601e8260e0015110158015610896575060648260e0015111155b6108e25760405162461bcd60e51b815260206004820152601b60248201527f4c697175646974792070657263656e7420697320696e76616c6964000000000060448201526064016103a0565b6000826101000151116109375760405162461bcd60e51b815260206004820152601760248201527f4c697374696e67207261746520697320696e76616c696400000000000000000060448201526064016103a0565b600082610180015183610160015161094f91906116b0565b116109c25760405162461bcd60e51b815260206004820152602160248201527f50726573616c652073746172742f656e642074696d6520697320696e76616c6960448201527f640000000000000000000000000000000000000000000000000000000000000060648201526084016103a0565b6224ea008261014001518361012001516109dc91906116b0565b1015610a2a5760405162461bcd60e51b815260206004820152601360248201527f4c6f636b20656e6420697320696e76616c69640000000000000000000000000060448201526064016103a0565b6000610aca8360a0015184604001518561010001518660e00151601c60009054906101000a90046001600160a01b03166001600160a01b0316636159ae596040518163ffffffff1660e01b815260040160206040518083038186803b158015610a9257600080fd5b505afa158015610aa6573d6000803e3d6000fd5b505050506040513d601f19601f8201168201806040525081019061010e91906113f1565b600254601c54604080517fdb28dbd100000000000000000000000000000000000000000000000000000000815290519394506000936001600160a01b039384169363fd82b73a93169163db28dbd1916004808301926020929190829003018186803b158015610b3857600080fd5b505afa158015610b4c573d6000803e3d6000fd5b505050506040513d601f19601f82011682018060405250810190610b7091906113f1565b6008546004805460035460405160e087901b7fffffffff0000000000000000000000000000000000000000000000000000000016815230938101939093526001600160a01b03938416602484015290831660448301529190911660648201526084016020604051808303818588803b158015610beb57600080fd5b505af1158015610bff573d6000803e3d6000fd5b50505050506040513d601f19601f82011682018060405250810190610c2491906112aa565b90506001600160a01b038116610c7c5760405162461bcd60e51b815260206004820152601560248201527f4372656174652070726573616c65204661696c6564000000000000000000000060448201526064016103a0565b610c8c8460200151338385610e52565b6040517f3c6ec90f0000000000000000000000000000000000000000000000000000000081526001600160a01b03821690633c6ec90f90610cd190879060040161148d565b600060405180830381600087803b158015610ceb57600080fd5b505af1158015610cff573d6000803e3d6000fd5b50506040517f87d512590000000000000000000000000000000000000000000000000000000081526001600160a01b03841692506387d512599150610d48908690600401611538565b600060405180830381600087803b158015610d6257600080fd5b505af1158015610d76573d6000803e3d6000fd5b50505050806001600160a01b031663ac34c96d6040518163ffffffff1660e01b8152600401600060405180830381600087803b158015610db557600080fd5b505af1158015610dc9573d6000803e3d6000fd5b50505050610de1816000610fc990919063ffffffff16565b50604080516001600160a01b03831681523360208201527f7ce97a7f0c83b2f9f5bd5df597d7052e608d181e21e81fe7fc9a1e7f38b48c29910160405180910390a150505050565b60006104ba8183610fde565b6000610e418383611000565b9392505050565b60006104ba825490565b604080516001600160a01b0385811660248301528481166044830152606480830185905283518084039091018152608490920183526020820180517bffffffffffffffffffffffffffffffffffffffffffffffffffffffff167f23b872dd000000000000000000000000000000000000000000000000000000001790529151600092839290881691610ee49190611471565b6000604051808303816000865af19150503d8060008114610f21576040519150601f19603f3d011682016040523d82523d6000602084013e610f26565b606091505b5091509150818015610f50575080511580610f50575080806020019051810190610f5091906112c7565b610fc15760405162461bcd60e51b8152602060048201526024808201527f5472616e7366657248656c7065723a205452414e534645525f46524f4d5f464160448201527f494c45440000000000000000000000000000000000000000000000000000000060648201526084016103a0565b505050505050565b6000610e41836001600160a01b03841661102a565b6001600160a01b03811660009081526001830160205260408120541515610e41565b60008260000182815481106110175761101761177a565b9060005260206000200154905092915050565b6000818152600183016020526040812054611071575081546001818101845560008481526020808220909301849055845484825282860190935260409020919091556104ba565b5060006104ba565b828054611085906116f7565b90600052602060002090601f0160209004810192826110a757600085556110ed565b82601f106110c057805160ff19168380011785556110ed565b828001600101855582156110ed579182015b828111156110ed5782518255916020019190600101906110d2565b506110f99291506110fd565b5090565b5b808211156110f957600081556001016110fe565b803561111d816117d8565b919050565b600082601f83011261113357600080fd5b813567ffffffffffffffff8082111561114e5761114e6117a9565b604051601f8301601f19908116603f01168101908282118183101715611176576111766117a9565b8160405283815286602085880101111561118f57600080fd5b836020870160208301376000602085830101528094505050505092915050565b600060a082840312156111c157600080fd5b6111c96115d3565b9050813567ffffffffffffffff808211156111e357600080fd5b6111ef85838601611122565b8352602084013591508082111561120557600080fd5b61121185838601611122565b6020840152604084013591508082111561122a57600080fd5b61123685838601611122565b6040840152606084013591508082111561124f57600080fd5b61125b85838601611122565b6060840152608084013591508082111561127457600080fd5b5061128184828501611122565b60808301525092915050565b60006020828403121561129f57600080fd5b8135610e41816117d8565b6000602082840312156112bc57600080fd5b8151610e41816117d8565b6000602082840312156112d957600080fd5b81518015158114610e4157600080fd5b6000808284036101c08112156112fe57600080fd5b6101a08082121561130e57600080fd5b6113166115fc565b915061132185611112565b825261132f60208601611112565b602083015260408581013590830152606080860135908301526080808601359083015260a0808601359083015260c0808601359083015260e080860135908301526101008086013590830152610120808601359083015261014080860135908301526101608086013590830152610180808601359083015290925083013567ffffffffffffffff8111156113c257600080fd5b6113ce858286016111af565b9150509250929050565b6000602082840312156113ea57600080fd5b5035919050565b60006020828403121561140357600080fd5b5051919050565b600080600080600060a0868803121561142257600080fd5b505083359560208501359550604085013594606081013594506080013592509050565b6000815180845261145d8160208601602086016116c7565b601f01601f19169290920160200192915050565b600082516114838184602087016116c7565b9190910192915050565b81516001600160a01b031681526101a0810160208301516114b960208401826001600160a01b03169052565b5060408301516040830152606083015160608301526080830151608083015260a083015160a083015260c083015160c083015260e083015160e083015261010080840151818401525061012080840151818401525061014080840151818401525061016080840151818401525061018080840151818401525092915050565b602081526000825160a0602084015261155460c0840182611445565b90506020840151601f19808584030160408601526115728383611445565b9250604086015191508085840301606086015261158f8383611445565b925060608601519150808584030160808601526115ac8383611445565b925060808601519150808584030160a0860152506115ca8282611445565b95945050505050565b60405160a0810167ffffffffffffffff811182821017156115f6576115f66117a9565b60405290565b6040516101a0810167ffffffffffffffff811182821017156115f6576115f66117a9565b600082198211156116335761163361174b565b500190565b60008261166e577f4e487b7100000000000000000000000000000000000000000000000000000000600052601260045260246000fd5b500490565b6000817fffffffffffffffffffffffffffffffffffffffffffffffffffffffffffffffff04831182151516156116ab576116ab61174b565b500290565b6000828210156116c2576116c261174b565b500390565b60005b838110156116e25781810151838201526020016116ca565b838111156116f1576000848401525b50505050565b600181811c9082168061170b57607f821691505b60208210811415611745577f4e487b7100000000000000000000000000000000000000000000000000000000600052602260045260246000fd5b50919050565b7f4e487b7100000000000000000000000000000000000000000000000000000000600052601160045260246000fd5b7f4e487b7100000000000000000000000000000000000000000000000000000000600052603260045260246000fd5b7f4e487b7100000000000000000000000000000000000000000000000000000000600052604160045260246000fd5b6001600160a01b03811681146117ed57600080fd5b5056fea2646970667358221220eafbf33897abaff5cd9faa5b0d4eef00f1f5b951c6db7e93e5d4a9396198e19664736f6c63430008070033608060405234801561001057600080fd5b5060405162000ffa38038062000ffa833981016040819052610031916100b1565b600080546001600160a01b03199081166001600160a01b039687161790915560018054821694861694909417909355600280548416928516929092179091556004805483169184169190911790556003805490911692909116919091179055610116565b80516001600160a01b03811681146100ac57600080fd5b919050565b600080600080600060a086880312156100c957600080fd5b6100d286610095565b94506100e060208701610095565b93506100ee60408701610095565b92506100fc60608701610095565b915061010a60808701610095565b90509295509295909350565b610ed480620001266000396000f3fe60806040526004361061007b5760003560e01c8063ad5c46481161004e578063ad5c464814610122578063b2522e2e14610142578063de9d122d14610178578063f96a0d21146101ae57600080fd5b80632431ba73146100805780632c26fb02146100bd578063443603b6146100dd5780638d8c70bb146100f2575b600080fd5b34801561008c57600080fd5b506002546100a0906001600160a01b031681565b6040516001600160a01b0390911681526020015b60405180910390f35b3480156100c957600080fd5b506001546100a0906001600160a01b031681565b6100f06100eb366004610d4d565b6101ce565b005b3480156100fe57600080fd5b5061011261010d366004610d14565b61086d565b60405190151581526020016100b4565b34801561012e57600080fd5b506004546100a0906001600160a01b031681565b34801561014e57600080fd5b506100a061015d366004610cd3565b6006602052600090815260409020546001600160a01b031681565b34801561018457600080fd5b506100a0610193366004610cd3565b6005602052600090815260409020546001600160a01b031681565b3480156101ba57600080fd5b506000546100a0906001600160a01b031681565b6003546040517fc224122d0000000000000000000000000000000000000000000000000000000081523360048201526001600160a01b039091169063c224122d9060240160206040518083038186803b15801561022a57600080fd5b505afa15801561023e573d6000803e3d6000fd5b505050506040513d601f19601f820116820180604052508101906102629190610da3565b6102cd576040517f08c379a000000000000000000000000000000000000000000000000000000000815260206004820152601660248201527f50524553414c45204e4f5420524547495354455245440000000000000000000060448201526064015b60405180910390fd5b600054604080517fa035b1fe000000000000000000000000000000000000000000000000000000008152905186926001600160a01b03169163a035b1fe916004808301926020929190829003018186803b15801561032a57600080fd5b505afa15801561033e573d6000803e3d6000fd5b505050506040513d601f19601f820116820180604052508101906103629190610dc5565b61036c9190610e47565b3410156103d5576040517f08c379a000000000000000000000000000000000000000000000000000000000815260206004820152601760248201527f42616c616e636520697320696e73756666696369656e7400000000000000000060448201526064016102c4565b6103e1853330866109df565b6002546103f99086906001600160a01b031685610b70565b6002546001600160a01b031663f305d7198587866000803061041d4261012c610e47565b60405160e089901b7fffffffff000000000000000000000000000000000000000000000000000000001681526001600160a01b039687166004820152602481019590955260448501939093526064840191909152909216608482015260a481019190915260c4016060604051808303818588803b15801561049d57600080fd5b505af11580156104b1573d6000803e3d6000fd5b50505050506040513d601f19601f820116820180604052508101906104d69190610dde565b5050600154600480546040517fe6a439050000000000000000000000000000000000000000000000000000000081526001600160a01b03918216928101929092528881166024830152600093509091169063e6a439059060440160206040518083038186803b15801561054857600080fd5b505afa15801561055c573d6000803e3d6000fd5b505050506040513d601f19601f820116820180604052508101906105809190610cf7565b6040517f70a082310000000000000000000000000000000000000000000000000000000081523060048201529091506000906001600160a01b038316906370a082319060240160206040518083038186803b1580156105de57600080fd5b505afa1580156105f2573d6000803e3d6000fd5b505050506040513d601f19601f820116820180604052508101906106169190610dc5565b90508061067f576040517f08c379a000000000000000000000000000000000000000000000000000000000815260206004820152601260248201527f4c50206372656174696f6e206661696c6564000000000000000000000000000060448201526064016102c4565b6000546106979083906001600160a01b031683610b70565b60006402540be3ff85116106ab57846106b2565b6402540be3ff5b600054604080517fa035b1fe00000000000000000000000000000000000000000000000000000000815290519293506001600160a01b0390911691636610cc2091839163a035b1fe91600480820192602092909190829003018186803b15801561071b57600080fd5b505afa15801561072f573d6000803e3d6000fd5b505050506040513d601f19601f820116820180604052508101906107539190610dc5565b6040517fffffffff0000000000000000000000000000000000000000000000000000000060e084901b1681526001600160a01b0380881660048301526024820187905260448201869052881660648201526084016000604051808303818588803b1580156107c057600080fd5b505af11580156107d4573d6000803e3d6000fd5b5050506001600160a01b03808b1660009081526005602090815260408083208054858b167fffffffffffffffffffffffff00000000000000000000000000000000000000009182161790915560069092528083208054948b16949092168417909155519193504780156108fc0293509190818181858888f19350505050158015610862573d6000803e3d6000fd5b505050505050505050565b6001546040517fe6a439050000000000000000000000000000000000000000000000000000000081526001600160a01b0384811660048301528381166024830152600092839291169063e6a439059060440160206040518083038186803b1580156108d757600080fd5b505afa1580156108eb573d6000803e3d6000fd5b505050506040513d601f19601f8201168201806040525081019061090f9190610cf7565b90506001600160a01b0381166109295760009150506109d9565b6040517f70a082310000000000000000000000000000000000000000000000000000000081526001600160a01b038281166004830152600091908616906370a082319060240160206040518083038186803b15801561098757600080fd5b505afa15801561099b573d6000803e3d6000fd5b505050506040513d601f19601f820116820180604052508101906109bf9190610dc5565b905080156109d2576001925050506109d9565b6000925050505b92915050565b604080516001600160a01b0385811660248301528481166044830152606480830185905283518084039091018152608490920183526020820180517bffffffffffffffffffffffffffffffffffffffffffffffffffffffff167f23b872dd000000000000000000000000000000000000000000000000000000001790529151600092839290881691610a719190610e0c565b6000604051808303816000865af19150503d8060008114610aae576040519150601f19603f3d011682016040523d82523d6000602084013e610ab3565b606091505b5091509150818015610add575080511580610add575080806020019051810190610add9190610da3565b610b68576040517f08c379a0000000000000000000000000000000000000000000000000000000008152602060048201526024808201527f5472616e7366657248656c7065723a205452414e534645525f46524f4d5f464160448201527f494c45440000000000000000000000000000000000000000000000000000000060648201526084016102c4565b505050505050565b604080516001600160a01b038481166024830152604480830185905283518084039091018152606490920183526020820180517bffffffffffffffffffffffffffffffffffffffffffffffffffffffff167f095ea7b3000000000000000000000000000000000000000000000000000000001790529151600092839290871691610bfa9190610e0c565b6000604051808303816000865af19150503d8060008114610c37576040519150601f19603f3d011682016040523d82523d6000602084013e610c3c565b606091505b5091509150818015610c66575080511580610c66575080806020019051810190610c669190610da3565b610ccc576040517f08c379a000000000000000000000000000000000000000000000000000000000815260206004820152601e60248201527f5472616e7366657248656c7065723a20415050524f56455f4641494c4544000060448201526064016102c4565b5050505050565b600060208284031215610ce557600080fd5b8135610cf081610e86565b9392505050565b600060208284031215610d0957600080fd5b8151610cf081610e86565b60008060408385031215610d2757600080fd5b8235610d3281610e86565b91506020830135610d4281610e86565b809150509250929050565b600080600080600060a08688031215610d6557600080fd5b8535610d7081610e86565b94506020860135935060408601359250606086013591506080860135610d9581610e86565b809150509295509295909350565b600060208284031215610db557600080fd5b81518015158114610cf057600080fd5b600060208284031215610dd757600080fd5b5051919050565b600080600060608486031215610df357600080fd5b8351925060208401519150604084015190509250925092565b6000825160005b81811015610e2d5760208186018101518583015201610e13565b81811115610e3c576000828501525b509190910192915050565b60008219821115610e81577f4e487b7100000000000000000000000000000000000000000000000000000000600052601160045260246000fd5b500190565b6001600160a01b0381168114610e9b57600080fd5b5056fea264697066735822122086d3c2e0fee3335f3e59b781484759bdb3f1a00e489579c48cf69028a61c199d64736f6c63430008070033608060405234801561001057600080fd5b50604051610d77380380610d7783398101604081905261002f9161008b565b600080546001600160a01b03199081166001600160a01b0394851617909155600180548216948416949094179093556002805490931691161790556100ce565b80516001600160a01b038116811461008657600080fd5b919050565b6000806000606084860312156100a057600080fd5b6100a98461006f565b92506100b76020850161006f565b91506100c56040850161006f565b90509250925092565b610c9a806100dd6000396000f3fe608060405234801561001057600080fd5b506004361061016c5760003560e01c80637480ba7f116100cd578063b25b298f11610081578063fafd117111610066578063fafd117114610315578063fca19d2714610328578063fcc22fd21461033057600080fd5b8063b25b298f14610305578063db28dbd11461030d57600080fd5b806389b23cff116100b257806389b23cff146102ce578063a4f2fb58146102df578063afa5bd91146102f257600080fd5b80637480ba7f146102ac57806386c90a9f146102bd57600080fd5b80635a305ff8116101245780635ed88cc8116101095780635ed88cc81461027e5780636159ae59146102915780636843ac491461029957600080fd5b80635a305ff8146102465780635cec3a331461026b57600080fd5b80633b44ba27116101555780633b44ba271461020b5780633b5eff581461022057806348fd86811461023357600080fd5b80632107c10114610171578063370158ea14610188575b600080fd5b6006545b6040519081526020015b60405180910390f35b600354600454600554600654600754600854600954600a546101be97969594936001600160a01b03908116938116928116911688565b6040805198895260208901979097529587019490945260608601929092526001600160a01b03908116608086015290811660a085015290811660c08401521660e08201526101000161017f565b61021e610219366004610b36565b610343565b005b61021e61022e366004610b58565b610404565b61021e610241366004610c32565b6104fe565b600a546001600160a01b03165b6040516001600160a01b03909116815260200161017f565b61021e610279366004610c32565b610594565b61021e61028c366004610b36565b610623565b600454610175565b61021e6102a7366004610b36565b6106e3565b6007546001600160a01b0316610253565b6009546001600160a01b0316610253565b6008546001600160a01b0316610253565b61021e6102ed366004610c32565b6107a9565b61021e610300366004610c32565b610838565b600554610175565b6101756108c7565b61021e610323366004610b36565b610962565b600354610175565b61021e61033e366004610bb7565b610a1e565b6000546001600160a01b031633146103a25760405162461bcd60e51b815260206004820181905260248201527f4f776e61626c653a2063616c6c6572206973206e6f7420746865206f776e657260448201526064015b60405180910390fd5b600780547fffffffffffffffffffffffff0000000000000000000000000000000000000000166001600160a01b0383169081179091556040517f914c3dc0d36d367cfbf9c2d12b8ecbce32c53f61073b6786b731d626ca28cd1690600090a250565b6000546001600160a01b0316331461045e5760405162461bcd60e51b815260206004820181905260248201527f4f776e61626c653a2063616c6c6572206973206e6f7420746865206f776e65726044820152606401610399565b600a80546001600160a01b038881167fffffffffffffffffffffffff000000000000000000000000000000000000000092831617909255600780548884169083161790556008805492871692909116919091179055600683905560038290556004819055604051600181527f5b04e2909297afc4d97c5e73529a4c22bd078759a55cf46f4b6ff9b82f264fe29060200160405180910390a1505050505050565b6000546001600160a01b031633146105585760405162461bcd60e51b815260206004820181905260248201527f4f776e61626c653a2063616c6c6572206973206e6f7420746865206f776e65726044820152606401610399565b60048190556040518181527fa85e85cd3258e19490ec75acd2bac57bbcd073866e3bf52a554d744f9b6ea430906020015b60405180910390a150565b6000546001600160a01b031633146105ee5760405162461bcd60e51b815260206004820181905260248201527f4f776e61626c653a2063616c6c6572206973206e6f7420746865206f776e65726044820152606401610399565b60068190556040518181527f1422ff3e1c021de75f6e67bd772dde2ca40e95cb2a377835d93cc55b0d353ced90602001610589565b6000546001600160a01b0316331461067d5760405162461bcd60e51b815260206004820181905260248201527f4f776e61626c653a2063616c6c6572206973206e6f7420746865206f776e65726044820152606401610399565b600a80547fffffffffffffffffffffffff0000000000000000000000000000000000000000166001600160a01b0383169081179091556040519081527f2dce471c25dfcbd96624037a30e7e4f73e4ab05bd2c075c9408315de4cb8a0ce90602001610589565b6000546001600160a01b0316331461073d5760405162461bcd60e51b815260206004820181905260248201527f4f776e61626c653a2063616c6c6572206973206e6f7420746865206f776e65726044820152606401610399565b600880547fffffffffffffffffffffffff0000000000000000000000000000000000000000166001600160a01b0383811691909117909155600954604051911681527f2dce471c25dfcbd96624037a30e7e4f73e4ab05bd2c075c9408315de4cb8a0ce90602001610589565b6000546001600160a01b031633146108035760405162461bcd60e51b815260206004820181905260248201527f4f776e61626c653a2063616c6c6572206973206e6f7420746865206f776e65726044820152606401610399565b60038190556040518181527f169df7c4f78e51723fa449c0f67297f01c285b0a209cbf5753a023c2d5dccf2590602001610589565b6000546001600160a01b031633146108925760405162461bcd60e51b815260206004820181905260248201527f4f776e61626c653a2063616c6c6572206973206e6f7420746865206f776e65726044820152606401610399565b60058190556040518181527fa2e5a2568fd883a302b07f53b61680d293c18e9e05bd4efe55e346582df1940c90602001610589565b600254604080517fa035b1fe00000000000000000000000000000000000000000000000000000000815290516000926001600160a01b03169163a035b1fe916004808301926020929190829003018186803b15801561092557600080fd5b505afa158015610939573d6000803e3d6000fd5b505050506040513d601f19601f8201168201806040525081019061095d9190610c4b565b905090565b6000546001600160a01b031633146109bc5760405162461bcd60e51b815260206004820181905260248201527f4f776e61626c653a2063616c6c6572206973206e6f7420746865206f776e65726044820152606401610399565b600880547fffffffffffffffffffffffff0000000000000000000000000000000000000000166001600160a01b0383169081179091556040517fb7b4de15f8656e985c19351858b30725bdefae6318b15dbc4d9cf56ca193a1c990600090a250565b6001546001600160a01b03163314610a9e5760405162461bcd60e51b815260206004820152602260248201527f4f776e61626c653a2063616c6c6572206973206e6f7420746865206d616e616760448201527f65720000000000000000000000000000000000000000000000000000000000006064820152608401610399565b600696909655600780547fffffffffffffffffffffffff00000000000000000000000000000000000000009081166001600160a01b039788161790915560039490945560088054851693861693909317909255600455600980548316918416919091179055600592909255600a80549092169216919091179055565b80356001600160a01b0381168114610b3157600080fd5b919050565b600060208284031215610b4857600080fd5b610b5182610b1a565b9392505050565b60008060008060008060c08789031215610b7157600080fd5b610b7a87610b1a565b9550610b8860208801610b1a565b9450610b9660408801610b1a565b9350606087013592506080870135915060a087013590509295509295509295565b600080600080600080600080610100898b031215610bd457600080fd5b610bdd89610b1a565b975060208901359650610bf260408a01610b1a565b955060608901359450610c0760808a01610b1a565b935060a08901359250610c1c60c08a01610b1a565b915060e089013590509295985092959890939650565b600060208284031215610c4457600080fd5b5035919050565b600060208284031215610c5d57600080fd5b505191905056fea26469706673582212204488e0bd8dc28003bc01b561137b72fa6872214c18e5964939351178a400643464736f6c63430008070033",
  "devdoc": {
    "kind": "dev",
    "methods": {},
    "version": 1
  },
  "userdoc": {
    "kind": "user",
    "methods": {
      "calculateAmountRequired(uint256,uint256,uint256,uint256,uint256)": {
        "notice": "Creates a new Presale contract and registers it in the PresaleFactory.sol."
      }
    },
    "version": 1
  },
  "storageLayout": {
    "storage": [
      {
        "astId": 8352,
        "contract": "contracts/Presale/Meter/PresaleManage.sol:PresaleManage",
        "label": "presales",
        "offset": 0,
        "slot": "0",
        "type": "t_struct(AddressSet)2261_storage"
      },
      {
        "astId": 8355,
        "contract": "contracts/Presale/Meter/PresaleManage.sol:PresaleManage",
        "label": "presaleFactory",
        "offset": 0,
        "slot": "2",
        "type": "t_contract(PresaleFactory)8020"
      },
      {
        "astId": 8357,
        "contract": "contracts/Presale/Meter/PresaleManage.sol:PresaleManage",
        "label": "presale_lock_forward_addr",
        "offset": 0,
        "slot": "3",
        "type": "t_address"
      },
      {
        "astId": 8359,
        "contract": "contracts/Presale/Meter/PresaleManage.sol:PresaleManage",
        "label": "presale_setting_addr",
        "offset": 0,
        "slot": "4",
        "type": "t_address"
      },
      {
        "astId": 8362,
        "contract": "contracts/Presale/Meter/PresaleManage.sol:PresaleManage",
        "label": "_lock",
        "offset": 0,
        "slot": "5",
        "type": "t_contract(PresaleLockForwarder)8335"
      },
      {
        "astId": 8364,
        "contract": "contracts/Presale/Meter/PresaleManage.sol:PresaleManage",
        "label": "uniswap_factory_address",
        "offset": 0,
        "slot": "6",
        "type": "t_address"
      },
      {
        "astId": 8366,
        "contract": "contracts/Presale/Meter/PresaleManage.sol:PresaleManage",
        "label": "uniswap_pair_address",
        "offset": 0,
        "slot": "7",
        "type": "t_address"
      },
      {
        "astId": 8368,
        "contract": "contracts/Presale/Meter/PresaleManage.sol:PresaleManage",
        "label": "weth_address",
        "offset": 0,
        "slot": "8",
        "type": "t_address"
      },
      {
        "astId": 8370,
        "contract": "contracts/Presale/Meter/PresaleManage.sol:PresaleManage",
        "label": "owner",
        "offset": 0,
        "slot": "9",
        "type": "t_address_payable"
      },
      {
        "astId": 8373,
        "contract": "contracts/Presale/Meter/PresaleManage.sol:PresaleManage",
        "label": "presale_info",
        "offset": 0,
        "slot": "10",
        "type": "t_struct(PresaleInfo)8894_storage"
      },
      {
        "astId": 8376,
        "contract": "contracts/Presale/Meter/PresaleManage.sol:PresaleManage",
        "label": "presalelink",
        "offset": 0,
        "slot": "23",
        "type": "t_struct(PresaleLink)8905_storage"
      },
      {
        "astId": 8379,
        "contract": "contracts/Presale/Meter/PresaleManage.sol:PresaleManage",
        "label": "settings",
        "offset": 0,
        "slot": "28",
        "type": "t_contract(PresaleSettings)9388"
      }
    ],
    "types": {
      "t_address": {
        "encoding": "inplace",
        "label": "address",
        "numberOfBytes": "20"
      },
      "t_address_payable": {
        "encoding": "inplace",
        "label": "address payable",
        "numberOfBytes": "20"
      },
      "t_array(t_bytes32)dyn_storage": {
        "base": "t_bytes32",
        "encoding": "dynamic_array",
        "label": "bytes32[]",
        "numberOfBytes": "32"
      },
      "t_bytes32": {
        "encoding": "inplace",
        "label": "bytes32",
        "numberOfBytes": "32"
      },
      "t_contract(PresaleFactory)8020": {
        "encoding": "inplace",
        "label": "contract PresaleFactory",
        "numberOfBytes": "20"
      },
      "t_contract(PresaleLockForwarder)8335": {
        "encoding": "inplace",
        "label": "contract PresaleLockForwarder",
        "numberOfBytes": "20"
      },
      "t_contract(PresaleSettings)9388": {
        "encoding": "inplace",
        "label": "contract PresaleSettings",
        "numberOfBytes": "20"
      },
      "t_mapping(t_bytes32,t_uint256)": {
        "encoding": "mapping",
        "key": "t_bytes32",
        "label": "mapping(bytes32 => uint256)",
        "numberOfBytes": "32",
        "value": "t_uint256"
      },
      "t_string_storage": {
        "encoding": "bytes",
        "label": "string",
        "numberOfBytes": "32"
      },
      "t_struct(AddressSet)2261_storage": {
        "encoding": "inplace",
        "label": "struct EnumerableSet.AddressSet",
        "members": [
          {
            "astId": 2260,
            "contract": "contracts/Presale/Meter/PresaleManage.sol:PresaleManage",
            "label": "_inner",
            "offset": 0,
            "slot": "0",
            "type": "t_struct(Set)1960_storage"
          }
        ],
        "numberOfBytes": "64"
      },
      "t_struct(PresaleInfo)8894_storage": {
        "encoding": "inplace",
        "label": "struct SharedStructs.PresaleInfo",
        "members": [
          {
            "astId": 8869,
            "contract": "contracts/Presale/Meter/PresaleManage.sol:PresaleManage",
            "label": "presale_owner",
            "offset": 0,
            "slot": "0",
            "type": "t_address_payable"
          },
          {
            "astId": 8871,
            "contract": "contracts/Presale/Meter/PresaleManage.sol:PresaleManage",
            "label": "sale_token",
            "offset": 0,
            "slot": "1",
            "type": "t_address"
          },
          {
            "astId": 8873,
            "contract": "contracts/Presale/Meter/PresaleManage.sol:PresaleManage",
            "label": "token_rate",
            "offset": 0,
            "slot": "2",
            "type": "t_uint256"
          },
          {
            "astId": 8875,
            "contract": "contracts/Presale/Meter/PresaleManage.sol:PresaleManage",
            "label": "raise_min",
            "offset": 0,
            "slot": "3",
            "type": "t_uint256"
          },
          {
            "astId": 8877,
            "contract": "contracts/Presale/Meter/PresaleManage.sol:PresaleManage",
            "label": "raise_max",
            "offset": 0,
            "slot": "4",
            "type": "t_uint256"
          },
          {
            "astId": 8879,
            "contract": "contracts/Presale/Meter/PresaleManage.sol:PresaleManage",
            "label": "hardcap",
            "offset": 0,
            "slot": "5",
            "type": "t_uint256"
          },
          {
            "astId": 8881,
            "contract": "contracts/Presale/Meter/PresaleManage.sol:PresaleManage",
            "label": "softcap",
            "offset": 0,
            "slot": "6",
            "type": "t_uint256"
          },
          {
            "astId": 8883,
            "contract": "contracts/Presale/Meter/PresaleManage.sol:PresaleManage",
            "label": "liqudity_percent",
            "offset": 0,
            "slot": "7",
            "type": "t_uint256"
          },
          {
            "astId": 8885,
            "contract": "contracts/Presale/Meter/PresaleManage.sol:PresaleManage",
            "label": "listing_rate",
            "offset": 0,
            "slot": "8",
            "type": "t_uint256"
          },
          {
            "astId": 8887,
            "contract": "contracts/Presale/Meter/PresaleManage.sol:PresaleManage",
            "label": "lock_end",
            "offset": 0,
            "slot": "9",
            "type": "t_uint256"
          },
          {
            "astId": 8889,
            "contract": "contracts/Presale/Meter/PresaleManage.sol:PresaleManage",
            "label": "lock_start",
            "offset": 0,
            "slot": "10",
            "type": "t_uint256"
          },
          {
            "astId": 8891,
            "contract": "contracts/Presale/Meter/PresaleManage.sol:PresaleManage",
            "label": "presale_end",
            "offset": 0,
            "slot": "11",
            "type": "t_uint256"
          },
          {
            "astId": 8893,
            "contract": "contracts/Presale/Meter/PresaleManage.sol:PresaleManage",
            "label": "presale_start",
            "offset": 0,
            "slot": "12",
            "type": "t_uint256"
          }
        ],
        "numberOfBytes": "416"
      },
      "t_struct(PresaleLink)8905_storage": {
        "encoding": "inplace",
        "label": "struct SharedStructs.PresaleLink",
        "members": [
          {
            "astId": 8896,
            "contract": "contracts/Presale/Meter/PresaleManage.sol:PresaleManage",
            "label": "website_link",
            "offset": 0,
            "slot": "0",
            "type": "t_string_storage"
          },
          {
            "astId": 8898,
            "contract": "contracts/Presale/Meter/PresaleManage.sol:PresaleManage",
            "label": "github_link",
            "offset": 0,
            "slot": "1",
            "type": "t_string_storage"
          },
          {
            "astId": 8900,
            "contract": "contracts/Presale/Meter/PresaleManage.sol:PresaleManage",
            "label": "twitter_link",
            "offset": 0,
            "slot": "2",
            "type": "t_string_storage"
          },
          {
            "astId": 8902,
            "contract": "contracts/Presale/Meter/PresaleManage.sol:PresaleManage",
            "label": "reddit_link",
            "offset": 0,
            "slot": "3",
            "type": "t_string_storage"
          },
          {
            "astId": 8904,
            "contract": "contracts/Presale/Meter/PresaleManage.sol:PresaleManage",
            "label": "telegram_link",
            "offset": 0,
            "slot": "4",
            "type": "t_string_storage"
          }
        ],
        "numberOfBytes": "160"
      },
      "t_struct(Set)1960_storage": {
        "encoding": "inplace",
        "label": "struct EnumerableSet.Set",
        "members": [
          {
            "astId": 1955,
            "contract": "contracts/Presale/Meter/PresaleManage.sol:PresaleManage",
            "label": "_values",
            "offset": 0,
            "slot": "0",
            "type": "t_array(t_bytes32)dyn_storage"
          },
          {
            "astId": 1959,
            "contract": "contracts/Presale/Meter/PresaleManage.sol:PresaleManage",
            "label": "_indexes",
            "offset": 0,
            "slot": "1",
            "type": "t_mapping(t_bytes32,t_uint256)"
          }
        ],
        "numberOfBytes": "64"
      },
      "t_uint256": {
        "encoding": "inplace",
        "label": "uint256",
        "numberOfBytes": "32"
      }
    }
  }
}