{
  "address": "0x8175026502FEa0172Bc8b5dDa39Fd0D802E755e9",
  "abi": [
    {
      "inputs": [
        {
          "internalType": "address",
          "name": "manage",
          "type": "address"
        },
        {
          "internalType": "address",
          "name": "wethfact",
          "type": "address"
        },
        {
          "internalType": "address",
          "name": "setting",
          "type": "address"
        },
        {
          "internalType": "address",
          "name": "lockaddr",
          "type": "address"
        }
      ],
      "name": "deploy",
      "outputs": [
        {
          "internalType": "contract PresaleV1",
          "name": "",
          "type": "address"
        }
      ],
      "stateMutability": "payable",
      "type": "function"
    }
  ],
  "transactionHash": "0x04a3f749533f45bab6dce44905f54f67b7d808a0e6e69115af3629a6cf26ffda",
  "args": [],
  "solcInputHash": "d7bb5aae49da3eb763f53c6bb21abd0a",
  "bytecode": "0x608060405234801561001057600080fd5b5061328d806100206000396000f3fe60806040526004361061001e5760003560e01c8063fd82b73a14610023575b600080fd5b610036610031366004610104565b61005f565b60405173ffffffffffffffffffffffffffffffffffffffff909116815260200160405180910390f35b60003485858585604051610072906100ce565b73ffffffffffffffffffffffffffffffffffffffff94851681529284166020840152908316604083015290911660608201526080016040518091039082f09050801580156100c4573d6000803e3d6000fd5b5095945050505050565b6130ff8061015983390190565b803573ffffffffffffffffffffffffffffffffffffffff811681146100ff57600080fd5b919050565b6000806000806080858703121561011a57600080fd5b610123856100db565b9350610131602086016100db565b925061013f604086016100db565b915061014d606086016100db565b90509295919450925056fe6080604052604051620030ff380380620030ff833981016040819052620000269162000171565b6001600055602580546001600160a01b0319166001600160a01b0384169081179091556040805163db28dbd160e01b8152905163db28dbd191600480820192602092909190829003018186803b1580156200008057600080fd5b505afa15801562000095573d6000803e3d6000fd5b505050506040513d601f19601f82011682018060405250810190620000bb9190620001ce565b3410156200010f5760405162461bcd60e51b815260206004820152601660248201527f42616c616e636520697320696e737566666963656e7400000000000000000000604482015260640160405180910390fd5b602380546001600160a01b03199081166001600160a01b03968716179091556024805482169486169490941790935560268054909316931692909217905550620001e8565b80516001600160a01b03811681146200016c57600080fd5b919050565b600080600080608085870312156200018857600080fd5b620001938562000154565b9350620001a36020860162000154565b9250620001b36040860162000154565b9150620001c36060860162000154565b905092959194509250565b600060208284031215620001e157600080fd5b5051919050565b612f0780620001f86000396000f3fe6080604052600436106101295760003560e01c806397a993aa116100a5578063c39e7dbb11610074578063e86e634011610059578063e86e63401461046a578063f0057eef1461047f578063fe8121de1461049f57600080fd5b8063c39e7dbb14610440578063e8078d941461045557600080fd5b806397a993aa1461039a5780639d1213a7146103e3578063ac34c96d14610408578063acfb23551461041d57600080fd5b806348146113116100fc5780638288f95c116100e15780638288f95c146102f057806383197ef01461036557806387d512591461037a57600080fd5b806348146113146102285780634d18b5e21461023057600080fd5b80631c4695f41461012e578063200d2ed21461015d5780633c6ec90f146101ce5780634650d20d146101f0575b600080fd5b34801561013a57600080fd5b506101436104b4565b604051610154959493929190612baf565b60405180910390f35b34801561016957600080fd5b50600e54600f546010546011546012546013546101979560ff80821696610100909204169490939092909187565b6040805197151588529515156020880152948601939093526060850191909152608084015260a083015260c082015260e001610154565b3480156101da57600080fd5b506101ee6101e9366004612975565b61077e565b005b3480156101fc57600080fd5b50602554610210906001600160a01b031681565b6040516001600160a01b039091168152602001610154565b6101ee610aab565b34801561023c57600080fd5b50600154600254600354600454600554600654600754600854600954600a54600b54600c54600d546102839c6001600160a01b039081169c169a999897969594939291908d565b604080516001600160a01b039e8f1681529d909c1660208e01529a8c019990995260608b019790975260808a019590955260a089019390935260c088019190915260e08701526101008601526101208501526101408401526101608301526101808201526101a001610154565b3480156102fc57600080fd5b50601954601a54601b54601c54601d54601e54610329959493926001600160a01b03908116928116911686565b604080519687526020870195909552938501929092526001600160a01b03908116606085015290811660808401521660a082015260c001610154565b34801561037157600080fd5b506101ee610ec1565b34801561038657600080fd5b506101ee610395366004612a2e565b610f21565b3480156103a657600080fd5b506103ce6103b536600461289b565b6027602052600090815260409020805460019091015482565b60408051928352602083019190915201610154565b3480156103ef57600080fd5b506103f8611008565b6040516101549493929190612c1c565b34801561041457600080fd5b506101ee611134565b34801561042957600080fd5b5061043261159d565b604051908152602001610154565b34801561044c57600080fd5b506101ee61162b565b34801561046157600080fd5b506101ee611806565b34801561047657600080fd5b506101ee611fa3565b34801561048b57600080fd5b50602654610210906001600160a01b031681565b3480156104ab57600080fd5b506101ee6120a1565b6014805481906104c390612dce565b80601f01602080910402602001604051908101604052809291908181526020018280546104ef90612dce565b801561053c5780601f106105115761010080835404028352916020019161053c565b820191906000526020600020905b81548152906001019060200180831161051f57829003601f168201915b50505050509080600101805461055190612dce565b80601f016020809104026020016040519081016040528092919081815260200182805461057d90612dce565b80156105ca5780601f1061059f576101008083540402835291602001916105ca565b820191906000526020600020905b8154815290600101906020018083116105ad57829003601f168201915b5050505050908060020180546105df90612dce565b80601f016020809104026020016040519081016040528092919081815260200182805461060b90612dce565b80156106585780601f1061062d57610100808354040283529160200191610658565b820191906000526020600020905b81548152906001019060200180831161063b57829003601f168201915b50505050509080600301805461066d90612dce565b80601f016020809104026020016040519081016040528092919081815260200182805461069990612dce565b80156106e65780601f106106bb576101008083540402835291602001916106e6565b820191906000526020600020905b8154815290600101906020018083116106c957829003601f168201915b5050505050908060040180546106fb90612dce565b80601f016020809104026020016040519081016040528092919081815260200182805461072790612dce565b80156107745780601f1061074957610100808354040283529160200191610774565b820191906000526020600020905b81548152906001019060200180831161075757829003601f168201915b5050505050905085565b6023546001600160a01b031633146107dd5760405162461bcd60e51b815260206004820181905260248201527f4f6e6c79206d616e616765206164647265737320697320617661696c61626c6560448201526064015b60405180910390fd5b8051600180547fffffffffffffffffffffffff00000000000000000000000000000000000000009081166001600160a01b03938416179091556020830151600280549092169216918217905560408083015160035560608301516004908155608084015160055560a084015160065560c084015160075560e0840151600855610100840151600955610120840151600a55610140840151600b55610160840151600c55610180840151600d5581517f06fdde0300000000000000000000000000000000000000000000000000000000815291516306fdde03928083019260009291829003018186803b1580156108d257600080fd5b505afa1580156108e6573d6000803e3d6000fd5b505050506040513d6000823e601f3d908101601f1916820160405261090e91908101906128fe565b805161092291601f9160209091019061279c565b5080602001516001600160a01b03166395d89b416040518163ffffffff1660e01b815260040160006040518083038186803b15801561096057600080fd5b505afa158015610974573d6000803e3d6000fd5b505050506040513d6000823e601f3d908101601f1916820160405261099c91908101906128fe565b80516109ae916020919082019061279c565b5080602001516001600160a01b031663313ce5676040518163ffffffff1660e01b815260040160206040518083038186803b1580156109ec57600080fd5b505afa158015610a00573d6000803e3d6000fd5b505050506040513d601f19601f82011682018060405250810190610a249190612b44565b60ff16601f6003018190555080602001516001600160a01b03166318160ddd6040518163ffffffff1660e01b815260040160206040518083038186803b158015610a6d57600080fd5b505afa158015610a81573d6000803e3d6000fd5b505050506040513d601f19601f82011682018060405250810190610aa59190612b2b565b60215550565b60026000541415610afe5760405162461bcd60e51b815260206004820152601f60248201527f5265656e7472616e637947756172643a207265656e7472616e742063616c6c0060448201526064016107d4565b6002600055610b0b61159d565b600114610b5a5760405162461bcd60e51b815260206004820152600a60248201527f4e4f54204143544956450000000000000000000000000000000000000000000060448201526064016107d4565b600454341015610bac5760405162461bcd60e51b815260206004820152601660248201527f62616c616e636520697320696e737566666963656e740000000000000000000060448201526064016107d4565b600554341115610bfe5760405162461bcd60e51b815260206004820152601360248201527f62616c616e636520697320746f6f206d7563680000000000000000000000000060448201526064016107d4565b3360009081526027602052604081208054600554919234929091610c2191612d8b565b600f54600654919250600091610c379190612d8b565b9050808211610c465781610c48565b805b915081831115610c56578192505b600354600090670de0b6b3a764000090610c709086612d4e565b610c7a9190612d13565b905060008111610ccc5760405162461bcd60e51b815260206004820152600b60248201527f5a45524f20544f4b454e5300000000000000000000000000000000000000000060448201526064016107d4565b6002546040517f70a082310000000000000000000000000000000000000000000000000000000081523060048201526001600160a01b03909116906370a082319060240160206040518083038186803b158015610d2857600080fd5b505afa158015610d3c573d6000803e3d6000fd5b505050506040513d601f19601f82011682018060405250810190610d609190612b2b565b811115610daf5760405162461bcd60e51b815260206004820152601260248201527f546f6b656e207265616d696e206572726f72000000000000000000000000000060448201526064016107d4565b8454610dcb5760138054906000610dc583612e22565b91905055505b33600090815260276020526040902054610de6908590612cfb565b33600090815260276020526040902090815560010154610e07908290612cfb565b33600090815260276020526040902060010155600f54610e28908590612cfb565b600f55601054610e39908290612cfb565b60105534841015610e7c57336108fc610e528634612d8b565b6040518115909202916000818181858888f19350505050158015610e7a573d6000803e3d6000fd5b505b604080513381523460208201527f6800c78b31b30f29de1de17ff27c5e7c5a990802a69fd1216dd496bafd9c6e0191015b60405180910390a150506001600055505050565b600e5460ff16610f135760405162461bcd60e51b815260206004820152601860248201527f6c702067656e65726174696f6e20696e636f6d706c657465000000000000000060448201526064016107d4565b6001546001600160a01b0316ff5b6023546001600160a01b03163314610f7b5760405162461bcd60e51b815260206004820181905260248201527f4f6e6c79206d616e616765206164647265737320697320617661696c61626c6560448201526064016107d4565b805180518291601491610f9591839160209091019061279c565b506020828101518051610fae926001850192019061279c565b5060408201518051610fca91600284019160209091019061279c565b5060608201518051610fe691600384019160209091019061279c565b506080820151805161100291600484019160209091019061279c565b50505050565b601f8054819061101790612dce565b80601f016020809104026020016040519081016040528092919081815260200182805461104390612dce565b80156110905780601f1061106557610100808354040283529160200191611090565b820191906000526020600020905b81548152906001019060200180831161107357829003601f168201915b5050505050908060010180546110a590612dce565b80601f01602080910402602001604051908101604052809291908181526020018280546110d190612dce565b801561111e5780601f106110f35761010080835404028352916020019161111e565b820191906000526020600020905b81548152906001019060200180831161110157829003601f168201915b5050505050908060020154908060030154905084565b6023546001600160a01b0316331461118e5760405162461bcd60e51b815260206004820181905260248201527f4f6e6c79206d616e616765206164647265737320697320617661696c61626c6560448201526064016107d4565b602560009054906101000a90046001600160a01b03166001600160a01b031663fca19d276040518163ffffffff1660e01b815260040160206040518083038186803b1580156111dc57600080fd5b505afa1580156111f0573d6000803e3d6000fd5b505050506040513d601f19601f820116820180604052508101906112149190612b2b565b601955602554604080517f6159ae5900000000000000000000000000000000000000000000000000000000815290516001600160a01b0390921691636159ae5991600480820192602092909190829003018186803b15801561127557600080fd5b505afa158015611289573d6000803e3d6000fd5b505050506040513d601f19601f820116820180604052508101906112ad9190612b2b565b601a55602554604080517fb25b298f00000000000000000000000000000000000000000000000000000000815290516001600160a01b039092169163b25b298f91600480820192602092909190829003018186803b15801561130e57600080fd5b505afa158015611322573d6000803e3d6000fd5b505050506040513d601f19601f820116820180604052508101906113469190612b2b565b601b55602554604080517f7480ba7f00000000000000000000000000000000000000000000000000000000815290516001600160a01b0390921691637480ba7f91600480820192602092909190829003018186803b1580156113a757600080fd5b505afa1580156113bb573d6000803e3d6000fd5b505050506040513d601f19601f820116820180604052508101906113df91906128bf565b601c80547fffffffffffffffffffffffff0000000000000000000000000000000000000000166001600160a01b03928316179055602554604080517f89b23cff000000000000000000000000000000000000000000000000000000008152905191909216916389b23cff916004808301926020929190829003018186803b15801561146957600080fd5b505afa15801561147d573d6000803e3d6000fd5b505050506040513d601f19601f820116820180604052508101906114a191906128bf565b601d80547fffffffffffffffffffffffff0000000000000000000000000000000000000000166001600160a01b03928316179055602554604080517f86c90a9f000000000000000000000000000000000000000000000000000000008152905191909216916386c90a9f916004808301926020929190829003018186803b15801561152b57600080fd5b505afa15801561153f573d6000803e3d6000fd5b505050506040513d601f19601f8201168201806040525081019061156391906128bf565b601e80547fffffffffffffffffffffffff0000000000000000000000000000000000000000166001600160a01b0392909216919091179055565b600e54600090610100900460ff16156115b65750600390565b600c54421180156115ca5750600754600f54105b156115d55750600390565b600654600f54106115e65750600290565b600c54421180156115fb5750600754600f5410155b156116065750600290565b600d54421080159061161a5750600c544211155b156116255750600190565b50600090565b6002600054141561167e5760405162461bcd60e51b815260206004820152601f60248201527f5265656e7472616e637947756172643a207265656e7472616e742063616c6c0060448201526064016107d4565b600260005561168b61159d565b6003146116da5760405162461bcd60e51b815260206004820152600a60248201527f4e4f54204641494c45440000000000000000000000000000000000000000000060448201526064016107d4565b6001546001600160a01b03163314156116f5576116f56122f5565b336000908152602760205260408120601254600f549192916117179190612d8b565b82549091504790600090839061172d9084612d4e565b6117379190612d13565b9050600081116117895760405162461bcd60e51b815260206004820152601360248201527f4e4f5448494e4720544f2057495448445241570000000000000000000000000060448201526064016107d4565b83546012546117989190612cfb565b6012556000808555600185018190556040513391829184156108fc0291859190818181858888f193505050501580156117d5573d6000803e3d6000fd5b506040518281527fba8f86526b8f4836c344cbbb8d752a5deb45d8d86c8fdcc0318124656ed1f16990602001610ead565b600260005414156118595760405162461bcd60e51b815260206004820152601f60248201527f5265656e7472616e637947756172643a207265656e7472616e742063616c6c0060448201526064016107d4565b60026000556001546001600160a01b031633146118b85760405162461bcd60e51b815260206004820152601160248201527f4e4f542050524553414c45204f574e455200000000000000000000000000000060448201526064016107d4565b600e5460ff161561190b5760405162461bcd60e51b815260206004820152601360248201527f47454e45524154494f4e20434f4d504c4554450000000000000000000000000060448201526064016107d4565b61191361159d565b6002146119625760405162461bcd60e51b815260206004820152600b60248201527f4e4f54205355434345535300000000000000000000000000000000000000000060448201526064016107d4565b602654600254602480546040517f8d8c70bb0000000000000000000000000000000000000000000000000000000081526001600160a01b03938416600482015290831691810191909152911690638d8c70bb9060440160206040518083038186803b1580156119d057600080fd5b505afa1580156119e4573d6000803e3d6000fd5b505050506040513d601f19601f82011682018060405250810190611a0891906128dc565b15611a7957600e80547fffffffffffffffffffffffffffffffffffffffffffffffffffffffffffff00ff166101001790556040517ffc4635b457b81a81e44eab31da1d5a34dae08cffa83f63bde39685cf32ffd7e290611a6c906000815260200190565b60405180910390a1611f9c565b60006064602560009054906101000a90046001600160a01b03166001600160a01b031663fca19d276040518163ffffffff1660e01b815260040160206040518083038186803b158015611acb57600080fd5b505afa158015611adf573d6000803e3d6000fd5b505050506040513d601f19601f82011682018060405250810190611b039190612b2b565b600f54611b109190612d4e565b611b1a9190612d13565b90506000606460016007015483600e60010154611b379190612d8b565b611b419190612d4e565b611b4b9190612d13565b90506000670de0b6b3a764000060016008015483611b699190612d4e565b611b739190612d13565b905060008111611bc55760405162461bcd60e51b815260206004820152600b60248201527f5a45524f20546f6b656e7300000000000000000000000000000000000000000060448201526064016107d4565b600254602654611be2916001600160a01b03908116911683612511565b602654602554604080517fdb28dbd100000000000000000000000000000000000000000000000000000000815290516001600160a01b039384169363443603b693879391169163db28dbd191600480820192602092909190829003018186803b158015611c4e57600080fd5b505afa158015611c62573d6000803e3d6000fd5b505050506040513d601f19601f82011682018060405250810190611c869190612b2b565b611c909190612cfb565b600254600a5460015460405160e086901b7fffffffff000000000000000000000000000000000000000000000000000000001681526001600160a01b0393841660048201526024810189905260448101889052606481019290925291909116608482015260a4016000604051808303818588803b158015611d1057600080fd5b505af1158015611d24573d6000803e3d6000fd5b505050505060006064602560009054906101000a90046001600160a01b03166001600160a01b0316636159ae596040518163ffffffff1660e01b815260040160206040518083038186803b158015611d7b57600080fd5b505afa158015611d8f573d6000803e3d6000fd5b505050506040513d601f19601f82011682018060405250810190611db39190612b2b565b601054611dc09190612d4e565b611dca9190612d13565b601c546040519192506001600160a01b031690819086156108fc029087906000818181858888f19350505050158015611e07573d6000803e3d6000fd5b50600254601d54611e25916001600160a01b0390811691168461265a565b6002546040517f70a082310000000000000000000000000000000000000000000000000000000081523060048201526000916001600160a01b0316906370a082319060240160206040518083038186803b158015611e8257600080fd5b505afa158015611e96573d6000803e3d6000fd5b505050506040513d601f19601f82011682018060405250810190611eba9190612b2b565b601054909150811115611ef557601054600090611ed79083612d8b565b600254909150611ef3906001600160a01b031661dead8361265a565b505b60015460405147916001600160a01b031690819083156108fc029084906000818181858888f19350505050158015611f31573d6000803e3d6000fd5b50600e80547fffffffffffffffffffffffffffffffffffffffffffffffffffffffffffffff001660019081179091556040519081527ffc4635b457b81a81e44eab31da1d5a34dae08cffa83f63bde39685cf32ffd7e29060200160405180910390a150505050505050505b6001600055565b600e5460ff16158015611fbe5750600e54610100900460ff16155b611fc757600080fd5b602654600254602480546040517f8d8c70bb0000000000000000000000000000000000000000000000000000000081526001600160a01b03938416600482015290831691810191909152911690638d8c70bb9060440160206040518083038186803b15801561203557600080fd5b505afa158015612049573d6000803e3d6000fd5b505050506040513d601f19601f8201168201806040525081019061206d91906128dc565b1561209f57600e80547fffffffffffffffffffffffffffffffffffffffffffffffffffffffffffff00ff166101001790555b565b600260005414156120f45760405162461bcd60e51b815260206004820152601f60248201527f5265656e7472616e637947756172643a207265656e7472616e742063616c6c0060448201526064016107d4565b6002600055600e5460ff1661214b5760405162461bcd60e51b815260206004820152601660248201527f4157414954494e47204c502047454e45524154494f4e0000000000000000000060448201526064016107d4565b33600090815260276020526040812060115460105491929161216d9190612d8b565b60018301546002546040517f70a082310000000000000000000000000000000000000000000000000000000081523060048201529293506000928492916001600160a01b0316906370a082319060240160206040518083038186803b1580156121d557600080fd5b505afa1580156121e9573d6000803e3d6000fd5b505050506040513d601f19601f8201168201806040525081019061220d9190612b2b565b6122179190612d4e565b6122219190612d13565b9050600081116122735760405162461bcd60e51b815260206004820152601360248201527f4e4f5448494e4720544f2057495448445241570000000000000000000000000060448201526064016107d4565b60018301546011546122859190612cfb565b60115533600081815260276020526040812060018101829055556002546122b8916001600160a01b03909116908361265a565b6040518181527f6eb77a5c4ed3153e65b1a8804e82c2ffa0d2b39fd8dba4ae39b6476c7bf65f7e9060200160405180910390a15050600160005550565b6001546001600160a01b0316331461234f5760405162461bcd60e51b815260206004820152601160248201527f4e4f542050524553414c45204f574e455200000000000000000000000000000060448201526064016107d4565b61235761159d565b6003146123a65760405162461bcd60e51b815260206004820152601260248201527f4f6e6c79206661696c656420737461747573000000000000000000000000000060448201526064016107d4565b6002546001546040517f70a0823100000000000000000000000000000000000000000000000000000000815230600482015261244a926001600160a01b0390811692169082906370a082319060240160206040518083038186803b15801561240d57600080fd5b505afa158015612421573d6000803e3d6000fd5b505050506040513d601f19601f820116820180604052508101906124459190612b2b565b61265a565b6002546040517f70a082310000000000000000000000000000000000000000000000000000000081523060048201527fba8f86526b8f4836c344cbbb8d752a5deb45d8d86c8fdcc0318124656ed1f169916001600160a01b0316906370a082319060240160206040518083038186803b1580156124c657600080fd5b505afa1580156124da573d6000803e3d6000fd5b505050506040513d601f19601f820116820180604052508101906124fe9190612b2b565b60405190815260200160405180910390a1565b604080516001600160a01b038481166024830152604480830185905283518084039091018152606490920183526020820180517bffffffffffffffffffffffffffffffffffffffffffffffffffffffff167f095ea7b300000000000000000000000000000000000000000000000000000000179052915160009283929087169161259b9190612b93565b6000604051808303816000865af19150503d80600081146125d8576040519150601f19603f3d011682016040523d82523d6000602084013e6125dd565b606091505b509150915081801561260757508051158061260757508080602001905181019061260791906128dc565b6126535760405162461bcd60e51b815260206004820152601e60248201527f5472616e7366657248656c7065723a20415050524f56455f4641494c4544000060448201526064016107d4565b5050505050565b604080516001600160a01b038481166024830152604480830185905283518084039091018152606490920183526020820180517bffffffffffffffffffffffffffffffffffffffffffffffffffffffff167fa9059cbb0000000000000000000000000000000000000000000000000000000017905291516000928392908716916126e49190612b93565b6000604051808303816000865af19150503d8060008114612721576040519150601f19603f3d011682016040523d82523d6000602084013e612726565b606091505b509150915081801561275057508051158061275057508080602001905181019061275091906128dc565b6126535760405162461bcd60e51b815260206004820152601f60248201527f5472616e7366657248656c7065723a205452414e534645525f4641494c45440060448201526064016107d4565b8280546127a890612dce565b90600052602060002090601f0160209004810192826127ca5760008555612810565b82601f106127e357805160ff1916838001178555612810565b82800160010185558215612810579182015b828111156128105782518255916020019190600101906127f5565b5061281c929150612820565b5090565b5b8082111561281c5760008155600101612821565b803561284081612eb9565b919050565b600082601f83011261285657600080fd5b813561286961286482612cd3565b612ca2565b81815284602083860101111561287e57600080fd5b816020850160208301376000918101602001919091529392505050565b6000602082840312156128ad57600080fd5b81356128b881612eb9565b9392505050565b6000602082840312156128d157600080fd5b81516128b881612eb9565b6000602082840312156128ee57600080fd5b815180151581146128b857600080fd5b60006020828403121561291057600080fd5b815167ffffffffffffffff81111561292757600080fd5b8201601f8101841361293857600080fd5b805161294661286482612cd3565b81815285602083850101111561295b57600080fd5b61296c826020830160208601612da2565b95945050505050565b60006101a0828403121561298857600080fd5b612990612c55565b61299983612835565b81526129a760208401612835565b602082015260408301356040820152606083013560608201526080830135608082015260a083013560a082015260c083013560c082015260e083013560e08201526101008084013581830152506101208084013581830152506101408084013581830152506101608084013581830152506101808084013581830152508091505092915050565b600060208284031215612a4057600080fd5b813567ffffffffffffffff80821115612a5857600080fd5b9083019060a08286031215612a6c57600080fd5b612a74612c7f565b823582811115612a8357600080fd5b612a8f87828601612845565b825250602083013582811115612aa457600080fd5b612ab087828601612845565b602083015250604083013582811115612ac857600080fd5b612ad487828601612845565b604083015250606083013582811115612aec57600080fd5b612af887828601612845565b606083015250608083013582811115612b1057600080fd5b612b1c87828601612845565b60808301525095945050505050565b600060208284031215612b3d57600080fd5b5051919050565b600060208284031215612b5657600080fd5b815160ff811681146128b857600080fd5b60008151808452612b7f816020860160208601612da2565b601f01601f19169290920160200192915050565b60008251612ba5818460208701612da2565b9190910192915050565b60a081526000612bc260a0830188612b67565b8281036020840152612bd48188612b67565b90508281036040840152612be88187612b67565b90508281036060840152612bfc8186612b67565b90508281036080840152612c108185612b67565b98975050505050505050565b608081526000612c2f6080830187612b67565b8281036020840152612c418187612b67565b604084019590955250506060015292915050565b6040516101a0810167ffffffffffffffff81118282101715612c7957612c79612e8a565b60405290565b60405160a0810167ffffffffffffffff81118282101715612c7957612c79612e8a565b604051601f8201601f1916810167ffffffffffffffff81118282101715612ccb57612ccb612e8a565b604052919050565b600067ffffffffffffffff821115612ced57612ced612e8a565b50601f01601f191660200190565b60008219821115612d0e57612d0e612e5b565b500190565b600082612d49577f4e487b7100000000000000000000000000000000000000000000000000000000600052601260045260246000fd5b500490565b6000817fffffffffffffffffffffffffffffffffffffffffffffffffffffffffffffffff0483118215151615612d8657612d86612e5b565b500290565b600082821015612d9d57612d9d612e5b565b500390565b60005b83811015612dbd578181015183820152602001612da5565b838111156110025750506000910152565b600181811c90821680612de257607f821691505b60208210811415612e1c577f4e487b7100000000000000000000000000000000000000000000000000000000600052602260045260246000fd5b50919050565b60007fffffffffffffffffffffffffffffffffffffffffffffffffffffffffffffffff821415612e5457612e54612e5b565b5060010190565b7f4e487b7100000000000000000000000000000000000000000000000000000000600052601160045260246000fd5b7f4e487b7100000000000000000000000000000000000000000000000000000000600052604160045260246000fd5b6001600160a01b0381168114612ece57600080fd5b5056fea2646970667358221220817d6491f3001975a2047615c290fbca77665964a1422381c054bfaa66dab4c064736f6c63430008070033a264697066735822122020daa6d0c7636e3dfad7447a5f9c7690cb9660a2e20f24796c116a391152a89164736f6c63430008070033",
  "devdoc": {
    "kind": "dev",
    "methods": {},
    "version": 1
  },
  "userdoc": {
    "kind": "user",
    "methods": {},
    "version": 1
  },
  "storageLayout": {
    "storage": [],
    "types": null
  }
}