{
  "address": "0x65b5Db6174aE90B9a34fa7bAe07A3CFf30917964",
  "abi": [
    {
      "inputs": [
        {
          "internalType": "address",
          "name": "_feeToSetter",
          "type": "address"
        }
      ],
      "stateMutability": "nonpayable",
      "type": "constructor"
    },
    {
      "anonymous": false,
      "inputs": [
        {
          "indexed": true,
          "internalType": "address",
          "name": "token",
          "type": "address"
        },
        {
          "indexed": false,
          "internalType": "address",
          "name": "pool",
          "type": "address"
        },
        {
          "indexed": false,
          "internalType": "uint256",
          "name": "timeStamp",
          "type": "uint256"
        }
      ],
      "name": "PoolCreated",
      "type": "event"
    },
    {
      "inputs": [
        {
          "internalType": "uint256",
          "name": "",
          "type": "uint256"
        }
      ],
      "name": "allPools",
      "outputs": [
        {
          "internalType": "address",
          "name": "",
          "type": "address"
        }
      ],
      "stateMutability": "view",
      "type": "function"
    },
    {
      "inputs": [],
      "name": "allPoolsLength",
      "outputs": [
        {
          "internalType": "uint256",
          "name": "",
          "type": "uint256"
        }
      ],
      "stateMutability": "view",
      "type": "function"
    },
    {
      "inputs": [
        {
          "internalType": "address",
          "name": "token",
          "type": "address"
        }
      ],
      "name": "createPool",
      "outputs": [
        {
          "internalType": "address",
          "name": "",
          "type": "address"
        }
      ],
      "stateMutability": "nonpayable",
      "type": "function"
    },
    {
      "inputs": [],
      "name": "feeTo",
      "outputs": [
        {
          "internalType": "address",
          "name": "",
          "type": "address"
        }
      ],
      "stateMutability": "view",
      "type": "function"
    },
    {
      "inputs": [],
      "name": "feeToSetter",
      "outputs": [
        {
          "internalType": "address",
          "name": "",
          "type": "address"
        }
      ],
      "stateMutability": "view",
      "type": "function"
    },
    {
      "inputs": [
        {
          "internalType": "address",
          "name": "",
          "type": "address"
        }
      ],
      "name": "getPool",
      "outputs": [
        {
          "internalType": "address",
          "name": "",
          "type": "address"
        }
      ],
      "stateMutability": "view",
      "type": "function"
    },
    {
      "inputs": [
        {
          "internalType": "address",
          "name": "_feeTo",
          "type": "address"
        }
      ],
      "name": "setFeeTo",
      "outputs": [],
      "stateMutability": "nonpayable",
      "type": "function"
    },
    {
      "inputs": [
        {
          "internalType": "address",
          "name": "_feeToSetter",
          "type": "address"
        }
      ],
      "name": "setFeeToSetter",
      "outputs": [],
      "stateMutability": "nonpayable",
      "type": "function"
    }
  ],
  "transactionHash": "0x387b00a74cd880ba1e604d5bb2200317c2082a920ea1a5f8c7d2ad2f5330a63c",
  "args": [
    "0x20613aBe93e4611Cf547b4395E4248c6129c8697"
  ],
  "solcInputHash": "77237734eb7e2788e63834288292ca4c",
  "bytecode": "0x608060405234801561001057600080fd5b5060405161266c38038061266c83398101604081905261002f91610054565b600180546001600160a01b0319166001600160a01b0392909216919091179055610084565b60006020828403121561006657600080fd5b81516001600160a01b038116811461007d57600080fd5b9392505050565b6125d9806100936000396000f3fe608060405234801561001057600080fd5b50600436106100885760003560e01c8063a2e74af61161005b578063a2e74af61461011d578063bbe4f6db14610132578063efde4e6414610168578063f46901ed1461017957600080fd5b8063017e7e581461008d578063094b7415146100d757806341d1de97146100f75780639049f9d21461010a575b600080fd5b6000546100ad9073ffffffffffffffffffffffffffffffffffffffff1681565b60405173ffffffffffffffffffffffffffffffffffffffff90911681526020015b60405180910390f35b6001546100ad9073ffffffffffffffffffffffffffffffffffffffff1681565b6100ad61010536600461058c565b61018c565b6100ad6101183660046105a5565b6101c3565b61013061012b3660046105a5565b6103ef565b005b6100ad6101403660046105a5565b60026020526000908152604090205473ffffffffffffffffffffffffffffffffffffffff1681565b6003546040519081526020016100ce565b6101306101873660046105a5565b6104b7565b6003818154811061019c57600080fd5b60009182526020909120015473ffffffffffffffffffffffffffffffffffffffff16905081565b600073ffffffffffffffffffffffffffffffffffffffff8216610247576040517f08c379a000000000000000000000000000000000000000000000000000000000815260206004820152600c60248201527f5a45524f5f41444452455353000000000000000000000000000000000000000060448201526064015b60405180910390fd5b73ffffffffffffffffffffffffffffffffffffffff82811660009081526002602052604090205416156102d6576040517f08c379a000000000000000000000000000000000000000000000000000000000815260206004820152600b60248201527f504f4f4c5f455849535453000000000000000000000000000000000000000000604482015260640161023e565b6000826040516102e59061057f565b73ffffffffffffffffffffffffffffffffffffffff9091168152602001604051809103906000f08015801561031e573d6000803e3d6000fd5b5073ffffffffffffffffffffffffffffffffffffffff848116600081815260026020908152604080832080549587167fffffffffffffffffffffffff000000000000000000000000000000000000000096871681179091556003805460018101825594527fc2575a0e9e593c00f959f8c92f12db2869c3395a3b0502d05e2516446f71f85b9093018054909516831790945583519182524290820152929350917ff8a0462f666b427ea753848be7e91f9ce413975906f6f39950be296ca9a4d524910160405180910390a292915050565b60015473ffffffffffffffffffffffffffffffffffffffff163314610470576040517f08c379a000000000000000000000000000000000000000000000000000000000815260206004820152600960248201527f464f5242494444454e0000000000000000000000000000000000000000000000604482015260640161023e565b600180547fffffffffffffffffffffffff00000000000000000000000000000000000000001673ffffffffffffffffffffffffffffffffffffffff92909216919091179055565b60015473ffffffffffffffffffffffffffffffffffffffff163314610538576040517f08c379a000000000000000000000000000000000000000000000000000000000815260206004820152600960248201527f464f5242494444454e0000000000000000000000000000000000000000000000604482015260640161023e565b600080547fffffffffffffffffffffffff00000000000000000000000000000000000000001673ffffffffffffffffffffffffffffffffffffffff92909216919091179055565b611fc1806105e383390190565b60006020828403121561059e57600080fd5b5035919050565b6000602082840312156105b757600080fd5b813573ffffffffffffffffffffffffffffffffffffffff811681146105db57600080fd5b939250505056fe60c0604052606460065560826007553480156200001b57600080fd5b5060405162001fc138038062001fc18339810160408190526200003e916200015c565b60408051808201825260068152652c2a37b5b2b760d11b602080830191825283518085019094526002845261161560f21b9084015281519192916200008691600391620000b6565b5080516200009c906004906020840190620000b6565b5050506001600160a01b0316608081905260a052620001ca565b828054620000c4906200018e565b90600052602060002090601f016020900481019282620000e8576000855562000133565b82601f106200010357805160ff191683800117855562000133565b8280016001018555821562000133579182015b828111156200013357825182559160200191906001019062000116565b506200014192915062000145565b5090565b5b8082111562000141576000815560010162000146565b6000602082840312156200016f57600080fd5b81516001600160a01b03811681146200018757600080fd5b9392505050565b600181811c90821680620001a357607f821691505b602082108103620001c457634e487b7160e01b600052602260045260246000fd5b50919050565b60805160a051611da76200021a600039600061038301526000818161066301528181610b1001528181610bb301528181610d32015281816110a60152818161116e01526114350152611da76000f3fe608060405234801561001057600080fd5b50600436106101b95760003560e01c80636e553f65116100f9578063aa1970df11610097578063d007c64411610071578063d007c6441461042c578063d619f5171461044c578063dd62ed3e1461045f578063f3fef3a31461049857600080fd5b8063aa1970df146103e3578063bcbaf487146103f6578063bf5d50c41461040957600080fd5b806395d89b41116100d357806395d89b41146103765780639d76ea581461037e578063a457c2d7146103bd578063a9059cbb146103d057600080fd5b80636e553f651461031357806370a08231146103265780638d113a7f1461034f57600080fd5b806328fd10d711610166578063395093511161014057806339509351146102ba5780634722a531146102cd5780634b3fd148146102e05780635d948c35146102f357600080fd5b806328fd10d7146102755780632ac2382114610298578063313ce567146102ab57600080fd5b80631c78da26116101975780631c78da261461021157806322867d781461024d57806323b872dd1461026257600080fd5b806306fdde03146101be578063095ea7b3146101dc57806318160ddd146101ff575b600080fd5b6101c66104ab565b6040516101d39190611ab9565b60405180910390f35b6101ef6101ea366004611b48565b61053d565b60405190151581526020016101d3565b6002545b6040519081526020016101d3565b61023861021f366004611b72565b6009602052600090815260409020805460019091015482565b604080519283526020830191909152016101d3565b61026061025b366004611b48565b610553565b005b6101ef610270366004611b94565b6107a8565b6101ef610283366004611b72565b600b6020526000908152604090205460ff1681565b6102036102a6366004611b72565b610867565b604051601281526020016101d3565b6101ef6102c8366004611b48565b6108e9565b6102036102db366004611b48565b610925565b6102606102ee366004611bd0565b6109eb565b610203610301366004611b72565b600a6020526000908152604090205481565b610260610321366004611bd0565b610c9d565b610203610334366004611b72565b6001600160a01b031660009081526020819052604090205490565b61023861035d366004611b72565b600d602052600090815260409020805460019091015482565b6101c6610e43565b6103a57f000000000000000000000000000000000000000000000000000000000000000081565b6040516001600160a01b0390911681526020016101d3565b6101ef6103cb366004611b48565b610e52565b6101ef6103de366004611b48565b610f03565b6102036103f1366004611b48565b610f10565b610260610404366004611b48565b610f91565b6101ef610417366004611b72565b600c6020526000908152604090205460ff1681565b61020361043a366004611b72565b600e6020526000908152604090205481565b61020361045a366004611b72565b611220565b61020361046d366004611bfc565b6001600160a01b03918216600090815260016020908152604080832093909416825291909152205490565b6102606104a6366004611b48565b6112a2565b6060600380546104ba90611c26565b80601f01602080910402602001604051908101604052809291908181526020018280546104e690611c26565b80156105335780601f1061050857610100808354040283529160200191610533565b820191906000526020600020905b81548152906001019060200180831161051657829003601f168201915b5050505050905090565b600061054a3384846114ec565b50600192915050565b6001600160a01b0382166000908152600c602052604090205460ff166105c05760405162461bcd60e51b815260206004820152600e60248201527f6e6f74206120626f72726f77657200000000000000000000000000000000000060448201526064015b60405180910390fd5b60006105cc8383610f10565b90508060000361061e5760405162461bcd60e51b815260206004820152601360248201527f616d6f756e742063616e206e6f7420626520300000000000000000000000000060448201526064016105b7565b6040517f23b872dd0000000000000000000000000000000000000000000000000000000081526001600160a01b038481166004830152306024830152604482018390527f000000000000000000000000000000000000000000000000000000000000000016906323b872dd906064016020604051808303816000875af11580156106ac573d6000803e3d6000fd5b505050506040513d601f19601f820116820180604052508101906106d09190611c79565b506001600160a01b0383166000908152600d6020526040812080548392906106f9908490611cca565b90915550506001600160a01b0383166000908152600d6020526040812054900361073e576001600160a01b0383166000908152600c60205260409020805460ff191690555b80600560008282546107509190611ce1565b9091555061075f905083611220565b50604080516001600160a01b0385168152602081018490527f5c16de4f8b59bd9caf0f49a545f25819a895ed223294290b408242e72a59423191015b60405180910390a1505050565b60006107b5848484611645565b6001600160a01b03841660009081526001602090815260408083203384529091529020548281101561084f5760405162461bcd60e51b815260206004820152602860248201527f45524332303a207472616e7366657220616d6f756e742065786365656473206160448201527f6c6c6f77616e636500000000000000000000000000000000000000000000000060648201526084016105b7565b61085c85338584036114ec565b506001949350505050565b6001600160a01b038116600090815260096020526040812060055460065460018301546108949042611cca565b61089e9190611cf9565b6108b090670de0b6b3a7640000611cf9565b82546108bc9190611cf9565b6108c69190611d36565b6001600160a01b039093166000908152600a602052604090208390555090919050565b3360008181526001602090815260408083206001600160a01b0387168452909152812054909161054a918590610920908690611ce1565b6114ec565b6001600160a01b0382166000908152600960205260408120805483111561098e5760405162461bcd60e51b815260206004820152601f60248201527f416d6f756e7420657863656564696e67206465706f73697420616d6f756e740060448201526064016105b7565b60006005546006548360010154426109a69190611cca565b6109b09190611cf9565b6109c290670de0b6b3a7640000611cf9565b6109cc9086611cf9565b6109d69190611d36565b90506109e28185611ce1565b95945050505050565b81600003610a3b5760405162461bcd60e51b815260206004820152601460248201527f20616d6f756e742063616e206e6f74206265203000000000000000000000000060448201526064016105b7565b600a600554610a4a9190611d36565b8210610a985760405162461bcd60e51b815260206004820152601360248201527f416d6f756e7420697320696e636f72726563740000000000000000000000000060448201526064016105b7565b6001600160a01b0381166000908152600d602052604081208381554260019091015560058054849290610acc908490611cca565b90915550506040517fa9059cbb0000000000000000000000000000000000000000000000000000000081526001600160a01b038281166004830152602482018490527f0000000000000000000000000000000000000000000000000000000000000000169063a9059cbb906044016020604051808303816000875af1158015610b59573d6000803e3d6000fd5b505050506040513d601f19601f82011682018060405250810190610b7d9190611c79565b506040517f095ea7b3000000000000000000000000000000000000000000000000000000008152306004820152602481018390527f00000000000000000000000000000000000000000000000000000000000000006001600160a01b03169063095ea7b3906044016020604051808303816000875af1158015610c04573d6000803e3d6000fd5b505050506040513d601f19601f82011682018060405250810190610c289190611c79565b506001600160a01b0381166000908152600c60205260409020805460ff19166001179055610c5581611220565b50604080516001600160a01b0383168152602081018490527fcbc04eca7e9da35cb1393a6135a199ca52e450d5e9251cbd99f7847d33a3675091015b60405180910390a15050565b81600003610ced5760405162461bcd60e51b815260206004820152601460248201527f20616d6f756e742063616e206e6f74206265203000000000000000000000000060448201526064016105b7565b6040517f23b872dd0000000000000000000000000000000000000000000000000000000081526001600160a01b038281166004830152306024830152604482018490527f000000000000000000000000000000000000000000000000000000000000000016906323b872dd906064016020604051808303816000875af1158015610d7b573d6000803e3d6000fd5b505050506040513d601f19601f82011682018060405250810190610d9f9190611c79565b506001600160a01b038116600090815260096020908152604080832085815542600191820155600b909252909120805460ff19169091179055610de2818361185d565b8160056000828254610df49190611ce1565b90915550610e03905081610867565b50604080516001600160a01b0383168152602081018490527fe1fffcc4923d04b559f4d29a8bfc6cda04eb5b0d3c460751c2402c5c5cc9109c9101610c91565b6060600480546104ba90611c26565b3360009081526001602090815260408083206001600160a01b038616845290915281205482811015610eec5760405162461bcd60e51b815260206004820152602560248201527f45524332303a2064656372656173656420616c6c6f77616e63652062656c6f7760448201527f207a65726f00000000000000000000000000000000000000000000000000000060648201526084016105b7565b610ef933858584036114ec565b5060019392505050565b600061054a338484611645565b6001600160a01b0382166000908152600d602052604081208054831115610f795760405162461bcd60e51b815260206004820181905260248201527f416d6f756e7420657863656564696e6720626f72726f77656420616d6f756e7460448201526064016105b7565b60006005546007548360010154426109a69190611cca565b6001600160a01b0382166000908152600c602052604090205460ff16610ff95760405162461bcd60e51b815260206004820152600e60248201527f4e6f74206120626f72726f77657200000000000000000000000000000000000060448201526064016105b7565b6001600160a01b0382166000908152600d60205260409020548111156110615760405162461bcd60e51b815260206004820152601360248201527f416d6f756e7420697320696e636f72726563740000000000000000000000000060448201526064016105b7565b6040517f23b872dd0000000000000000000000000000000000000000000000000000000081526001600160a01b038381166004830152306024830152604482018390527f000000000000000000000000000000000000000000000000000000000000000016906323b872dd906064016020604051808303816000875af11580156110ef573d6000803e3d6000fd5b505050506040513d601f19601f820116820180604052508101906111139190611c79565b5060006064611123836003611cf9565b61112d9190611d36565b905061113883611220565b506040517fa9059cbb000000000000000000000000000000000000000000000000000000008152336004820152602481018290527f00000000000000000000000000000000000000000000000000000000000000006001600160a01b03169063a9059cbb906044016020604051808303816000875af11580156111bf573d6000803e3d6000fd5b505050506040513d601f19601f820116820180604052508101906111e39190611c79565b506111ee8183611ce1565b6001600160a01b0384166000908152600d602052604081208054909190611216908490611cca565b9091555050505050565b6001600160a01b0381166000908152600d60205260408120600554600754600183015461124d9042611cca565b6112579190611cf9565b61126990670de0b6b3a7640000611cf9565b82546112759190611cf9565b61127f9190611d36565b6001600160a01b039093166000908152600e602052604090208390555090919050565b6001600160a01b0382166000908152600b602052604090205460ff1661130a5760405162461bcd60e51b815260206004820152601460248201527f796f7520617265206e6f742061206c656e64657200000000000000000000000060448201526064016105b7565b60006113168383610925565b9050806000036113685760405162461bcd60e51b815260206004820152601460248201527f20616d6f756e742063616e206e6f74206265203000000000000000000000000060448201526064016105b7565b6001600160a01b03831660009081526009602052604081208054839290611390908490611cca565b90915550506001600160a01b03831660009081526009602052604081205490036113d5576001600160a01b0383166000908152600b60205260409020805460ff191690555b6113df838261193c565b80600560008282546113f19190611cca565b90915550506040517fa9059cbb0000000000000000000000000000000000000000000000000000000081526001600160a01b038481166004830152602482018390527f0000000000000000000000000000000000000000000000000000000000000000169063a9059cbb906044016020604051808303816000875af115801561147e573d6000803e3d6000fd5b505050506040513d601f19601f820116820180604052508101906114a29190611c79565b506114ac83610867565b50604080516001600160a01b0385168152602081018490527f884edad9ce6fa2440d8a54cc123490eb96d2768479d49ff9c7366125a9424364910161079b565b6001600160a01b0383166115675760405162461bcd60e51b8152602060048201526024808201527f45524332303a20617070726f76652066726f6d20746865207a65726f2061646460448201527f726573730000000000000000000000000000000000000000000000000000000060648201526084016105b7565b6001600160a01b0382166115e35760405162461bcd60e51b815260206004820152602260248201527f45524332303a20617070726f766520746f20746865207a65726f20616464726560448201527f737300000000000000000000000000000000000000000000000000000000000060648201526084016105b7565b6001600160a01b0383811660008181526001602090815260408083209487168084529482529182902085905590518481527f8c5be1e5ebec7d5bd14f71427d1e84f3dd0314c0f7b2291e5b200ac8c7c3b92591015b60405180910390a3505050565b6001600160a01b0383166116c15760405162461bcd60e51b815260206004820152602560248201527f45524332303a207472616e736665722066726f6d20746865207a65726f20616460448201527f647265737300000000000000000000000000000000000000000000000000000060648201526084016105b7565b6001600160a01b03821661173d5760405162461bcd60e51b815260206004820152602360248201527f45524332303a207472616e7366657220746f20746865207a65726f206164647260448201527f657373000000000000000000000000000000000000000000000000000000000060648201526084016105b7565b6001600160a01b038316600090815260208190526040902054818110156117cc5760405162461bcd60e51b815260206004820152602660248201527f45524332303a207472616e7366657220616d6f756e742065786365656473206260448201527f616c616e6365000000000000000000000000000000000000000000000000000060648201526084016105b7565b6001600160a01b03808516600090815260208190526040808220858503905591851681529081208054849290611803908490611ce1565b92505081905550826001600160a01b0316846001600160a01b03167fddf252ad1be2c89b69c2b068fc378daa952ba7f163c4a11628f55a4df523b3ef8460405161184f91815260200190565b60405180910390a350505050565b6001600160a01b0382166118b35760405162461bcd60e51b815260206004820152601f60248201527f45524332303a206d696e7420746f20746865207a65726f20616464726573730060448201526064016105b7565b80600260008282546118c59190611ce1565b90915550506001600160a01b038216600090815260208190526040812080548392906118f2908490611ce1565b90915550506040518181526001600160a01b038316906000907fddf252ad1be2c89b69c2b068fc378daa952ba7f163c4a11628f55a4df523b3ef9060200160405180910390a35050565b6001600160a01b0382166119b85760405162461bcd60e51b815260206004820152602160248201527f45524332303a206275726e2066726f6d20746865207a65726f2061646472657360448201527f730000000000000000000000000000000000000000000000000000000000000060648201526084016105b7565b6001600160a01b03821660009081526020819052604090205481811015611a475760405162461bcd60e51b815260206004820152602260248201527f45524332303a206275726e20616d6f756e7420657863656564732062616c616e60448201527f636500000000000000000000000000000000000000000000000000000000000060648201526084016105b7565b6001600160a01b0383166000908152602081905260408120838303905560028054849290611a76908490611cca565b90915550506040518281526000906001600160a01b038516907fddf252ad1be2c89b69c2b068fc378daa952ba7f163c4a11628f55a4df523b3ef90602001611638565b600060208083528351808285015260005b81811015611ae657858101830151858201604001528201611aca565b81811115611af8576000604083870101525b50601f017fffffffffffffffffffffffffffffffffffffffffffffffffffffffffffffffe016929092016040019392505050565b80356001600160a01b0381168114611b4357600080fd5b919050565b60008060408385031215611b5b57600080fd5b611b6483611b2c565b946020939093013593505050565b600060208284031215611b8457600080fd5b611b8d82611b2c565b9392505050565b600080600060608486031215611ba957600080fd5b611bb284611b2c565b9250611bc060208501611b2c565b9150604084013590509250925092565b60008060408385031215611be357600080fd5b82359150611bf360208401611b2c565b90509250929050565b60008060408385031215611c0f57600080fd5b611c1883611b2c565b9150611bf360208401611b2c565b600181811c90821680611c3a57607f821691505b602082108103611c73577f4e487b7100000000000000000000000000000000000000000000000000000000600052602260045260246000fd5b50919050565b600060208284031215611c8b57600080fd5b81518015158114611b8d57600080fd5b7f4e487b7100000000000000000000000000000000000000000000000000000000600052601160045260246000fd5b600082821015611cdc57611cdc611c9b565b500390565b60008219821115611cf457611cf4611c9b565b500190565b6000817fffffffffffffffffffffffffffffffffffffffffffffffffffffffffffffffff0483118215151615611d3157611d31611c9b565b500290565b600082611d6c577f4e487b7100000000000000000000000000000000000000000000000000000000600052601260045260246000fd5b50049056fea264697066735822122068ca7ec0e1fb3c643f09848a5fcc0c28b0c6b114398741b40df55322d0b1eff264736f6c634300080d0033a2646970667358221220693c82a0f6b2dc95b180773da293cfb0250c1381f9e94bcd2c57a32f59dfb13f64736f6c634300080d0033",
  "devdoc": {
    "kind": "dev",
    "methods": {},
    "version": 1
  },
  "userdoc": {
    "kind": "user",
    "methods": {
      "feeTo()": {
        "notice": "The address supposed to get the protocol fee"
      },
      "feeToSetter()": {
        "notice": "address that can set the address"
      },
      "getPool(address)": {
        "notice": "mapping from Token => Pool address"
      }
    },
    "version": 1
  },
  "storageLayout": {
    "storage": [
      {
        "astId": 7036,
        "contract": "contracts/Landing/LendingPoolFactory.sol:LendingPoolFactory",
        "label": "feeTo",
        "offset": 0,
        "slot": "0",
        "type": "t_address"
      },
      {
        "astId": 7039,
        "contract": "contracts/Landing/LendingPoolFactory.sol:LendingPoolFactory",
        "label": "feeToSetter",
        "offset": 0,
        "slot": "1",
        "type": "t_address"
      },
      {
        "astId": 7044,
        "contract": "contracts/Landing/LendingPoolFactory.sol:LendingPoolFactory",
        "label": "getPool",
        "offset": 0,
        "slot": "2",
        "type": "t_mapping(t_address,t_address)"
      },
      {
        "astId": 7047,
        "contract": "contracts/Landing/LendingPoolFactory.sol:LendingPoolFactory",
        "label": "allPools",
        "offset": 0,
        "slot": "3",
        "type": "t_array(t_address)dyn_storage"
      }
    ],
    "types": {
      "t_address": {
        "encoding": "inplace",
        "label": "address",
        "numberOfBytes": "20"
      },
      "t_array(t_address)dyn_storage": {
        "base": "t_address",
        "encoding": "dynamic_array",
        "label": "address[]",
        "numberOfBytes": "32"
      },
      "t_mapping(t_address,t_address)": {
        "encoding": "mapping",
        "key": "t_address",
        "label": "mapping(address => address)",
        "numberOfBytes": "32",
        "value": "t_address"
      }
    }
  }
}