{
  "address": "0x274AE26C6537335325ce3A9F1F32a253959689D4",
  "abi": [
    {
      "inputs": [
        {
          "internalType": "address",
          "name": "router_address",
          "type": "address"
        },
        {
          "internalType": "address",
          "name": "creator_",
          "type": "address"
        },
        {
          "internalType": "address",
          "name": "reciever",
          "type": "address"
        },
        {
          "internalType": "string",
          "name": "name_",
          "type": "string"
        },
        {
          "internalType": "string",
          "name": "symbol_",
          "type": "string"
        },
        {
          "internalType": "uint8",
          "name": "decimal_",
          "type": "uint8"
        },
        {
          "internalType": "uint256",
          "name": "supply",
          "type": "uint256"
        }
      ],
      "name": "deploy",
      "outputs": [
        {
          "internalType": "contract LiquidityToken",
          "name": "",
          "type": "address"
        }
      ],
      "stateMutability": "nonpayable",
      "type": "function"
    }
  ],
  "transactionHash": "0x38e9db51c26a81485746f7e0a2da56de43fa52fe5e220b37a65f8e2355ea7414",
  "args": [],
  "solcInputHash": "77237734eb7e2788e63834288292ca4c",
  "bytecode": "0x608060405234801561001057600080fd5b50613def806100206000396000f3fe60806040523480156200001157600080fd5b50600436106200002e5760003560e01c8063b304372d1462000033575b600080fd5b6200004a62000044366004620001e0565b62000073565b60405173ffffffffffffffffffffffffffffffffffffffff909116815260200160405180910390f35b6000868887858589896040516200008a90620000c6565b6200009c979695949392919062000316565b604051809103906000f080158015620000b9573d6000803e3d6000fd5b5098975050505050505050565b613a2f806200038b83390190565b803573ffffffffffffffffffffffffffffffffffffffff81168114620000f957600080fd5b919050565b7f4e487b7100000000000000000000000000000000000000000000000000000000600052604160045260246000fd5b600082601f8301126200013f57600080fd5b813567ffffffffffffffff808211156200015d576200015d620000fe565b604051601f83017fffffffffffffffffffffffffffffffffffffffffffffffffffffffffffffffe0908116603f01168101908282118183101715620001a657620001a6620000fe565b81604052838152866020858801011115620001c057600080fd5b836020870160208301376000602085830101528094505050505092915050565b600080600080600080600060e0888a031215620001fc57600080fd5b6200020788620000d4565b96506200021760208901620000d4565b95506200022760408901620000d4565b9450606088013567ffffffffffffffff808211156200024557600080fd5b620002538b838c016200012d565b955060808a01359150808211156200026a57600080fd5b50620002798a828b016200012d565b93505060a088013560ff811681146200029157600080fd5b8092505060c0880135905092959891949750929550565b6000815180845260005b81811015620002d057602081850181015186830182015201620002b2565b81811115620002e3576000602083870101525b50601f017fffffffffffffffffffffffffffffffffffffffffffffffffffffffffffffffe0169290920160200192915050565b600073ffffffffffffffffffffffffffffffffffffffff808a168352808916602084015280881660408401525060ff8616606083015284608083015260e060a08301526200036860e0830185620002a8565b82810360c08401526200037c8185620002a8565b9a995050505050505050505056fe60e060405261dead60805269010f0cf064dd59200000601955681043561a8829300000601a55670de0b6b3a7640000601b556002601d553480156200004357600080fd5b5060405162003a2f38038062003a2f8339810160408190526200006691620004c3565b81516200007b90600c90602085019062000333565b5080516200009190600d90602084019062000333565b50600e805460ff191660ff86161790556040805163c45a015560e01b8152905187916001600160a01b0383169163c45a0155916004808201926020929091908290030181865afa158015620000ea573d6000803e3d6000fd5b505050506040513d601f19601f8201168201806040525081019062000110919062000589565b6001600160a01b031663c9c6539630836001600160a01b031663ad5c46486040518163ffffffff1660e01b8152600401602060405180830381865afa1580156200015e573d6000803e3d6000fd5b505050506040513d601f19601f8201168201806040525081019062000184919062000589565b6040516001600160e01b031960e085901b1681526001600160a01b039283166004820152911660248201526044016020604051808303816000875af1158015620001d2573d6000803e3d6000fd5b505050506040513d601f19601f82011682018060405250810190620001f8919062000589565b6001600160a01b0390811660c052811660a052600280546001600160a01b031916331790556200022a88878662000262565b600954604051908152339060009060008051602062003a0f8339815191529060200160405180910390a3505050505050505062000633565b600080546001600160a01b038085166001600160a01b03199283161790925560018054928616929091169190911790556009819055620002a581600019620005ae565b620002b390600019620005d1565b600a8190556001600160a01b038416600090815260036020908152604080832093909355601c805462ffff001916905560068152828220805460ff199081166001908117909255308452848420805490911690911790556009549251928352339260008051602062003a0f833981519152910160405180910390a3505050565b8280546200034190620005f7565b90600052602060002090601f016020900481019282620003655760008555620003b0565b82601f106200038057805160ff1916838001178555620003b0565b82800160010185558215620003b0579182015b82811115620003b057825182559160200191906001019062000393565b50620003be929150620003c2565b5090565b5b80821115620003be5760008155600101620003c3565b80516001600160a01b0381168114620003f157600080fd5b919050565b634e487b7160e01b600052604160045260246000fd5b600082601f8301126200041e57600080fd5b81516001600160401b03808211156200043b576200043b620003f6565b604051601f8301601f19908116603f01168101908282118183101715620004665762000466620003f6565b816040528381526020925086838588010111156200048357600080fd5b600091505b83821015620004a7578582018301518183018401529082019062000488565b83821115620004b95760008385830101525b9695505050505050565b600080600080600080600060e0888a031215620004df57600080fd5b620004ea88620003d9565b9650620004fa60208901620003d9565b95506200050a60408901620003d9565b9450606088015160ff811681146200052157600080fd5b608089015160a08a015191955093506001600160401b03808211156200054657600080fd5b620005548b838c016200040c565b935060c08a01519150808211156200056b57600080fd5b506200057a8a828b016200040c565b91505092959891949750929550565b6000602082840312156200059c57600080fd5b620005a782620003d9565b9392505050565b600082620005cc57634e487b7160e01b600052601260045260246000fd5b500690565b600082821015620005f257634e487b7160e01b600052601160045260246000fd5b500390565b600181811c908216806200060c57607f821691505b6020821081036200062d57634e487b7160e01b600052602260045260246000fd5b50919050565b60805160a05160c05161337b6200069460003960008181610677015261210201526000818161083c0152818161269901528181612752015281816127a7015281816128ad015261298c0152600081816103e501526129b7015261337b6000f3fe6080604052600436106102f65760003560e01c80636053a0e31161018f578063a457c2d7116100e1578063c7639d801161008a578063e47d606011610064578063e47d6060146108ba578063ea2f0b37146108da578063fc8234cb146108fa57600080fd5b8063c7639d801461082a578063d6b513cf1461085e578063dd62ed3e1461087457600080fd5b8063b351dfe8116100bb578063b351dfe8146107b2578063bdc653ef146107d2578063c19d93fb146107e757600080fd5b8063a457c2d714610752578063a5ece94114610772578063a9059cbb1461079257600080fd5b80637d1db4a51161014357806395d89b411161011d57806395d89b4114610708578063a0712d681461071d578063a073d37f1461073d57600080fd5b80637d1db4a51461069957806388f82020146106af5780638da5cb5b146106e857600080fd5b80636bc87c3a116101745780636bc87c3a1461062f57806370a082311461064557806378a63f341461066557600080fd5b80636053a0e3146105ef57806367d246561461060f57600080fd5b806339509351116102485780634549b039116101fc57806352390c02116101d657806352390c02146105815780635342acb4146105a15780635c975abb146105da57600080fd5b80634549b0391461052c57806349538af41461054c5780634a74bb021461056257600080fd5b80633bd5d1731161022d5780633bd5d173146104cc57806342966c68146104ec578063437823ec1461050c57600080fd5b806339509351146104965780633b124fe7146104b657600080fd5b8063245e5798116102aa578063313ce56711610284578063313ce5671461043f578063320b2ad9146104615780633685d4191461047657600080fd5b8063245e5798146103b157806327c8f835146103d35780632d8381191461041f57600080fd5b806313114a9d116102db57806313114a9d1461035d57806318160ddd1461037c57806323b872dd1461039157600080fd5b806306fdde0314610302578063095ea7b31461032d57600080fd5b366102fd57005b600080fd5b34801561030e57600080fd5b5061031761090f565b6040516103249190612dff565b60405180910390f35b34801561033957600080fd5b5061034d610348366004612e8a565b6109a1565b6040519015158152602001610324565b34801561036957600080fd5b50600b545b604051908152602001610324565b34801561038857600080fd5b5060095461036e565b34801561039d57600080fd5b5061034d6103ac366004612eb6565b6109c3565b3480156103bd57600080fd5b506103d16103cc366004612f47565b610abe565b005b3480156103df57600080fd5b506104077f000000000000000000000000000000000000000000000000000000000000000081565b6040516001600160a01b039091168152602001610324565b34801561042b57600080fd5b5061036e61043a366004612f8d565b610b36565b34801561044b57600080fd5b50600e5460405160ff9091168152602001610324565b34801561046d57600080fd5b506103d1610bcd565b34801561048257600080fd5b506103d1610491366004612fa6565b610d1b565b3480156104a257600080fd5b5061034d6104b1366004612e8a565b610f3c565b3480156104c257600080fd5b5061036e60145481565b3480156104d857600080fd5b506103d16104e7366004612f8d565b610f73565b3480156104f857600080fd5b506103d1610507366004612f8d565b61107b565b34801561051857600080fd5b506103d1610527366004612fa6565b611194565b34801561053857600080fd5b5061036e610547366004612fd3565b61121d565b34801561055857600080fd5b5061036e601d5481565b34801561056e57600080fd5b50601c5461034d90610100900460ff1681565b34801561058d57600080fd5b506103d161059c366004612fa6565b6112aa565b3480156105ad57600080fd5b5061034d6105bc366004612fa6565b6001600160a01b031660009081526006602052604090205460ff1690565b3480156105e657600080fd5b5061034d611450565b3480156105fb57600080fd5b50601c5461034d9062010000900460ff1681565b34801561061b57600080fd5b506103d161062a366004612fff565b6114b1565b34801561063b57600080fd5b5061036e60165481565b34801561065157600080fd5b5061036e610660366004612fa6565b6115d2565b34801561067157600080fd5b506104077f000000000000000000000000000000000000000000000000000000000000000081565b3480156106a557600080fd5b5061036e60195481565b3480156106bb57600080fd5b5061034d6106ca366004612fa6565b6001600160a01b031660009081526007602052604090205460ff1690565b3480156106f457600080fd5b50600154610407906001600160a01b031681565b34801561071457600080fd5b50610317611631565b34801561072957600080fd5b506103d1610738366004612f8d565b611640565b34801561074957600080fd5b50601a5461036e565b34801561075e57600080fd5b5061034d61076d366004612e8a565b6117b0565b34801561077e57600080fd5b50600054610407906001600160a01b031681565b34801561079e57600080fd5b5061034d6107ad366004612e8a565b61187f565b3480156107be57600080fd5b506103d16107cd36600461306a565b611897565b3480156107de57600080fd5b50601b5461036e565b3480156107f357600080fd5b50600f5460105460115460125461080a9392919084565b604080519485526020850193909352918301526060820152608001610324565b34801561083657600080fd5b506104077f000000000000000000000000000000000000000000000000000000000000000081565b34801561086a57600080fd5b5061036e60185481565b34801561088057600080fd5b5061036e61088f366004613096565b6001600160a01b03918216600090815260056020908152604080832093909416825291909152205490565b3480156108c657600080fd5b5061034d6108d5366004612fa6565b6119aa565b3480156108e657600080fd5b506103d16108f5366004612fa6565b611a1f565b34801561090657600080fd5b506103d1611aa5565b6060600c805461091e906130cf565b80601f016020809104026020016040519081016040528092919081815260200182805461094a906130cf565b80156109975780601f1061096c57610100808354040283529160200191610997565b820191906000526020600020905b81548152906001019060200180831161097a57829003601f168201915b5050505050905090565b60006109ae338484611be8565b6109b9338484611d4a565b5060015b92915050565b60006109d0848484611be8565b6109db848484611eb3565b6001600160a01b0384166000908152600560209081526040808320338452909152902054821115610a795760405162461bcd60e51b815260206004820152602860248201527f45524332303a207472616e7366657220616d6f756e742065786365656473206160448201527f6c6c6f77616e636500000000000000000000000000000000000000000000000060648201526084015b60405180910390fd5b6001600160a01b038416600090815260056020908152604080832033808552925290912054610ab4918691610aaf908690613151565b611d4a565b5060019392505050565b6002546001600160a01b03163314610b185760405162461bcd60e51b815260206004820181905260248201527f4d616e6167653a63616c6c6572206973206e6f7420746865206d616e616765726044820152606401610a70565b8051600f556020810151601055604081015160115560600151601255565b6000600a54821115610bb05760405162461bcd60e51b815260206004820152602a60248201527f416d6f756e74206d757374206265206c657373207468616e20746f74616c207260448201527f65666c656374696f6e73000000000000000000000000000000000000000000006064820152608401610a70565b6000610bba6121f8565b9050610bc68184613168565b9392505050565b6001546001600160a01b03163314610c325760405162461bcd60e51b815260206004820152602260248201527f4f776e61626c653a2063616c6c6572206973206e6f742074686520637265617460448201526137b960f11b6064820152608401610a70565b600f54610c815760405162461bcd60e51b815260206004820152601860248201527f5061757361626c653a2044697361626c656420506175736500000000000000006044820152606401610a70565b610c89611450565b15610cd65760405162461bcd60e51b815260206004820152601060248201527f5061757361626c653a20706175736564000000000000000000000000000000006044820152606401610a70565b600e805461ff0019166101001790556040513381527f62e78cea01bee320cd4e420270b5ea74000d11b0c9f74754ebdbfc544b05a258906020015b60405180910390a1565b6001546001600160a01b03163314610d805760405162461bcd60e51b815260206004820152602260248201527f4f776e61626c653a2063616c6c6572206973206e6f742074686520637265617460448201526137b960f11b6064820152608401610a70565b6001600160a01b03811660009081526007602052604090205460ff16610de85760405162461bcd60e51b815260206004820152601b60248201527f4163636f756e7420697320616c7265616479206578636c7564656400000000006044820152606401610a70565b60005b600854811015610f3857816001600160a01b031660088281548110610e1257610e126131a3565b6000918252602090912001546001600160a01b031603610f265760088054610e3c90600190613151565b81548110610e4c57610e4c6131a3565b600091825260209091200154600880546001600160a01b039092169183908110610e7857610e786131a3565b600091825260208083209190910180547fffffffffffffffffffffffff0000000000000000000000000000000000000000166001600160a01b039485161790559184168152600482526040808220829055600790925220805460ff191690556008805480610ee857610ee86131d2565b600082815260209020810160001990810180547fffffffffffffffffffffffff00000000000000000000000000000000000000001690550190555050565b80610f3081613201565b915050610deb565b5050565b3360008181526005602090815260408083206001600160a01b038716845290915281205490916109b9918590610aaf90869061321b565b610f7e333383611be8565b3360008181526007602052604090205460ff16156110045760405162461bcd60e51b815260206004820152602c60248201527f4578636c75646564206164647265737365732063616e6e6f742063616c6c207460448201527f6869732066756e6374696f6e00000000000000000000000000000000000000006064820152608401610a70565b600061100f8361221b565b505050506001600160a01b03841660009081526003602052604090205491925061103b91839150613151565b6001600160a01b038316600090815260036020526040902055600a54611062908290613151565b600a55600b5461107390849061321b565b600b55505050565b6001546001600160a01b031633146110e05760405162461bcd60e51b815260206004820152602260248201527f4f776e61626c653a2063616c6c6572206973206e6f742074686520637265617460448201526137b960f11b6064820152608401610a70565b60115461112f5760405162461bcd60e51b815260206004820152601760248201527f4275726e61626c653a2044697361626c6564204275726e0000000000000000006044820152606401610a70565b61113b33600083611be8565b806009546111499190613151565b600955600b5461115a90829061321b565b600b556040518181527fb3871d378eeb4c3372ea4c46076e44c52a1b329359d0f7f90c7b03ee8c0792ce906020015b60405180910390a150565b6001546001600160a01b031633146111f95760405162461bcd60e51b815260206004820152602260248201527f4f776e61626c653a2063616c6c6572206973206e6f742074686520637265617460448201526137b960f11b6064820152608401610a70565b6001600160a01b03166000908152600660205260409020805460ff19166001179055565b60006009548311156112715760405162461bcd60e51b815260206004820152601f60248201527f416d6f756e74206d757374206265206c657373207468616e20737570706c79006044820152606401610a70565b816112905760006112818461221b565b509395506109bd945050505050565b600061129b8461221b565b509295506109bd945050505050565b6001546001600160a01b0316331461130f5760405162461bcd60e51b815260206004820152602260248201527f4f776e61626c653a2063616c6c6572206973206e6f742074686520637265617460448201526137b960f11b6064820152608401610a70565b6001600160a01b03811660009081526007602052604090205460ff16156113785760405162461bcd60e51b815260206004820152601b60248201527f4163636f756e7420697320616c7265616479206578636c7564656400000000006044820152606401610a70565b6001600160a01b038116600090815260036020526040902054156113d2576001600160a01b0381166000908152600360205260409020546113b890610b36565b6001600160a01b0382166000908152600460205260409020555b6001600160a01b03166000818152600760205260408120805460ff191660019081179091556008805491820181559091527ff3f7a9fe364faab93b216da50a3214154f22a0a2b415b23a84c8169e8b636ee30180547fffffffffffffffffffffffff0000000000000000000000000000000000000000169091179055565b600f546000906114a25760405162461bcd60e51b815260206004820152601860248201527f5061757361626c653a2044697361626c656420506175736500000000000000006044820152606401610a70565b50600e54610100900460ff1690565b6002546001600160a01b0316331461150b5760405162461bcd60e51b815260206004820181905260248201527f4d616e6167653a63616c6c6572206973206e6f7420746865206d616e616765726044820152606401610a70565b811580159061151b575081600114155b1561153057601c805461ff0019166101001790555b816001148061153f5750816002145b1561157257601c80547fffffffffffffffffffffffffffffffffffffffffffffffffffffffffff00ffff16620100001790555b8160031461158857805160145560208101516018555b81600114806115975750816002145b156115a55760408101516018555b81600314806115b45750816004145b156115c25760608101516016555b5050601454601555601654601755565b6001600160a01b03811660009081526007602052604081205460ff161561160f57506001600160a01b031660009081526004602052604090205490565b6001600160a01b0382166000908152600360205260409020546109bd90610b36565b6060600d805461091e906130cf565b6001546001600160a01b031633146116a55760405162461bcd60e51b815260206004820152602260248201527f4f776e61626c653a2063616c6c6572206973206e6f742074686520637265617460448201526137b960f11b6064820152608401610a70565b600f546116f45760405162461bcd60e51b815260206004820152601760248201527f4d696e7461626c653a2044697361626c6564204d696e740000000000000000006044820152606401610a70565b60001981600954611705919061321b565b11156117535760405162461bcd60e51b815260206004820152600d60248201527f65786365656473206c696d6974000000000000000000000000000000000000006044820152606401610a70565b61175e333383611be8565b8060095461176c919061321b565b600955600b5461177d90829061321b565b600b556040518181527fdd779ccd34929e417fc56a3ffb2acea0e3ce9ff756ef2107f4a75b6b00132aeb90602001611189565b3360009081526005602090815260408083206001600160a01b03861684529091528120548211156118495760405162461bcd60e51b815260206004820152602560248201527f45524332303a2064656372656173656420616c6c6f77616e63652062656c6f7760448201527f207a65726f0000000000000000000000000000000000000000000000000000006064820152608401610a70565b3360008181526005602090815260408083206001600160a01b03881684529091529020546109b991908590610aaf908690613151565b600061188c338484611be8565b6109b9338484611eb3565b6001546001600160a01b031633146118fc5760405162461bcd60e51b815260206004820152602260248201527f4f776e61626c653a2063616c6c6572206973206e6f742074686520637265617460448201526137b960f11b6064820152608401610a70565b60125461194b5760405162461bcd60e51b815260206004820152601d60248201527f426c61636b6c6973743a2044697361626c656420426c61636b6c6973740000006044820152606401610a70565b6001600160a01b038216600081815260136020908152604091829020805460ff191685151590811790915591519182527f6a12b3df6cba4203bd7fd06b816789f87de8c594299aed5717ae070fac781bac910160405180910390a25050565b6012546000906119fc5760405162461bcd60e51b815260206004820152601d60248201527f426c61636b6c6973743a2044697361626c656420426c61636b6c6973740000006044820152606401610a70565b506001600160a01b03811660009081526013602052604090205460ff165b919050565b6001546001600160a01b03163314611a845760405162461bcd60e51b815260206004820152602260248201527f4f776e61626c653a2063616c6c6572206973206e6f742074686520637265617460448201526137b960f11b6064820152608401610a70565b6001600160a01b03166000908152600660205260409020805460ff19169055565b6001546001600160a01b03163314611b0a5760405162461bcd60e51b815260206004820152602260248201527f4f776e61626c653a2063616c6c6572206973206e6f742074686520637265617460448201526137b960f11b6064820152608401610a70565b600f54611b595760405162461bcd60e51b815260206004820152601860248201527f5061757361626c653a2044697361626c656420506175736500000000000000006044820152606401610a70565b611b61611450565b611bad5760405162461bcd60e51b815260206004820152601460248201527f5061757361626c653a206e6f74207061757365640000000000000000000000006044820152606401610a70565b600e805461ff00191690556040513381527f5db9ee0a495bf2e6ff9c91a7834c1ba4fdd244a5e8aa4e537bd38aeae4b073aa90602001610d11565b60125415611ce857611bf9836119aa565b15611c6c5760405162461bcd60e51b815260206004820152603060248201527f546f6b656e207472616e7366657220726566757365642e20526563656976657260448201527f206973206f6e20626c61636b6c697374000000000000000000000000000000006064820152608401610a70565b611c75826119aa565b15611ce85760405162461bcd60e51b815260206004820152603060248201527f546f6b656e207472616e7366657220726566757365642e20526563656976657260448201527f206973206f6e20626c61636b6c697374000000000000000000000000000000006064820152608401610a70565b60105415611d4557611cf8611450565b15611d455760405162461bcd60e51b815260206004820152601060248201527f546f6b656e206973205061757365642e000000000000000000000000000000006044820152606401610a70565b505050565b6001600160a01b038316611dc55760405162461bcd60e51b8152602060048201526024808201527f45524332303a20617070726f76652066726f6d20746865207a65726f2061646460448201527f72657373000000000000000000000000000000000000000000000000000000006064820152608401610a70565b6001600160a01b038216611e415760405162461bcd60e51b815260206004820152602260248201527f45524332303a20617070726f766520746f20746865207a65726f20616464726560448201527f73730000000000000000000000000000000000000000000000000000000000006064820152608401610a70565b600180546001600160a01b039081166000908152600560209081526040808320878516808552925291829020859055925490519116907f8c5be1e5ebec7d5bd14f71427d1e84f3dd0314c0f7b2291e5b200ac8c7c3b92590611ea69085815260200190565b60405180910390a3505050565b6001600160a01b038316611f2f5760405162461bcd60e51b815260206004820152602560248201527f45524332303a207472616e736665722066726f6d20746865207a65726f20616460448201527f64726573730000000000000000000000000000000000000000000000000000006064820152608401610a70565b6001600160a01b038216611fab5760405162461bcd60e51b815260206004820152602360248201527f45524332303a207472616e7366657220746f20746865207a65726f206164647260448201527f65737300000000000000000000000000000000000000000000000000000000006064820152608401610a70565b600081116120215760405162461bcd60e51b815260206004820152602960248201527f5472616e7366657220616d6f756e74206d75737420626520677265617465722060448201527f7468616e207a65726f00000000000000000000000000000000000000000000006064820152608401610a70565b6001546001600160a01b0384811691161480159061204d57506001546001600160a01b03838116911614155b156120ca576019548111156120ca5760405162461bcd60e51b815260206004820152602860248201527f5472616e7366657220616d6f756e74206578636565647320746865206d61785460448201527f78416d6f756e742e0000000000000000000000000000000000000000000000006064820152608401610a70565b60006120d5306115d2565b601a54601c549192508210159060ff161580156120f95750601c54610100900460ff165b801561213657507f00000000000000000000000000000000000000000000000000000000000000006001600160a01b0316846001600160a01b0316145b1561219957801561214f57601a54915061214f8261226a565b601c54479062010000900460ff1680156121705750670de0b6b3a764000081115b1561219757601b548111156121845750601b545b612197612192606483613168565b6122d1565b505b6001600160a01b03851660009081526006602052604090205460019060ff16806121db57506001600160a01b03851660009081526006602052604090205460ff165b156121e4575060005b6121f0868686846122fa565b505050505050565b6000806000612205612425565b90925090506122148183613168565b9250505090565b60008060008060008060008060006122328a6125a8565b92509250925060008060006122508d868661224b6121f8565b6125eb565b919f909e50909c50959a5093985091965092945050505050565b601c805460ff191660011790554761228182612642565b600061228d8247613151565b6000546018546016549293506122c2926001600160a01b03909216916122b39085613168565b6122bd9190613233565b612854565b5050601c805460ff1916905550565b601c805460ff1916600117905580156122ed576122ed8161288a565b50601c805460ff19169055565b8061230757612307612a64565b6001600160a01b03841660009081526007602052604090205460ff16801561234857506001600160a01b03831660009081526007602052604090205460ff16155b1561235d57612358848484612a92565b612409565b6001600160a01b03841660009081526007602052604090205460ff1615801561239e57506001600160a01b03831660009081526007602052604090205460ff165b156123ae57612358848484612bbb565b6001600160a01b03841660009081526007602052604090205460ff1680156123ee57506001600160a01b03831660009081526007602052604090205460ff165b156123fe57612358848484612c67565b612409848484612cdc565b8061241f5761241f601554601455601754601655565b50505050565b600a546009546000918291825b60085481101561257757826003600060088481548110612454576124546131a3565b60009182526020808320909101546001600160a01b0316835282019290925260400190205411806124bf5750816004600060088481548110612498576124986131a3565b60009182526020808320909101546001600160a01b03168352820192909252604001902054115b156124d557600a54600954945094505050509091565b60036000600883815481106124ec576124ec6131a3565b60009182526020808320909101546001600160a01b0316835282019290925260400190205461251b9084613151565b92506004600060088381548110612534576125346131a3565b60009182526020808320909101546001600160a01b031683528201929092526040019020546125639083613151565b91508061256f81613201565b915050612432565b50600954600a546125889190613168565b82101561259f57600a546009549350935050509091565b90939092509050565b6000806000806125b785612d21565b905060006125c486612d3d565b90506000816125d38489613151565b6125dd9190613151565b979296509094509092505050565b60008080806125fa8589613233565b905060006126088689613233565b905060006126168789613233565b90506000816126258486613151565b61262f9190613151565b939b939a50919850919650505050505050565b6040805160028082526060820183526000926020830190803683370190505090503081600081518110612677576126776131a3565b60200260200101906001600160a01b031690816001600160a01b0316815250507f00000000000000000000000000000000000000000000000000000000000000006001600160a01b031663ad5c46486040518163ffffffff1660e01b8152600401602060405180830381865afa1580156126f5573d6000803e3d6000fd5b505050506040513d601f19601f820116820180604052508101906127199190613252565b8160018151811061272c5761272c6131a3565b60200260200101906001600160a01b031690816001600160a01b031681525050612777307f000000000000000000000000000000000000000000000000000000000000000084611d4a565b6040517f791ac9470000000000000000000000000000000000000000000000000000000081526001600160a01b037f0000000000000000000000000000000000000000000000000000000000000000169063791ac947906127e59085906000908690309042906004016132b3565b600060405180830381600087803b1580156127ff57600080fd5b505af1158015612813573d6000803e3d6000fd5b505050507f32cde87eb454f3a0b875ab23547023107cfad454363ec88ba5695e2c24aa52a782826040516128489291906132ef565b60405180910390a15050565b6040516001600160a01b0383169082156108fc029083906000818181858888f19350505050158015611d45573d6000803e3d6000fd5b6040805160028082526060820183526000926020830190803683370190505090507f00000000000000000000000000000000000000000000000000000000000000006001600160a01b031663ad5c46486040518163ffffffff1660e01b8152600401602060405180830381865afa158015612909573d6000803e3d6000fd5b505050506040513d601f19601f8201168201806040525081019061292d9190613252565b81600081518110612940576129406131a3565b60200260200101906001600160a01b031690816001600160a01b0316815250503081600181518110612974576129746131a3565b6001600160a01b0392831660209182029290920101527f00000000000000000000000000000000000000000000000000000000000000001663b6f9de95836000847f00000000000000000000000000000000000000000000000000000000000000006129e24261012c61321b565b6040518663ffffffff1660e01b8152600401612a019493929190613310565b6000604051808303818588803b158015612a1a57600080fd5b505af1158015612a2e573d6000803e3d6000fd5b50505050507f6fd378a9d8b7345c2e5b18229aaf1e39d32b177b501d0a0d26a0a858a23a962482826040516128489291906132ef565b601454158015612a745750601654155b15612a7b57565b601480546015556016805460175560009182905555565b600080600080600080612aa48761221b565b6001600160a01b038f16600090815260046020526040902054959b50939950919750955093509150612ad7908890613151565b6001600160a01b038a16600090815260046020908152604080832093909355600390522054612b07908790613151565b6001600160a01b03808b1660009081526003602052604080822093909355908a1681522054612b3790869061321b565b6001600160a01b038916600090815260036020526040902055612b5981612d4f565b612b638483612dd9565b876001600160a01b0316896001600160a01b03167fddf252ad1be2c89b69c2b068fc378daa952ba7f163c4a11628f55a4df523b3ef85604051612ba891815260200190565b60405180910390a3505050505050505050565b600080600080600080612bcd8761221b565b6001600160a01b038f16600090815260036020526040902054959b50939950919750955093509150612c00908790613151565b6001600160a01b03808b16600090815260036020908152604080832094909455918b16815260049091522054612c3790849061321b565b6001600160a01b038916600090815260046020908152604080832093909355600390522054612b3790869061321b565b600080600080600080612c798761221b565b6001600160a01b038f16600090815260046020526040902054959b50939950919750955093509150612cac908890613151565b6001600160a01b038a16600090815260046020908152604080832093909355600390522054612c00908790613151565b600080600080600080612cee8761221b565b6001600160a01b038f16600090815260036020526040902054959b50939950919750955093509150612b07908790613151565b6000606460145483612d339190613233565b6109bd9190613168565b6000606460165483612d339190613233565b6000612d596121f8565b90506000612d678284613233565b30600090815260036020526040902054909150612d8590829061321b565b3060009081526003602090815260408083209390935560079052205460ff1615611d455730600090815260046020526040902054612dc490849061321b565b30600090815260046020526040902055505050565b81600a54612de79190613151565b600a55600b54612df890829061321b565b600b555050565b600060208083528351808285015260005b81811015612e2c57858101830151858201604001528201612e10565b81811115612e3e576000604083870101525b50601f017fffffffffffffffffffffffffffffffffffffffffffffffffffffffffffffffe016929092016040019392505050565b6001600160a01b0381168114612e8757600080fd5b50565b60008060408385031215612e9d57600080fd5b8235612ea881612e72565b946020939093013593505050565b600080600060608486031215612ecb57600080fd5b8335612ed681612e72565b92506020840135612ee681612e72565b929592945050506040919091013590565b6040516080810167ffffffffffffffff81118282101715612f41577f4e487b7100000000000000000000000000000000000000000000000000000000600052604160045260246000fd5b60405290565b600060808284031215612f5957600080fd5b612f61612ef7565b823581526020830135602082015260408301356040820152606083013560608201528091505092915050565b600060208284031215612f9f57600080fd5b5035919050565b600060208284031215612fb857600080fd5b8135610bc681612e72565b80358015158114611a1a57600080fd5b60008060408385031215612fe657600080fd5b82359150612ff660208401612fc3565b90509250929050565b60008060a0838503121561301257600080fd5b82359150602084603f85011261302757600080fd5b61302f612ef7565b8060a086018781111561304157600080fd5b8387015b8181101561305c5780358452928401928401613045565b509497909650945050505050565b6000806040838503121561307d57600080fd5b823561308881612e72565b9150612ff660208401612fc3565b600080604083850312156130a957600080fd5b82356130b481612e72565b915060208301356130c481612e72565b809150509250929050565b600181811c908216806130e357607f821691505b60208210810361311c577f4e487b7100000000000000000000000000000000000000000000000000000000600052602260045260246000fd5b50919050565b7f4e487b7100000000000000000000000000000000000000000000000000000000600052601160045260246000fd5b60008282101561316357613163613122565b500390565b60008261319e577f4e487b7100000000000000000000000000000000000000000000000000000000600052601260045260246000fd5b500490565b7f4e487b7100000000000000000000000000000000000000000000000000000000600052603260045260246000fd5b7f4e487b7100000000000000000000000000000000000000000000000000000000600052603160045260246000fd5b6000600019820361321457613214613122565b5060010190565b6000821982111561322e5761322e613122565b500190565b600081600019048311821515161561324d5761324d613122565b500290565b60006020828403121561326457600080fd5b8151610bc681612e72565b600081518084526020808501945080840160005b838110156132a85781516001600160a01b031687529582019590820190600101613283565b509495945050505050565b85815284602082015260a0604082015260006132d260a083018661326f565b6001600160a01b0394909416606083015250608001529392505050565b828152604060208201526000613308604083018461326f565b949350505050565b848152608060208201526000613329608083018661326f565b6001600160a01b0394909416604083015250606001529291505056fea26469706673582212207529f240c608822288c988f73f3ede1103e25f99b43a63d74a61e511f97efe7564736f6c634300080d0033ddf252ad1be2c89b69c2b068fc378daa952ba7f163c4a11628f55a4df523b3efa26469706673582212204d38c25ce71794d69e2f43bc75850c131716072c9edea8378253035e909151ef64736f6c634300080d0033",
  "devdoc": {
    "kind": "dev",
    "methods": {},
    "version": 1
  },
  "userdoc": {
    "kind": "user",
    "methods": {},
    "version": 1
  },
  "storageLayout": {
    "storage": [],
    "types": null
  }
}