{
  "address": "0xA2218e198443FE73fE5Dfe4BBcBb167aF9A5d49e",
  "abi": [
    {
      "inputs": [
        {
          "internalType": "address",
          "name": "manage",
          "type": "address"
        },
        {
          "internalType": "address",
          "name": "wethfact",
          "type": "address"
        },
        {
          "internalType": "address",
          "name": "setting",
          "type": "address"
        },
        {
          "internalType": "address",
          "name": "lockaddr",
          "type": "address"
        }
      ],
      "name": "deploy",
      "outputs": [
        {
          "internalType": "contract PresaleV1",
          "name": "",
          "type": "address"
        }
      ],
      "stateMutability": "payable",
      "type": "function"
    }
  ],
  "transactionHash": "0x29b4d04fbf0b615ca3fbbf819885f239e04bb7c1c734f9446a44047aa6cd8fef",
  "args": [],
  "solcInputHash": "77237734eb7e2788e63834288292ca4c",
  "bytecode": "0x608060405234801561001057600080fd5b5061314d806100206000396000f3fe60806040526004361061001e5760003560e01c8063fd82b73a14610023575b600080fd5b610036610031366004610104565b61005f565b60405173ffffffffffffffffffffffffffffffffffffffff909116815260200160405180910390f35b60003485858585604051610072906100ce565b73ffffffffffffffffffffffffffffffffffffffff94851681529284166020840152908316604083015290911660608201526080016040518091039082f09050801580156100c4573d6000803e3d6000fd5b5095945050505050565b612fbf8061015983390190565b803573ffffffffffffffffffffffffffffffffffffffff811681146100ff57600080fd5b919050565b6000806000806080858703121561011a57600080fd5b610123856100db565b9350610131602086016100db565b925061013f604086016100db565b915061014d606086016100db565b90509295919450925056fe608060405260405162002fbf38038062002fbf833981016040819052620000269162000161565b6001600055602580546001600160a01b0319166001600160a01b0384169081179091556040805163db28dbd160e01b8152905163db28dbd1916004808201926020929091908290030181865afa15801562000085573d6000803e3d6000fd5b505050506040513d601f19601f82011682018060405250810190620000ab9190620001be565b341015620000ff5760405162461bcd60e51b815260206004820152601660248201527f42616c616e636520697320696e737566666963656e7400000000000000000000604482015260640160405180910390fd5b602380546001600160a01b03199081166001600160a01b03968716179091556024805482169486169490941790935560268054909316931692909217905550620001d8565b80516001600160a01b03811681146200015c57600080fd5b919050565b600080600080608085870312156200017857600080fd5b620001838562000144565b9350620001936020860162000144565b9250620001a36040860162000144565b9150620001b36060860162000144565b905092959194509250565b600060208284031215620001d157600080fd5b5051919050565b612dd780620001e86000396000f3fe6080604052600436106101295760003560e01c806397a993aa116100a5578063c39e7dbb11610074578063e86e634011610059578063e86e63401461046a578063f0057eef1461047f578063fe8121de1461049f57600080fd5b8063c39e7dbb14610440578063e8078d941461045557600080fd5b806397a993aa1461039a5780639d1213a7146103e3578063ac34c96d14610408578063acfb23551461041d57600080fd5b806348146113116100fc5780638288f95c116100e15780638288f95c146102f057806383197ef01461036557806387d512591461037a57600080fd5b806348146113146102285780634d18b5e21461023057600080fd5b80631c4695f41461012e578063200d2ed21461015d5780633c6ec90f146101ce5780634650d20d146101f0575b600080fd5b34801561013a57600080fd5b506101436104b4565b60405161015495949392919061275f565b60405180910390f35b34801561016957600080fd5b50600e54600f546010546011546012546013546101979560ff80821696610100909204169490939092909187565b6040805197151588529515156020880152948601939093526060850191909152608084015260a083015260c082015260e001610154565b3480156101da57600080fd5b506101ee6101e93660046128a1565b61077e565b005b3480156101fc57600080fd5b50602554610210906001600160a01b031681565b6040516001600160a01b039091168152602001610154565b6101ee610a6f565b34801561023c57600080fd5b50600154600254600354600454600554600654600754600854600954600a54600b54600c54600d546102839c6001600160a01b039081169c169a999897969594939291908d565b604080516001600160a01b039e8f1681529d909c1660208e01529a8c019990995260608b019790975260808a019590955260a089019390935260c088019190915260e08701526101008601526101208501526101408401526101608301526101808201526101a001610154565b3480156102fc57600080fd5b50601954601a54601b54601c54601d54601e54610329959493926001600160a01b03908116928116911686565b604080519687526020870195909552938501929092526001600160a01b03908116606085015290811660808401521660a082015260c001610154565b34801561037157600080fd5b506101ee610e78565b34801561038657600080fd5b506101ee6103953660046129d8565b610ed8565b3480156103a657600080fd5b506103ce6103b5366004612ad5565b6027602052600090815260409020805460019091015482565b60408051928352602083019190915201610154565b3480156103ef57600080fd5b506103f8610fbf565b6040516101549493929190612af9565b34801561041457600080fd5b506101ee6110eb565b34801561042957600080fd5b506104326114fa565b604051908152602001610154565b34801561044c57600080fd5b506101ee611588565b34801561046157600080fd5b506101ee611761565b34801561047657600080fd5b506101ee611eb2565b34801561048b57600080fd5b50602654610210906001600160a01b031681565b3480156104ab57600080fd5b506101ee611fa1565b6014805481906104c390612b32565b80601f01602080910402602001604051908101604052809291908181526020018280546104ef90612b32565b801561053c5780601f106105115761010080835404028352916020019161053c565b820191906000526020600020905b81548152906001019060200180831161051f57829003601f168201915b50505050509080600101805461055190612b32565b80601f016020809104026020016040519081016040528092919081815260200182805461057d90612b32565b80156105ca5780601f1061059f576101008083540402835291602001916105ca565b820191906000526020600020905b8154815290600101906020018083116105ad57829003601f168201915b5050505050908060020180546105df90612b32565b80601f016020809104026020016040519081016040528092919081815260200182805461060b90612b32565b80156106585780601f1061062d57610100808354040283529160200191610658565b820191906000526020600020905b81548152906001019060200180831161063b57829003601f168201915b50505050509080600301805461066d90612b32565b80601f016020809104026020016040519081016040528092919081815260200182805461069990612b32565b80156106e65780601f106106bb576101008083540402835291602001916106e6565b820191906000526020600020905b8154815290600101906020018083116106c957829003601f168201915b5050505050908060040180546106fb90612b32565b80601f016020809104026020016040519081016040528092919081815260200182805461072790612b32565b80156107745780601f1061074957610100808354040283529160200191610774565b820191906000526020600020905b81548152906001019060200180831161075757829003601f168201915b5050505050905085565b6023546001600160a01b031633146107dd5760405162461bcd60e51b815260206004820181905260248201527f4f6e6c79206d616e616765206164647265737320697320617661696c61626c6560448201526064015b60405180910390fd5b8051600180547fffffffffffffffffffffffff00000000000000000000000000000000000000009081166001600160a01b03938416179091556020830151600280549092169216918217905560408083015160035560608301516004908155608084015160055560a084015160065560c084015160075560e0840151600855610100840151600955610120840151600a55610140840151600b55610160840151600c55610180840151600d5581517f06fdde0300000000000000000000000000000000000000000000000000000000815291516306fdde039280830192600092918290030181865afa1580156108d7573d6000803e3d6000fd5b505050506040513d6000823e601f3d908101601f191682016040526108ff9190810190612b85565b805161091391601f9160209091019061266e565b5080602001516001600160a01b03166395d89b416040518163ffffffff1660e01b8152600401600060405180830381865afa158015610956573d6000803e3d6000fd5b505050506040513d6000823e601f3d908101601f1916820160405261097e9190810190612b85565b8051610990916020919082019061266e565b5080602001516001600160a01b031663313ce5676040518163ffffffff1660e01b8152600401602060405180830381865afa1580156109d3573d6000803e3d6000fd5b505050506040513d601f19601f820116820180604052508101906109f79190612bfc565b60ff16601f6003018190555080602001516001600160a01b03166318160ddd6040518163ffffffff1660e01b8152600401602060405180830381865afa158015610a45573d6000803e3d6000fd5b505050506040513d601f19601f82011682018060405250810190610a699190612c1f565b60215550565b600260005403610ac15760405162461bcd60e51b815260206004820152601f60248201527f5265656e7472616e637947756172643a207265656e7472616e742063616c6c0060448201526064016107d4565b6002600055610ace6114fa565b600114610b1d5760405162461bcd60e51b815260206004820152600a60248201527f4e4f54204143544956450000000000000000000000000000000000000000000060448201526064016107d4565b600454341015610b6f5760405162461bcd60e51b815260206004820152601660248201527f62616c616e636520697320696e737566666963656e740000000000000000000060448201526064016107d4565b600554341115610bc15760405162461bcd60e51b815260206004820152601360248201527f62616c616e636520697320746f6f206d7563680000000000000000000000000060448201526064016107d4565b3360009081526027602052604081208054600554919234929091610be491612c67565b600f54600654919250600091610bfa9190612c67565b9050808211610c095781610c0b565b805b915081831115610c19578192505b600354600090670de0b6b3a764000090610c339086612c7e565b610c3d9190612cbb565b905060008111610c8f5760405162461bcd60e51b815260206004820152600b60248201527f5a45524f20544f4b454e5300000000000000000000000000000000000000000060448201526064016107d4565b6002546040517f70a082310000000000000000000000000000000000000000000000000000000081523060048201526001600160a01b03909116906370a0823190602401602060405180830381865afa158015610cf0573d6000803e3d6000fd5b505050506040513d601f19601f82011682018060405250810190610d149190612c1f565b811115610d635760405162461bcd60e51b815260206004820152601260248201527f546f6b656e207265616d696e206572726f72000000000000000000000000000060448201526064016107d4565b8454600003610d825760138054906000610d7c83612cf6565b91905055505b33600090815260276020526040902054610d9d908590612d2e565b33600090815260276020526040902090815560010154610dbe908290612d2e565b33600090815260276020526040902060010155600f54610ddf908590612d2e565b600f55601054610df0908290612d2e565b60105534841015610e3357336108fc610e098634612c67565b6040518115909202916000818181858888f19350505050158015610e31573d6000803e3d6000fd5b505b604080513381523460208201527f6800c78b31b30f29de1de17ff27c5e7c5a990802a69fd1216dd496bafd9c6e0191015b60405180910390a150506001600055505050565b600e5460ff16610eca5760405162461bcd60e51b815260206004820152601860248201527f6c702067656e65726174696f6e20696e636f6d706c657465000000000000000060448201526064016107d4565b6001546001600160a01b0316ff5b6023546001600160a01b03163314610f325760405162461bcd60e51b815260206004820181905260248201527f4f6e6c79206d616e616765206164647265737320697320617661696c61626c6560448201526064016107d4565b805180518291601491610f4c91839160209091019061266e565b506020828101518051610f65926001850192019061266e565b5060408201518051610f8191600284019160209091019061266e565b5060608201518051610f9d91600384019160209091019061266e565b5060808201518051610fb991600484019160209091019061266e565b50505050565b601f80548190610fce90612b32565b80601f0160208091040260200160405190810160405280929190818152602001828054610ffa90612b32565b80156110475780601f1061101c57610100808354040283529160200191611047565b820191906000526020600020905b81548152906001019060200180831161102a57829003601f168201915b50505050509080600101805461105c90612b32565b80601f016020809104026020016040519081016040528092919081815260200182805461108890612b32565b80156110d55780601f106110aa576101008083540402835291602001916110d5565b820191906000526020600020905b8154815290600101906020018083116110b857829003601f168201915b5050505050908060020154908060030154905084565b6023546001600160a01b031633146111455760405162461bcd60e51b815260206004820181905260248201527f4f6e6c79206d616e616765206164647265737320697320617661696c61626c6560448201526064016107d4565b602560009054906101000a90046001600160a01b03166001600160a01b031663fca19d276040518163ffffffff1660e01b8152600401602060405180830381865afa158015611198573d6000803e3d6000fd5b505050506040513d601f19601f820116820180604052508101906111bc9190612c1f565b601955602554604080517f6159ae5900000000000000000000000000000000000000000000000000000000815290516001600160a01b0390921691636159ae59916004808201926020929091908290030181865afa158015611222573d6000803e3d6000fd5b505050506040513d601f19601f820116820180604052508101906112469190612c1f565b601a55602554604080517fb25b298f00000000000000000000000000000000000000000000000000000000815290516001600160a01b039092169163b25b298f916004808201926020929091908290030181865afa1580156112ac573d6000803e3d6000fd5b505050506040513d601f19601f820116820180604052508101906112d09190612c1f565b601b55602554604080517f7480ba7f00000000000000000000000000000000000000000000000000000000815290516001600160a01b0390921691637480ba7f916004808201926020929091908290030181865afa158015611336573d6000803e3d6000fd5b505050506040513d601f19601f8201168201806040525081019061135a9190612d46565b601c80547fffffffffffffffffffffffff0000000000000000000000000000000000000000166001600160a01b03928316179055602554604080517f89b23cff000000000000000000000000000000000000000000000000000000008152905191909216916389b23cff9160048083019260209291908290030181865afa1580156113e9573d6000803e3d6000fd5b505050506040513d601f19601f8201168201806040525081019061140d9190612d46565b601d80547fffffffffffffffffffffffff0000000000000000000000000000000000000000166001600160a01b03928316179055602554604080517f86c90a9f000000000000000000000000000000000000000000000000000000008152905191909216916386c90a9f9160048083019260209291908290030181865afa15801561149c573d6000803e3d6000fd5b505050506040513d601f19601f820116820180604052508101906114c09190612d46565b601e80547fffffffffffffffffffffffff0000000000000000000000000000000000000000166001600160a01b0392909216919091179055565b600e54600090610100900460ff16156115135750600390565b600c54421180156115275750600754600f54105b156115325750600390565b600654600f54106115435750600290565b600c54421180156115585750600754600f5410155b156115635750600290565b600d5442108015906115775750600c544211155b156115825750600190565b50600090565b6002600054036115da5760405162461bcd60e51b815260206004820152601f60248201527f5265656e7472616e637947756172643a207265656e7472616e742063616c6c0060448201526064016107d4565b60026000556115e76114fa565b6003146116365760405162461bcd60e51b815260206004820152600a60248201527f4e4f54204641494c45440000000000000000000000000000000000000000000060448201526064016107d4565b6001546001600160a01b03163303611650576116506121e5565b336000908152602760205260408120601254600f549192916116729190612c67565b8254909150479060009083906116889084612c7e565b6116929190612cbb565b9050600081116116e45760405162461bcd60e51b815260206004820152601360248201527f4e4f5448494e4720544f2057495448445241570000000000000000000000000060448201526064016107d4565b83546012546116f39190612d2e565b6012556000808555600185018190556040513391829184156108fc0291859190818181858888f19350505050158015611730573d6000803e3d6000fd5b506040518281527fba8f86526b8f4836c344cbbb8d752a5deb45d8d86c8fdcc0318124656ed1f16990602001610e64565b6002600054036117b35760405162461bcd60e51b815260206004820152601f60248201527f5265656e7472616e637947756172643a207265656e7472616e742063616c6c0060448201526064016107d4565b60026000556001546001600160a01b031633146118125760405162461bcd60e51b815260206004820152601160248201527f4e4f542050524553414c45204f574e455200000000000000000000000000000060448201526064016107d4565b600e5460ff16156118655760405162461bcd60e51b815260206004820152601360248201527f47454e45524154494f4e20434f4d504c4554450000000000000000000000000060448201526064016107d4565b61186d6114fa565b6002146118bc5760405162461bcd60e51b815260206004820152600b60248201527f4e4f54205355434345535300000000000000000000000000000000000000000060448201526064016107d4565b602654600254602480546040517f8d8c70bb0000000000000000000000000000000000000000000000000000000081526001600160a01b03938416600482015290831691810191909152911690638d8c70bb90604401602060405180830381865afa15801561192f573d6000803e3d6000fd5b505050506040513d601f19601f820116820180604052508101906119539190612d63565b156119c457600e80547fffffffffffffffffffffffffffffffffffffffffffffffffffffffffffff00ff166101001790556040517ffc4635b457b81a81e44eab31da1d5a34dae08cffa83f63bde39685cf32ffd7e2906119b7906000815260200190565b60405180910390a1611eab565b60006064602560009054906101000a90046001600160a01b03166001600160a01b031663fca19d276040518163ffffffff1660e01b8152600401602060405180830381865afa158015611a1b573d6000803e3d6000fd5b505050506040513d601f19601f82011682018060405250810190611a3f9190612c1f565b600f54611a4c9190612c7e565b611a569190612cbb565b90506000606460016007015483600e60010154611a739190612c67565b611a7d9190612c7e565b611a879190612cbb565b90506000670de0b6b3a764000060016008015483611aa59190612c7e565b611aaf9190612cbb565b905060008111611b015760405162461bcd60e51b815260206004820152600b60248201527f5a45524f20546f6b656e7300000000000000000000000000000000000000000060448201526064016107d4565b600254602654611b1e916001600160a01b039081169116836123e3565b602654602554604080517fdb28dbd100000000000000000000000000000000000000000000000000000000815290516001600160a01b039384169363443603b693879391169163db28dbd1916004808201926020929091908290030181865afa158015611b8f573d6000803e3d6000fd5b505050506040513d601f19601f82011682018060405250810190611bb39190612c1f565b611bbd9190612d2e565b600254600a5460015460405160e086901b7fffffffff000000000000000000000000000000000000000000000000000000001681526001600160a01b0393841660048201526024810189905260448101889052606481019290925291909116608482015260a4016000604051808303818588803b158015611c3d57600080fd5b505af1158015611c51573d6000803e3d6000fd5b505050505060006064602560009054906101000a90046001600160a01b03166001600160a01b0316636159ae596040518163ffffffff1660e01b8152600401602060405180830381865afa158015611cad573d6000803e3d6000fd5b505050506040513d601f19601f82011682018060405250810190611cd19190612c1f565b601054611cde9190612c7e565b611ce89190612cbb565b601c546040519192506001600160a01b031690819086156108fc029087906000818181858888f19350505050158015611d25573d6000803e3d6000fd5b50600254601d54611d43916001600160a01b0390811691168461252c565b6002546040517f70a082310000000000000000000000000000000000000000000000000000000081523060048201526000916001600160a01b0316906370a0823190602401602060405180830381865afa158015611da5573d6000803e3d6000fd5b505050506040513d601f19601f82011682018060405250810190611dc99190612c1f565b601054909150811115611e0457601054600090611de69083612c67565b600254909150611e02906001600160a01b031661dead8361252c565b505b60015460405147916001600160a01b031690819083156108fc029084906000818181858888f19350505050158015611e40573d6000803e3d6000fd5b50600e80547fffffffffffffffffffffffffffffffffffffffffffffffffffffffffffffff001660019081179091556040519081527ffc4635b457b81a81e44eab31da1d5a34dae08cffa83f63bde39685cf32ffd7e29060200160405180910390a150505050505050505b6001600055565b600e5460ff16158015611ecd5750600e54610100900460ff16155b611ed657600080fd5b602654600254602480546040517f8d8c70bb0000000000000000000000000000000000000000000000000000000081526001600160a01b03938416600482015290831691810191909152911690638d8c70bb90604401602060405180830381865afa158015611f49573d6000803e3d6000fd5b505050506040513d601f19601f82011682018060405250810190611f6d9190612d63565b15611f9f57600e80547fffffffffffffffffffffffffffffffffffffffffffffffffffffffffffff00ff166101001790555b565b600260005403611ff35760405162461bcd60e51b815260206004820152601f60248201527f5265656e7472616e637947756172643a207265656e7472616e742063616c6c0060448201526064016107d4565b6002600055600e5460ff1661204a5760405162461bcd60e51b815260206004820152601660248201527f4157414954494e47204c502047454e45524154494f4e0000000000000000000060448201526064016107d4565b33600090815260276020526040812060115460105491929161206c9190612c67565b60018301546002546040517f70a082310000000000000000000000000000000000000000000000000000000081523060048201529293506000928492916001600160a01b0316906370a0823190602401602060405180830381865afa1580156120d9573d6000803e3d6000fd5b505050506040513d601f19601f820116820180604052508101906120fd9190612c1f565b6121079190612c7e565b6121119190612cbb565b9050600081116121635760405162461bcd60e51b815260206004820152601360248201527f4e4f5448494e4720544f2057495448445241570000000000000000000000000060448201526064016107d4565b60018301546011546121759190612d2e565b60115533600081815260276020526040812060018101829055556002546121a8916001600160a01b03909116908361252c565b6040518181527f6eb77a5c4ed3153e65b1a8804e82c2ffa0d2b39fd8dba4ae39b6476c7bf65f7e9060200160405180910390a15050600160005550565b6001546001600160a01b0316331461223f5760405162461bcd60e51b815260206004820152601160248201527f4e4f542050524553414c45204f574e455200000000000000000000000000000060448201526064016107d4565b6122476114fa565b6003146122965760405162461bcd60e51b815260206004820152601260248201527f4f6e6c79206661696c656420737461747573000000000000000000000000000060448201526064016107d4565b6002546001546040517f70a0823100000000000000000000000000000000000000000000000000000000815230600482015261232b926001600160a01b0390811692169082906370a0823190602401602060405180830381865afa158015612302573d6000803e3d6000fd5b505050506040513d601f19601f820116820180604052508101906123269190612c1f565b61252c565b6002546040517f70a082310000000000000000000000000000000000000000000000000000000081523060048201527fba8f86526b8f4836c344cbbb8d752a5deb45d8d86c8fdcc0318124656ed1f169916001600160a01b0316906370a0823190602401602060405180830381865afa1580156123ac573d6000803e3d6000fd5b505050506040513d601f19601f820116820180604052508101906123d09190612c1f565b60405190815260200160405180910390a1565b604080516001600160a01b038481166024830152604480830185905283518084039091018152606490920183526020820180517bffffffffffffffffffffffffffffffffffffffffffffffffffffffff167f095ea7b300000000000000000000000000000000000000000000000000000000179052915160009283929087169161246d9190612d85565b6000604051808303816000865af19150503d80600081146124aa576040519150601f19603f3d011682016040523d82523d6000602084013e6124af565b606091505b50915091508180156124d95750805115806124d95750808060200190518101906124d99190612d63565b6125255760405162461bcd60e51b815260206004820152601e60248201527f5472616e7366657248656c7065723a20415050524f56455f4641494c4544000060448201526064016107d4565b5050505050565b604080516001600160a01b038481166024830152604480830185905283518084039091018152606490920183526020820180517bffffffffffffffffffffffffffffffffffffffffffffffffffffffff167fa9059cbb0000000000000000000000000000000000000000000000000000000017905291516000928392908716916125b69190612d85565b6000604051808303816000865af19150503d80600081146125f3576040519150601f19603f3d011682016040523d82523d6000602084013e6125f8565b606091505b50915091508180156126225750805115806126225750808060200190518101906126229190612d63565b6125255760405162461bcd60e51b815260206004820152601f60248201527f5472616e7366657248656c7065723a205452414e534645525f4641494c45440060448201526064016107d4565b82805461267a90612b32565b90600052602060002090601f01602090048101928261269c57600085556126e2565b82601f106126b557805160ff19168380011785556126e2565b828001600101855582156126e2579182015b828111156126e25782518255916020019190600101906126c7565b506126ee9291506126f2565b5090565b5b808211156126ee57600081556001016126f3565b60005b8381101561272257818101518382015260200161270a565b83811115610fb95750506000910152565b6000815180845261274b816020860160208601612707565b601f01601f19169290920160200192915050565b60a08152600061277260a0830188612733565b82810360208401526127848188612733565b905082810360408401526127988187612733565b905082810360608401526127ac8186612733565b905082810360808401526127c08185612733565b98975050505050505050565b7f4e487b7100000000000000000000000000000000000000000000000000000000600052604160045260246000fd5b6040516101a0810167ffffffffffffffff8111828210171561281f5761281f6127cc565b60405290565b60405160a0810167ffffffffffffffff8111828210171561281f5761281f6127cc565b604051601f8201601f1916810167ffffffffffffffff81118282101715612871576128716127cc565b604052919050565b6001600160a01b038116811461288e57600080fd5b50565b803561289c81612879565b919050565b60006101a082840312156128b457600080fd5b6128bc6127fb565b6128c583612891565b81526128d360208401612891565b602082015260408301356040820152606083013560608201526080830135608082015260a083013560a082015260c083013560c082015260e083013560e08201526101008084013581830152506101208084013581830152506101408084013581830152506101608084013581830152506101808084013581830152508091505092915050565b600067ffffffffffffffff821115612974576129746127cc565b50601f01601f191660200190565b600082601f83011261299357600080fd5b81356129a66129a18261295a565b612848565b8181528460208386010111156129bb57600080fd5b816020850160208301376000918101602001919091529392505050565b6000602082840312156129ea57600080fd5b813567ffffffffffffffff80821115612a0257600080fd5b9083019060a08286031215612a1657600080fd5b612a1e612825565b823582811115612a2d57600080fd5b612a3987828601612982565b825250602083013582811115612a4e57600080fd5b612a5a87828601612982565b602083015250604083013582811115612a7257600080fd5b612a7e87828601612982565b604083015250606083013582811115612a9657600080fd5b612aa287828601612982565b606083015250608083013582811115612aba57600080fd5b612ac687828601612982565b60808301525095945050505050565b600060208284031215612ae757600080fd5b8135612af281612879565b9392505050565b608081526000612b0c6080830187612733565b8281036020840152612b1e8187612733565b604084019590955250506060015292915050565b600181811c90821680612b4657607f821691505b602082108103612b7f577f4e487b7100000000000000000000000000000000000000000000000000000000600052602260045260246000fd5b50919050565b600060208284031215612b9757600080fd5b815167ffffffffffffffff811115612bae57600080fd5b8201601f81018413612bbf57600080fd5b8051612bcd6129a18261295a565b818152856020838501011115612be257600080fd5b612bf3826020830160208601612707565b95945050505050565b600060208284031215612c0e57600080fd5b815160ff81168114612af257600080fd5b600060208284031215612c3157600080fd5b5051919050565b7f4e487b7100000000000000000000000000000000000000000000000000000000600052601160045260246000fd5b600082821015612c7957612c79612c38565b500390565b6000817fffffffffffffffffffffffffffffffffffffffffffffffffffffffffffffffff0483118215151615612cb657612cb6612c38565b500290565b600082612cf1577f4e487b7100000000000000000000000000000000000000000000000000000000600052601260045260246000fd5b500490565b60007fffffffffffffffffffffffffffffffffffffffffffffffffffffffffffffffff8203612d2757612d27612c38565b5060010190565b60008219821115612d4157612d41612c38565b500190565b600060208284031215612d5857600080fd5b8151612af281612879565b600060208284031215612d7557600080fd5b81518015158114612af257600080fd5b60008251612d97818460208701612707565b919091019291505056fea264697066735822122070d14861d34cb454991a4e580de9c63fd265460e868b49fa7f7b166b31e0697a64736f6c634300080d0033a2646970667358221220d5ad9ad573591c174ff428d30b723e9b1ed3ac9523cb5a2530907c2b8a8fc61964736f6c634300080d0033",
  "devdoc": {
    "kind": "dev",
    "methods": {},
    "version": 1
  },
  "userdoc": {
    "kind": "user",
    "methods": {},
    "version": 1
  },
  "storageLayout": {
    "storage": [],
    "types": null
  }
}