{
  "address": "0x38E494AfBa77d0461F74A07a8704Fa852Af39483",
  "abi": [
    {
      "inputs": [
        {
          "internalType": "address payable",
          "name": "_owner",
          "type": "address"
        },
        {
          "internalType": "address",
          "name": "lock_addr",
          "type": "address"
        },
        {
          "internalType": "address",
          "name": "uniswapfactory_addr",
          "type": "address"
        },
        {
          "internalType": "address",
          "name": "uniswaprouter_Addr",
          "type": "address"
        },
        {
          "internalType": "address",
          "name": "weth_addr",
          "type": "address"
        },
        {
          "internalType": "contract PresaleFactory",
          "name": "_presaleFactory",
          "type": "address"
        }
      ],
      "stateMutability": "nonpayable",
      "type": "constructor"
    },
    {
      "anonymous": false,
      "inputs": [
        {
          "indexed": false,
          "internalType": "address",
          "name": "",
          "type": "address"
        },
        {
          "indexed": false,
          "internalType": "address",
          "name": "",
          "type": "address"
        }
      ],
      "name": "CreatePreslaeSuccess",
      "type": "event"
    },
    {
      "anonymous": false,
      "inputs": [
        {
          "indexed": false,
          "internalType": "uint256",
          "name": "value",
          "type": "uint256"
        }
      ],
      "name": "OwnerWithdrawSuccess",
      "type": "event"
    },
    {
      "inputs": [
        {
          "internalType": "address",
          "name": "presale_addr",
          "type": "address"
        }
      ],
      "name": "IsRegistered",
      "outputs": [
        {
          "internalType": "bool",
          "name": "",
          "type": "bool"
        }
      ],
      "stateMutability": "view",
      "type": "function"
    },
    {
      "inputs": [
        {
          "internalType": "uint256",
          "name": "_amount",
          "type": "uint256"
        },
        {
          "internalType": "uint256",
          "name": "_tokenPrice",
          "type": "uint256"
        },
        {
          "internalType": "uint256",
          "name": "_listingRate",
          "type": "uint256"
        },
        {
          "internalType": "uint256",
          "name": "_liquidityPercent",
          "type": "uint256"
        },
        {
          "internalType": "uint256",
          "name": "_tokenFee",
          "type": "uint256"
        }
      ],
      "name": "calculateAmountRequired",
      "outputs": [
        {
          "internalType": "uint256",
          "name": "",
          "type": "uint256"
        }
      ],
      "stateMutability": "pure",
      "type": "function"
    },
    {
      "inputs": [
        {
          "components": [
            {
              "internalType": "address payable",
              "name": "presale_owner",
              "type": "address"
            },
            {
              "internalType": "address",
              "name": "sale_token",
              "type": "address"
            },
            {
              "internalType": "uint256",
              "name": "token_rate",
              "type": "uint256"
            },
            {
              "internalType": "uint256",
              "name": "raise_min",
              "type": "uint256"
            },
            {
              "internalType": "uint256",
              "name": "raise_max",
              "type": "uint256"
            },
            {
              "internalType": "uint256",
              "name": "hardcap",
              "type": "uint256"
            },
            {
              "internalType": "uint256",
              "name": "softcap",
              "type": "uint256"
            },
            {
              "internalType": "uint256",
              "name": "liqudity_percent",
              "type": "uint256"
            },
            {
              "internalType": "uint256",
              "name": "listing_rate",
              "type": "uint256"
            },
            {
              "internalType": "uint256",
              "name": "lock_end",
              "type": "uint256"
            },
            {
              "internalType": "uint256",
              "name": "lock_start",
              "type": "uint256"
            },
            {
              "internalType": "uint256",
              "name": "presale_end",
              "type": "uint256"
            },
            {
              "internalType": "uint256",
              "name": "presale_start",
              "type": "uint256"
            }
          ],
          "internalType": "struct SharedStructs.PresaleInfo",
          "name": "_presale_info",
          "type": "tuple"
        },
        {
          "components": [
            {
              "internalType": "string",
              "name": "website_link",
              "type": "string"
            },
            {
              "internalType": "string",
              "name": "github_link",
              "type": "string"
            },
            {
              "internalType": "string",
              "name": "twitter_link",
              "type": "string"
            },
            {
              "internalType": "string",
              "name": "reddit_link",
              "type": "string"
            },
            {
              "internalType": "string",
              "name": "telegram_link",
              "type": "string"
            }
          ],
          "internalType": "struct SharedStructs.PresaleLink",
          "name": "_presalelink",
          "type": "tuple"
        }
      ],
      "name": "createPresale",
      "outputs": [],
      "stateMutability": "payable",
      "type": "function"
    },
    {
      "inputs": [],
      "name": "getBalance",
      "outputs": [
        {
          "internalType": "uint256",
          "name": "",
          "type": "uint256"
        }
      ],
      "stateMutability": "view",
      "type": "function"
    },
    {
      "inputs": [],
      "name": "getCount",
      "outputs": [
        {
          "internalType": "uint256",
          "name": "",
          "type": "uint256"
        }
      ],
      "stateMutability": "view",
      "type": "function"
    },
    {
      "inputs": [
        {
          "internalType": "uint256",
          "name": "index",
          "type": "uint256"
        }
      ],
      "name": "getPresaleAt",
      "outputs": [
        {
          "internalType": "address",
          "name": "",
          "type": "address"
        }
      ],
      "stateMutability": "view",
      "type": "function"
    },
    {
      "inputs": [],
      "name": "ownerWithdraw",
      "outputs": [],
      "stateMutability": "nonpayable",
      "type": "function"
    },
    {
      "inputs": [],
      "name": "presale_lock_forward_addr",
      "outputs": [
        {
          "internalType": "address",
          "name": "",
          "type": "address"
        }
      ],
      "stateMutability": "view",
      "type": "function"
    },
    {
      "inputs": [],
      "name": "presale_setting_addr",
      "outputs": [
        {
          "internalType": "address",
          "name": "",
          "type": "address"
        }
      ],
      "stateMutability": "view",
      "type": "function"
    },
    {
      "inputs": [],
      "name": "settings",
      "outputs": [
        {
          "internalType": "contract PresaleSettings",
          "name": "",
          "type": "address"
        }
      ],
      "stateMutability": "view",
      "type": "function"
    }
  ],
  "transactionHash": "0x386e2c7fdffa8012bea2a00778f9d04e8bdb99745fe58492f4520097ad8988ce",
  "args": [
    "0x20613aBe93e4611Cf547b4395E4248c6129c8697",
    "0x29564A1BC2126E1f8A93185aEe638FfEFd94ba68",
    "0xB856587fe1cbA8600F75F1b1176E44250B11C788",
    "0x17AFD0263D6909Ba1F9a8EAC697f76532365Fb95",
    "0x5300000000000000000000000000000000000004",
    "0xA2218e198443FE73fE5Dfe4BBcBb167aF9A5d49e"
  ],
  "solcInputHash": "77237734eb7e2788e63834288292ca4c",
  "bytecode": "0x60806040523480156200001157600080fd5b50604051620037bc380380620037bc833981016040819052620000349162000272565b600980546001600160a01b038089166001600160a01b0319928316179092556006805487841690831617905560088054928516929091169190911790556040513090869086908690869062000089906200023d565b6001600160a01b0395861681529385166020850152918416604084015283166060830152909116608082015260a001604051809103906000f080158015620000d5573d6000803e3d6000fd5b50600580546001600160a01b03929092166001600160a01b031992831681179091556003805490921617905560405160009030908890889062000118906200024b565b6001600160a01b03938416815291831660208301529091166040820152606001604051809103906000f08015801562000155573d6000803e3d6000fd5b50600954604051637e6117e960e11b81526001600160a01b0391821660048201819052662386f26fc10000602483015260448201819052600a606483018190526084830182905260a4830181905260c483019190915260e482015291925082169063fcc22fd29061010401600060405180830381600087803b158015620001db57600080fd5b505af1158015620001f0573d6000803e3d6000fd5b5050600480546001600160a01b039485166001600160a01b03199182168117909255601c805482169092179091556002805495909416941693909317909155506200030695505050505050565b610f828062001ad283390190565b610d688062002a5483390190565b6001600160a01b03811681146200026f57600080fd5b50565b60008060008060008060c087890312156200028c57600080fd5b8651620002998162000259565b6020880151909650620002ac8162000259565b6040880151909550620002bf8162000259565b6060880151909450620002d28162000259565b6080880151909350620002e58162000259565b60a0880151909250620002f88162000259565b809150509295509295509295565b6117bc80620003166000396000f3fe6080604052600436106100b15760003560e01c8063a725976711610069578063b014afb31161004e578063b014afb3146101a0578063c224122d146101b3578063e06174e4146101e357600080fd5b8063a72597671461016b578063a87d942c1461018b57600080fd5b806312065fe01161009a57806312065fe0146101215780634311de8f14610134578063a00d16961461014b57600080fd5b8063108a67a6146100b65780631185168a146100f3575b600080fd5b3480156100c257600080fd5b506003546100d6906001600160a01b031681565b6040516001600160a01b0390911681526020015b60405180910390f35b3480156100ff57600080fd5b5061011361010e3660046110a9565b610203565b6040519081526020016100ea565b34801561012d57600080fd5b5047610113565b34801561014057600080fd5b506101496102be565b005b34801561015757600080fd5b506004546100d6906001600160a01b031681565b34801561017757600080fd5b506100d66101863660046110e4565b610490565b34801561019757600080fd5b506101136104a2565b6101496101ae36600461130c565b6104b3565b3480156101bf57600080fd5b506101d36101ce3660046113fb565b610dc0565b60405190151581526020016100ea565b3480156101ef57600080fd5b50601c546100d6906001600160a01b031681565b600080670de0b6b3a76400006102198789611447565b6102239190611484565b9050600086670de0b6b3a7640000606461023d878c611447565b6102479190611484565b6102519190611484565b61025b9190611447565b90506000670de0b6b3a7640000610272888b611447565b61027c9190611484565b90506000606461028c8884611447565b6102969190611484565b90506000836102a583876114bf565b6102af91906114bf565b9b9a5050505050505050505050565b601c60009054906101000a90046001600160a01b03166001600160a01b0316635a305ff86040518163ffffffff1660e01b8152600401602060405180830381865afa158015610311573d6000803e3d6000fd5b505050506040513d601f19601f8201168201806040525081019061033591906114d7565b6001600160a01b0316336001600160a01b03161461039a5760405162461bcd60e51b815260206004820152601960248201527f4f6e6c7920637265617465722063616e2077697468647261770000000000000060448201526064015b60405180910390fd5b601c54604080517f5a305ff800000000000000000000000000000000000000000000000000000000815290516000926001600160a01b031691635a305ff89160048083019260209291908290030181865afa1580156103fd573d6000803e3d6000fd5b505050506040513d601f19601f8201168201806040525081019061042191906114d7565b6040519091506001600160a01b038216904780156108fc02916000818181858888f19350505050158015610459573d6000803e3d6000fd5b506040514781527fc67a6e2c9e13b320d5ce7e24743ea93ba9261320310966dd6240569493690eff9060200160405180910390a150565b600061049c8183610dcc565b92915050565b60006104ae6000610ddf565b905090565b8151600a80547fffffffffffffffffffffffff00000000000000000000000000000000000000009081166001600160a01b0393841617909155602080850151600b805490931693169290921790556040830151600c556060830151600d556080830151600e5560a0830151600f5560c083015160105560e08301516011556101008301516012556101208301516013556101408301516014556101608301516015556101808301516016558151805183926017926105779284929190910190611010565b5060208281015180516105909260018501920190611010565b50604082015180516105ac916002840191602090910190611010565b50606082015180516105c8916003840191602090910190611010565b50608082015180516105e4916004840191602090910190611010565b5050601c54604080517fdb28dbd100000000000000000000000000000000000000000000000000000000815290516001600160a01b03909216925063db28dbd19160048083019260209291908290030181865afa158015610649573d6000803e3d6000fd5b505050506040513d601f19601f8201168201806040525081019061066d91906114f4565b601c60009054906101000a90046001600160a01b03166001600160a01b0316632107c1016040518163ffffffff1660e01b8152600401602060405180830381865afa1580156106c0573d6000803e3d6000fd5b505050506040513d601f19601f820116820180604052508101906106e491906114f4565b6106ee91906114bf565b34101561073d5760405162461bcd60e51b815260206004820152601660248201527f42616c616e636520697320696e737566666963656e74000000000000000000006044820152606401610391565b60008260400151116107915760405162461bcd60e51b815260206004820152601560248201527f746f6b656e207261746520697320696e76616c696400000000000000000000006044820152606401610391565b81608001518260600151106107e85760405162461bcd60e51b815260206004820152601860248201527f7261697365206d696e2f6d617820696e20696e76616c696400000000000000006044820152606401610391565b8160a001518260c0015111156108405760405162461bcd60e51b815260206004820152601a60248201527f736f66746361702f6861726463617020697320696e76616c69640000000000006044820152606401610391565b601e8260e001511015801561085a575060648260e0015111155b6108a65760405162461bcd60e51b815260206004820152601b60248201527f4c697175646974792070657263656e7420697320696e76616c696400000000006044820152606401610391565b6000826101000151116108fb5760405162461bcd60e51b815260206004820152601760248201527f4c697374696e67207261746520697320696e76616c69640000000000000000006044820152606401610391565b6000826101800151836101600151610913919061150d565b116109865760405162461bcd60e51b815260206004820152602160248201527f50726573616c652073746172742f656e642074696d6520697320696e76616c6960448201527f64000000000000000000000000000000000000000000000000000000000000006064820152608401610391565b6224ea008261014001518361012001516109a0919061150d565b10156109ee5760405162461bcd60e51b815260206004820152601360248201527f4c6f636b20656e6420697320696e76616c6964000000000000000000000000006044820152606401610391565b6000610a7f8360a0015184604001518561010001518660e00151601c60009054906101000a90046001600160a01b03166001600160a01b0316636159ae596040518163ffffffff1660e01b8152600401602060405180830381865afa158015610a5b573d6000803e3d6000fd5b505050506040513d601f19601f8201168201806040525081019061010e91906114f4565b600254601c54604080517fdb28dbd100000000000000000000000000000000000000000000000000000000815290519394506000936001600160a01b039384169363fd82b73a93169163db28dbd19160048083019260209291908290030181865afa158015610af2573d6000803e3d6000fd5b505050506040513d601f19601f82011682018060405250810190610b1691906114f4565b6008546004805460035460405160e087901b7fffffffff0000000000000000000000000000000000000000000000000000000016815230938101939093526001600160a01b039384166024840152908316604483015291909116606482015260840160206040518083038185885af1158015610b96573d6000803e3d6000fd5b50505050506040513d601f19601f82011682018060405250810190610bbb91906114d7565b90506001600160a01b038116610c135760405162461bcd60e51b815260206004820152601560248201527f4372656174652070726573616c65204661696c656400000000000000000000006044820152606401610391565b610c238460200151338385610de9565b6040517f3c6ec90f0000000000000000000000000000000000000000000000000000000081526001600160a01b03821690633c6ec90f90610c68908790600401611524565b600060405180830381600087803b158015610c8257600080fd5b505af1158015610c96573d6000803e3d6000fd5b50506040517f87d512590000000000000000000000000000000000000000000000000000000081526001600160a01b03841692506387d512599150610cdf90869060040161162b565b600060405180830381600087803b158015610cf957600080fd5b505af1158015610d0d573d6000803e3d6000fd5b50505050806001600160a01b031663ac34c96d6040518163ffffffff1660e01b8152600401600060405180830381600087803b158015610d4c57600080fd5b505af1158015610d60573d6000803e3d6000fd5b50505050610d78816000610f6090919063ffffffff16565b50604080516001600160a01b03831681523360208201527f7ce97a7f0c83b2f9f5bd5df597d7052e608d181e21e81fe7fc9a1e7f38b48c29910160405180910390a150505050565b600061049c8183610f75565b6000610dd88383610f97565b9392505050565b600061049c825490565b604080516001600160a01b0385811660248301528481166044830152606480830185905283518084039091018152608490920183526020820180517bffffffffffffffffffffffffffffffffffffffffffffffffffffffff167f23b872dd000000000000000000000000000000000000000000000000000000001790529151600092839290881691610e7b91906116c6565b6000604051808303816000865af19150503d8060008114610eb8576040519150601f19603f3d011682016040523d82523d6000602084013e610ebd565b606091505b5091509150818015610ee7575080511580610ee7575080806020019051810190610ee791906116e2565b610f585760405162461bcd60e51b8152602060048201526024808201527f5472616e7366657248656c7065723a205452414e534645525f46524f4d5f464160448201527f494c4544000000000000000000000000000000000000000000000000000000006064820152608401610391565b505050505050565b6000610dd8836001600160a01b038416610fc1565b6001600160a01b03811660009081526001830160205260408120541515610dd8565b6000826000018281548110610fae57610fae611704565b9060005260206000200154905092915050565b60008181526001830160205260408120546110085750815460018181018455600084815260208082209093018490558454848252828601909352604090209190915561049c565b50600061049c565b82805461101c90611733565b90600052602060002090601f01602090048101928261103e5760008555611084565b82601f1061105757805160ff1916838001178555611084565b82800160010185558215611084579182015b82811115611084578251825591602001919060010190611069565b50611090929150611094565b5090565b5b808211156110905760008155600101611095565b600080600080600060a086880312156110c157600080fd5b505083359560208501359550604085013594606081013594506080013592509050565b6000602082840312156110f657600080fd5b5035919050565b7f4e487b7100000000000000000000000000000000000000000000000000000000600052604160045260246000fd5b60405160a0810167ffffffffffffffff8111828210171561114f5761114f6110fd565b60405290565b6040516101a0810167ffffffffffffffff8111828210171561114f5761114f6110fd565b6001600160a01b038116811461118e57600080fd5b50565b803561119c81611179565b919050565b600082601f8301126111b257600080fd5b813567ffffffffffffffff808211156111cd576111cd6110fd565b604051601f8301601f19908116603f011681019082821181831017156111f5576111f56110fd565b8160405283815286602085880101111561120e57600080fd5b836020870160208301376000602085830101528094505050505092915050565b600060a0828403121561124057600080fd5b61124861112c565b9050813567ffffffffffffffff8082111561126257600080fd5b61126e858386016111a1565b8352602084013591508082111561128457600080fd5b611290858386016111a1565b602084015260408401359150808211156112a957600080fd5b6112b5858386016111a1565b604084015260608401359150808211156112ce57600080fd5b6112da858386016111a1565b606084015260808401359150808211156112f357600080fd5b50611300848285016111a1565b60808301525092915050565b6000808284036101c081121561132157600080fd5b6101a08082121561133157600080fd5b611339611155565b915061134485611191565b825261135260208601611191565b602083015260408581013590830152606080860135908301526080808601359083015260a0808601359083015260c0808601359083015260e080860135908301526101008086013590830152610120808601359083015261014080860135908301526101608086013590830152610180808601359083015290925083013567ffffffffffffffff8111156113e557600080fd5b6113f18582860161122e565b9150509250929050565b60006020828403121561140d57600080fd5b8135610dd881611179565b7f4e487b7100000000000000000000000000000000000000000000000000000000600052601160045260246000fd5b6000817fffffffffffffffffffffffffffffffffffffffffffffffffffffffffffffffff048311821515161561147f5761147f611418565b500290565b6000826114ba577f4e487b7100000000000000000000000000000000000000000000000000000000600052601260045260246000fd5b500490565b600082198211156114d2576114d2611418565b500190565b6000602082840312156114e957600080fd5b8151610dd881611179565b60006020828403121561150657600080fd5b5051919050565b60008282101561151f5761151f611418565b500390565b81516001600160a01b031681526101a08101602083015161155060208401826001600160a01b03169052565b5060408301516040830152606083015160608301526080830151608083015260a083015160a083015260c083015160c083015260e083015160e083015261010080840151818401525061012080840151818401525061014080840151818401525061016080840151818401525061018080840151818401525092915050565b60005b838110156115ea5781810151838201526020016115d2565b838111156115f9576000848401525b50505050565b600081518084526116178160208601602086016115cf565b601f01601f19169290920160200192915050565b602081526000825160a0602084015261164760c08401826115ff565b90506020840151601f198085840301604086015261166583836115ff565b9250604086015191508085840301606086015261168283836115ff565b9250606086015191508085840301608086015261169f83836115ff565b925060808601519150808584030160a0860152506116bd82826115ff565b95945050505050565b600082516116d88184602087016115cf565b9190910192915050565b6000602082840312156116f457600080fd5b81518015158114610dd857600080fd5b7f4e487b7100000000000000000000000000000000000000000000000000000000600052603260045260246000fd5b600181811c9082168061174757607f821691505b602082108103611780577f4e487b7100000000000000000000000000000000000000000000000000000000600052602260045260246000fd5b5091905056fea26469706673582212202da2e0e352416a64f8f43ae968645efce8e8acdff9130b15dce29f2b5337aa8064736f6c634300080d0033608060405234801561001057600080fd5b50604051610f82380380610f8283398101604081905261002f916100af565b600080546001600160a01b03199081166001600160a01b039687161790915560018054821694861694909417909355600280548416928516929092179091556004805483169184169190911790556003805490911692909116919091179055610114565b80516001600160a01b03811681146100aa57600080fd5b919050565b600080600080600060a086880312156100c757600080fd5b6100d086610093565b94506100de60208701610093565b93506100ec60408701610093565b92506100fa60608701610093565b915061010860808701610093565b90509295509295909350565b610e5f806101236000396000f3fe60806040526004361061007b5760003560e01c8063ad5c46481161004e578063ad5c464814610122578063b2522e2e14610142578063de9d122d14610178578063f96a0d21146101ae57600080fd5b80632431ba73146100805780632c26fb02146100bd578063443603b6146100dd5780638d8c70bb146100f2575b600080fd5b34801561008c57600080fd5b506002546100a0906001600160a01b031681565b6040516001600160a01b0390911681526020015b60405180910390f35b3480156100c957600080fd5b506001546100a0906001600160a01b031681565b6100f06100eb366004610c76565b6101ce565b005b3480156100fe57600080fd5b5061011261010d366004610ccc565b610816565b60405190151581526020016100b4565b34801561012e57600080fd5b506004546100a0906001600160a01b031681565b34801561014e57600080fd5b506100a061015d366004610d05565b6006602052600090815260409020546001600160a01b031681565b34801561018457600080fd5b506100a0610193366004610d05565b6005602052600090815260409020546001600160a01b031681565b3480156101ba57600080fd5b506000546100a0906001600160a01b031681565b6003546040517fc224122d0000000000000000000000000000000000000000000000000000000081523360048201526001600160a01b039091169063c224122d90602401602060405180830381865afa15801561022f573d6000803e3d6000fd5b505050506040513d601f19601f820116820180604052508101906102539190610d29565b6102be576040517f08c379a000000000000000000000000000000000000000000000000000000000815260206004820152601660248201527f50524553414c45204e4f5420524547495354455245440000000000000000000060448201526064015b60405180910390fd5b600054604080517fa035b1fe000000000000000000000000000000000000000000000000000000008152905186926001600160a01b03169163a035b1fe9160048083019260209291908290030181865afa158015610320573d6000803e3d6000fd5b505050506040513d601f19601f820116820180604052508101906103449190610d4b565b61034e9190610d64565b3410156103b7576040517f08c379a000000000000000000000000000000000000000000000000000000000815260206004820152601760248201527f42616c616e636520697320696e73756666696369656e7400000000000000000060448201526064016102b5565b6103c38533308661096a565b6002546103db9086906001600160a01b031685610afb565b6002546001600160a01b031663f305d719858786600080306103ff4261012c610d64565b60405160e089901b7fffffffff000000000000000000000000000000000000000000000000000000001681526001600160a01b039687166004820152602481019590955260448501939093526064840191909152909216608482015260a481019190915260c40160606040518083038185885af1158015610484573d6000803e3d6000fd5b50505050506040513d601f19601f820116820180604052508101906104a99190610da3565b5050600154600480546040517fe6a439050000000000000000000000000000000000000000000000000000000081526001600160a01b03918216928101929092528881166024830152600093509091169063e6a4390590604401602060405180830381865afa158015610520573d6000803e3d6000fd5b505050506040513d601f19601f820116820180604052508101906105449190610dd1565b6040517f70a082310000000000000000000000000000000000000000000000000000000081523060048201529091506000906001600160a01b038316906370a0823190602401602060405180830381865afa1580156105a7573d6000803e3d6000fd5b505050506040513d601f19601f820116820180604052508101906105cb9190610d4b565b905080600003610637576040517f08c379a000000000000000000000000000000000000000000000000000000000815260206004820152601260248201527f4c50206372656174696f6e206661696c6564000000000000000000000000000060448201526064016102b5565b60005461064f9083906001600160a01b031683610afb565b60006402540be3ff8511610663578461066a565b6402540be3ff5b600054604080517fa035b1fe00000000000000000000000000000000000000000000000000000000815290519293506001600160a01b0390911691636610cc2091839163a035b1fe916004808201926020929091908290030181865afa1580156106d8573d6000803e3d6000fd5b505050506040513d601f19601f820116820180604052508101906106fc9190610d4b565b6040517fffffffff0000000000000000000000000000000000000000000000000000000060e084901b1681526001600160a01b0380881660048301526024820187905260448201869052881660648201526084016000604051808303818588803b15801561076957600080fd5b505af115801561077d573d6000803e3d6000fd5b5050506001600160a01b03808b1660009081526005602090815260408083208054858b167fffffffffffffffffffffffff00000000000000000000000000000000000000009182161790915560069092528083208054948b16949092168417909155519193504780156108fc0293509190818181858888f1935050505015801561080b573d6000803e3d6000fd5b505050505050505050565b6001546040517fe6a439050000000000000000000000000000000000000000000000000000000081526001600160a01b0384811660048301528381166024830152600092839291169063e6a4390590604401602060405180830381865afa158015610885573d6000803e3d6000fd5b505050506040513d601f19601f820116820180604052508101906108a99190610dd1565b90506001600160a01b0381166108c3576000915050610964565b6040517f70a082310000000000000000000000000000000000000000000000000000000081526001600160a01b038281166004830152600091908616906370a0823190602401602060405180830381865afa158015610926573d6000803e3d6000fd5b505050506040513d601f19601f8201168201806040525081019061094a9190610d4b565b9050801561095d57600192505050610964565b6000925050505b92915050565b604080516001600160a01b0385811660248301528481166044830152606480830185905283518084039091018152608490920183526020820180517bffffffffffffffffffffffffffffffffffffffffffffffffffffffff167f23b872dd0000000000000000000000000000000000000000000000000000000017905291516000928392908816916109fc9190610dee565b6000604051808303816000865af19150503d8060008114610a39576040519150601f19603f3d011682016040523d82523d6000602084013e610a3e565b606091505b5091509150818015610a68575080511580610a68575080806020019051810190610a689190610d29565b610af3576040517f08c379a0000000000000000000000000000000000000000000000000000000008152602060048201526024808201527f5472616e7366657248656c7065723a205452414e534645525f46524f4d5f464160448201527f494c45440000000000000000000000000000000000000000000000000000000060648201526084016102b5565b505050505050565b604080516001600160a01b038481166024830152604480830185905283518084039091018152606490920183526020820180517bffffffffffffffffffffffffffffffffffffffffffffffffffffffff167f095ea7b3000000000000000000000000000000000000000000000000000000001790529151600092839290871691610b859190610dee565b6000604051808303816000865af19150503d8060008114610bc2576040519150601f19603f3d011682016040523d82523d6000602084013e610bc7565b606091505b5091509150818015610bf1575080511580610bf1575080806020019051810190610bf19190610d29565b610c57576040517f08c379a000000000000000000000000000000000000000000000000000000000815260206004820152601e60248201527f5472616e7366657248656c7065723a20415050524f56455f4641494c4544000060448201526064016102b5565b5050505050565b6001600160a01b0381168114610c7357600080fd5b50565b600080600080600060a08688031215610c8e57600080fd5b8535610c9981610c5e565b94506020860135935060408601359250606086013591506080860135610cbe81610c5e565b809150509295509295909350565b60008060408385031215610cdf57600080fd5b8235610cea81610c5e565b91506020830135610cfa81610c5e565b809150509250929050565b600060208284031215610d1757600080fd5b8135610d2281610c5e565b9392505050565b600060208284031215610d3b57600080fd5b81518015158114610d2257600080fd5b600060208284031215610d5d57600080fd5b5051919050565b60008219821115610d9e577f4e487b7100000000000000000000000000000000000000000000000000000000600052601160045260246000fd5b500190565b600080600060608486031215610db857600080fd5b8351925060208401519150604084015190509250925092565b600060208284031215610de357600080fd5b8151610d2281610c5e565b6000825160005b81811015610e0f5760208186018101518583015201610df5565b81811115610e1e576000828501525b50919091019291505056fea26469706673582212202690cc8d31d12ae409ef85a7c5de6673849ba046b51f117838da31744fe8d51f64736f6c634300080d0033608060405234801561001057600080fd5b50604051610d68380380610d6883398101604081905261002f9161008b565b600080546001600160a01b03199081166001600160a01b0394851617909155600180548216948416949094179093556002805490931691161790556100ce565b80516001600160a01b038116811461008657600080fd5b919050565b6000806000606084860312156100a057600080fd5b6100a98461006f565b92506100b76020850161006f565b91506100c56040850161006f565b90509250925092565b610c8b806100dd6000396000f3fe608060405234801561001057600080fd5b506004361061016c5760003560e01c80637480ba7f116100cd578063b25b298f11610081578063fafd117111610066578063fafd117114610315578063fca19d2714610328578063fcc22fd21461033057600080fd5b8063b25b298f14610305578063db28dbd11461030d57600080fd5b806389b23cff116100b257806389b23cff146102ce578063a4f2fb58146102df578063afa5bd91146102f257600080fd5b80637480ba7f146102ac57806386c90a9f146102bd57600080fd5b80635a305ff8116101245780635ed88cc8116101095780635ed88cc81461027e5780636159ae59146102915780636843ac491461029957600080fd5b80635a305ff8146102465780635cec3a331461026b57600080fd5b80633b44ba27116101555780633b44ba271461020b5780633b5eff581461022057806348fd86811461023357600080fd5b80632107c10114610171578063370158ea14610188575b600080fd5b6006545b6040519081526020015b60405180910390f35b600354600454600554600654600754600854600954600a546101be97969594936001600160a01b03908116938116928116911688565b6040805198895260208901979097529587019490945260608601929092526001600160a01b03908116608086015290811660a085015290811660c08401521660e08201526101000161017f565b61021e610219366004610b27565b610343565b005b61021e61022e366004610b49565b610404565b61021e610241366004610ba8565b6104fe565b600a546001600160a01b03165b6040516001600160a01b03909116815260200161017f565b61021e610279366004610ba8565b610594565b61021e61028c366004610b27565b610623565b600454610175565b61021e6102a7366004610b27565b6106e3565b6007546001600160a01b0316610253565b6009546001600160a01b0316610253565b6008546001600160a01b0316610253565b61021e6102ed366004610ba8565b6107a9565b61021e610300366004610ba8565b610838565b600554610175565b6101756108c7565b61021e610323366004610b27565b610953565b600354610175565b61021e61033e366004610bc1565b610a0f565b6000546001600160a01b031633146103a25760405162461bcd60e51b815260206004820181905260248201527f4f776e61626c653a2063616c6c6572206973206e6f7420746865206f776e657260448201526064015b60405180910390fd5b600780547fffffffffffffffffffffffff0000000000000000000000000000000000000000166001600160a01b0383169081179091556040517f914c3dc0d36d367cfbf9c2d12b8ecbce32c53f61073b6786b731d626ca28cd1690600090a250565b6000546001600160a01b0316331461045e5760405162461bcd60e51b815260206004820181905260248201527f4f776e61626c653a2063616c6c6572206973206e6f7420746865206f776e65726044820152606401610399565b600a80546001600160a01b038881167fffffffffffffffffffffffff000000000000000000000000000000000000000092831617909255600780548884169083161790556008805492871692909116919091179055600683905560038290556004819055604051600181527f5b04e2909297afc4d97c5e73529a4c22bd078759a55cf46f4b6ff9b82f264fe29060200160405180910390a1505050505050565b6000546001600160a01b031633146105585760405162461bcd60e51b815260206004820181905260248201527f4f776e61626c653a2063616c6c6572206973206e6f7420746865206f776e65726044820152606401610399565b60048190556040518181527fa85e85cd3258e19490ec75acd2bac57bbcd073866e3bf52a554d744f9b6ea430906020015b60405180910390a150565b6000546001600160a01b031633146105ee5760405162461bcd60e51b815260206004820181905260248201527f4f776e61626c653a2063616c6c6572206973206e6f7420746865206f776e65726044820152606401610399565b60068190556040518181527f1422ff3e1c021de75f6e67bd772dde2ca40e95cb2a377835d93cc55b0d353ced90602001610589565b6000546001600160a01b0316331461067d5760405162461bcd60e51b815260206004820181905260248201527f4f776e61626c653a2063616c6c6572206973206e6f7420746865206f776e65726044820152606401610399565b600a80547fffffffffffffffffffffffff0000000000000000000000000000000000000000166001600160a01b0383169081179091556040519081527f2dce471c25dfcbd96624037a30e7e4f73e4ab05bd2c075c9408315de4cb8a0ce90602001610589565b6000546001600160a01b0316331461073d5760405162461bcd60e51b815260206004820181905260248201527f4f776e61626c653a2063616c6c6572206973206e6f7420746865206f776e65726044820152606401610399565b600880547fffffffffffffffffffffffff0000000000000000000000000000000000000000166001600160a01b0383811691909117909155600954604051911681527f2dce471c25dfcbd96624037a30e7e4f73e4ab05bd2c075c9408315de4cb8a0ce90602001610589565b6000546001600160a01b031633146108035760405162461bcd60e51b815260206004820181905260248201527f4f776e61626c653a2063616c6c6572206973206e6f7420746865206f776e65726044820152606401610399565b60038190556040518181527f169df7c4f78e51723fa449c0f67297f01c285b0a209cbf5753a023c2d5dccf2590602001610589565b6000546001600160a01b031633146108925760405162461bcd60e51b815260206004820181905260248201527f4f776e61626c653a2063616c6c6572206973206e6f7420746865206f776e65726044820152606401610399565b60058190556040518181527fa2e5a2568fd883a302b07f53b61680d293c18e9e05bd4efe55e346582df1940c90602001610589565b600254604080517fa035b1fe00000000000000000000000000000000000000000000000000000000815290516000926001600160a01b03169163a035b1fe9160048083019260209291908290030181865afa15801561092a573d6000803e3d6000fd5b505050506040513d601f19601f8201168201806040525081019061094e9190610c3c565b905090565b6000546001600160a01b031633146109ad5760405162461bcd60e51b815260206004820181905260248201527f4f776e61626c653a2063616c6c6572206973206e6f7420746865206f776e65726044820152606401610399565b600880547fffffffffffffffffffffffff0000000000000000000000000000000000000000166001600160a01b0383169081179091556040517fb7b4de15f8656e985c19351858b30725bdefae6318b15dbc4d9cf56ca193a1c990600090a250565b6001546001600160a01b03163314610a8f5760405162461bcd60e51b815260206004820152602260248201527f4f776e61626c653a2063616c6c6572206973206e6f7420746865206d616e616760448201527f65720000000000000000000000000000000000000000000000000000000000006064820152608401610399565b600696909655600780547fffffffffffffffffffffffff00000000000000000000000000000000000000009081166001600160a01b039788161790915560039490945560088054851693861693909317909255600455600980548316918416919091179055600592909255600a80549092169216919091179055565b80356001600160a01b0381168114610b2257600080fd5b919050565b600060208284031215610b3957600080fd5b610b4282610b0b565b9392505050565b60008060008060008060c08789031215610b6257600080fd5b610b6b87610b0b565b9550610b7960208801610b0b565b9450610b8760408801610b0b565b9350606087013592506080870135915060a087013590509295509295509295565b600060208284031215610bba57600080fd5b5035919050565b600080600080600080600080610100898b031215610bde57600080fd5b610be789610b0b565b975060208901359650610bfc60408a01610b0b565b955060608901359450610c1160808a01610b0b565b935060a08901359250610c2660c08a01610b0b565b915060e089013590509295985092959890939650565b600060208284031215610c4e57600080fd5b505191905056fea26469706673582212204103a174264490974993777d9dad91a407055ecf1cd3103f36918d9dbd99591e64736f6c634300080d0033",
  "devdoc": {
    "kind": "dev",
    "methods": {},
    "version": 1
  },
  "userdoc": {
    "kind": "user",
    "methods": {
      "calculateAmountRequired(uint256,uint256,uint256,uint256,uint256)": {
        "notice": "Creates a new Presale contract and registers it in the PresaleFactory.sol."
      }
    },
    "version": 1
  },
  "storageLayout": {
    "storage": [
      {
        "astId": 9161,
        "contract": "contracts/Presale/Meter/PresaleManage.sol:PresaleManage",
        "label": "presales",
        "offset": 0,
        "slot": "0",
        "type": "t_struct(AddressSet)2261_storage"
      },
      {
        "astId": 9164,
        "contract": "contracts/Presale/Meter/PresaleManage.sol:PresaleManage",
        "label": "presaleFactory",
        "offset": 0,
        "slot": "2",
        "type": "t_contract(PresaleFactory)8829"
      },
      {
        "astId": 9166,
        "contract": "contracts/Presale/Meter/PresaleManage.sol:PresaleManage",
        "label": "presale_lock_forward_addr",
        "offset": 0,
        "slot": "3",
        "type": "t_address"
      },
      {
        "astId": 9168,
        "contract": "contracts/Presale/Meter/PresaleManage.sol:PresaleManage",
        "label": "presale_setting_addr",
        "offset": 0,
        "slot": "4",
        "type": "t_address"
      },
      {
        "astId": 9171,
        "contract": "contracts/Presale/Meter/PresaleManage.sol:PresaleManage",
        "label": "_lock",
        "offset": 0,
        "slot": "5",
        "type": "t_contract(PresaleLockForwarder)9144"
      },
      {
        "astId": 9173,
        "contract": "contracts/Presale/Meter/PresaleManage.sol:PresaleManage",
        "label": "uniswap_factory_address",
        "offset": 0,
        "slot": "6",
        "type": "t_address"
      },
      {
        "astId": 9175,
        "contract": "contracts/Presale/Meter/PresaleManage.sol:PresaleManage",
        "label": "uniswap_pair_address",
        "offset": 0,
        "slot": "7",
        "type": "t_address"
      },
      {
        "astId": 9177,
        "contract": "contracts/Presale/Meter/PresaleManage.sol:PresaleManage",
        "label": "weth_address",
        "offset": 0,
        "slot": "8",
        "type": "t_address"
      },
      {
        "astId": 9179,
        "contract": "contracts/Presale/Meter/PresaleManage.sol:PresaleManage",
        "label": "owner",
        "offset": 0,
        "slot": "9",
        "type": "t_address_payable"
      },
      {
        "astId": 9182,
        "contract": "contracts/Presale/Meter/PresaleManage.sol:PresaleManage",
        "label": "presale_info",
        "offset": 0,
        "slot": "10",
        "type": "t_struct(PresaleInfo)9703_storage"
      },
      {
        "astId": 9185,
        "contract": "contracts/Presale/Meter/PresaleManage.sol:PresaleManage",
        "label": "presalelink",
        "offset": 0,
        "slot": "23",
        "type": "t_struct(PresaleLink)9714_storage"
      },
      {
        "astId": 9188,
        "contract": "contracts/Presale/Meter/PresaleManage.sol:PresaleManage",
        "label": "settings",
        "offset": 0,
        "slot": "28",
        "type": "t_contract(PresaleSettings)10197"
      }
    ],
    "types": {
      "t_address": {
        "encoding": "inplace",
        "label": "address",
        "numberOfBytes": "20"
      },
      "t_address_payable": {
        "encoding": "inplace",
        "label": "address payable",
        "numberOfBytes": "20"
      },
      "t_array(t_bytes32)dyn_storage": {
        "base": "t_bytes32",
        "encoding": "dynamic_array",
        "label": "bytes32[]",
        "numberOfBytes": "32"
      },
      "t_bytes32": {
        "encoding": "inplace",
        "label": "bytes32",
        "numberOfBytes": "32"
      },
      "t_contract(PresaleFactory)8829": {
        "encoding": "inplace",
        "label": "contract PresaleFactory",
        "numberOfBytes": "20"
      },
      "t_contract(PresaleLockForwarder)9144": {
        "encoding": "inplace",
        "label": "contract PresaleLockForwarder",
        "numberOfBytes": "20"
      },
      "t_contract(PresaleSettings)10197": {
        "encoding": "inplace",
        "label": "contract PresaleSettings",
        "numberOfBytes": "20"
      },
      "t_mapping(t_bytes32,t_uint256)": {
        "encoding": "mapping",
        "key": "t_bytes32",
        "label": "mapping(bytes32 => uint256)",
        "numberOfBytes": "32",
        "value": "t_uint256"
      },
      "t_string_storage": {
        "encoding": "bytes",
        "label": "string",
        "numberOfBytes": "32"
      },
      "t_struct(AddressSet)2261_storage": {
        "encoding": "inplace",
        "label": "struct EnumerableSet.AddressSet",
        "members": [
          {
            "astId": 2260,
            "contract": "contracts/Presale/Meter/PresaleManage.sol:PresaleManage",
            "label": "_inner",
            "offset": 0,
            "slot": "0",
            "type": "t_struct(Set)1960_storage"
          }
        ],
        "numberOfBytes": "64"
      },
      "t_struct(PresaleInfo)9703_storage": {
        "encoding": "inplace",
        "label": "struct SharedStructs.PresaleInfo",
        "members": [
          {
            "astId": 9678,
            "contract": "contracts/Presale/Meter/PresaleManage.sol:PresaleManage",
            "label": "presale_owner",
            "offset": 0,
            "slot": "0",
            "type": "t_address_payable"
          },
          {
            "astId": 9680,
            "contract": "contracts/Presale/Meter/PresaleManage.sol:PresaleManage",
            "label": "sale_token",
            "offset": 0,
            "slot": "1",
            "type": "t_address"
          },
          {
            "astId": 9682,
            "contract": "contracts/Presale/Meter/PresaleManage.sol:PresaleManage",
            "label": "token_rate",
            "offset": 0,
            "slot": "2",
            "type": "t_uint256"
          },
          {
            "astId": 9684,
            "contract": "contracts/Presale/Meter/PresaleManage.sol:PresaleManage",
            "label": "raise_min",
            "offset": 0,
            "slot": "3",
            "type": "t_uint256"
          },
          {
            "astId": 9686,
            "contract": "contracts/Presale/Meter/PresaleManage.sol:PresaleManage",
            "label": "raise_max",
            "offset": 0,
            "slot": "4",
            "type": "t_uint256"
          },
          {
            "astId": 9688,
            "contract": "contracts/Presale/Meter/PresaleManage.sol:PresaleManage",
            "label": "hardcap",
            "offset": 0,
            "slot": "5",
            "type": "t_uint256"
          },
          {
            "astId": 9690,
            "contract": "contracts/Presale/Meter/PresaleManage.sol:PresaleManage",
            "label": "softcap",
            "offset": 0,
            "slot": "6",
            "type": "t_uint256"
          },
          {
            "astId": 9692,
            "contract": "contracts/Presale/Meter/PresaleManage.sol:PresaleManage",
            "label": "liqudity_percent",
            "offset": 0,
            "slot": "7",
            "type": "t_uint256"
          },
          {
            "astId": 9694,
            "contract": "contracts/Presale/Meter/PresaleManage.sol:PresaleManage",
            "label": "listing_rate",
            "offset": 0,
            "slot": "8",
            "type": "t_uint256"
          },
          {
            "astId": 9696,
            "contract": "contracts/Presale/Meter/PresaleManage.sol:PresaleManage",
            "label": "lock_end",
            "offset": 0,
            "slot": "9",
            "type": "t_uint256"
          },
          {
            "astId": 9698,
            "contract": "contracts/Presale/Meter/PresaleManage.sol:PresaleManage",
            "label": "lock_start",
            "offset": 0,
            "slot": "10",
            "type": "t_uint256"
          },
          {
            "astId": 9700,
            "contract": "contracts/Presale/Meter/PresaleManage.sol:PresaleManage",
            "label": "presale_end",
            "offset": 0,
            "slot": "11",
            "type": "t_uint256"
          },
          {
            "astId": 9702,
            "contract": "contracts/Presale/Meter/PresaleManage.sol:PresaleManage",
            "label": "presale_start",
            "offset": 0,
            "slot": "12",
            "type": "t_uint256"
          }
        ],
        "numberOfBytes": "416"
      },
      "t_struct(PresaleLink)9714_storage": {
        "encoding": "inplace",
        "label": "struct SharedStructs.PresaleLink",
        "members": [
          {
            "astId": 9705,
            "contract": "contracts/Presale/Meter/PresaleManage.sol:PresaleManage",
            "label": "website_link",
            "offset": 0,
            "slot": "0",
            "type": "t_string_storage"
          },
          {
            "astId": 9707,
            "contract": "contracts/Presale/Meter/PresaleManage.sol:PresaleManage",
            "label": "github_link",
            "offset": 0,
            "slot": "1",
            "type": "t_string_storage"
          },
          {
            "astId": 9709,
            "contract": "contracts/Presale/Meter/PresaleManage.sol:PresaleManage",
            "label": "twitter_link",
            "offset": 0,
            "slot": "2",
            "type": "t_string_storage"
          },
          {
            "astId": 9711,
            "contract": "contracts/Presale/Meter/PresaleManage.sol:PresaleManage",
            "label": "reddit_link",
            "offset": 0,
            "slot": "3",
            "type": "t_string_storage"
          },
          {
            "astId": 9713,
            "contract": "contracts/Presale/Meter/PresaleManage.sol:PresaleManage",
            "label": "telegram_link",
            "offset": 0,
            "slot": "4",
            "type": "t_string_storage"
          }
        ],
        "numberOfBytes": "160"
      },
      "t_struct(Set)1960_storage": {
        "encoding": "inplace",
        "label": "struct EnumerableSet.Set",
        "members": [
          {
            "astId": 1955,
            "contract": "contracts/Presale/Meter/PresaleManage.sol:PresaleManage",
            "label": "_values",
            "offset": 0,
            "slot": "0",
            "type": "t_array(t_bytes32)dyn_storage"
          },
          {
            "astId": 1959,
            "contract": "contracts/Presale/Meter/PresaleManage.sol:PresaleManage",
            "label": "_indexes",
            "offset": 0,
            "slot": "1",
            "type": "t_mapping(t_bytes32,t_uint256)"
          }
        ],
        "numberOfBytes": "64"
      },
      "t_uint256": {
        "encoding": "inplace",
        "label": "uint256",
        "numberOfBytes": "32"
      }
    }
  }
}