{
  "address": "0x3420A6C97bE6C6024700E630C3290f8FCD760Db4",
  "abi": [
    {
      "inputs": [
        {
          "internalType": "address",
          "name": "creator_",
          "type": "address"
        },
        {
          "internalType": "string",
          "name": "name_",
          "type": "string"
        },
        {
          "internalType": "string",
          "name": "symbol_",
          "type": "string"
        },
        {
          "internalType": "uint8",
          "name": "decimals_",
          "type": "uint8"
        },
        {
          "internalType": "uint256",
          "name": "tokenSupply_",
          "type": "uint256"
        },
        {
          "components": [
            {
              "internalType": "uint256",
              "name": "mintflag",
              "type": "uint256"
            },
            {
              "internalType": "uint256",
              "name": "pauseflag",
              "type": "uint256"
            },
            {
              "internalType": "uint256",
              "name": "burnflag",
              "type": "uint256"
            },
            {
              "internalType": "uint256",
              "name": "blacklistflag",
              "type": "uint256"
            }
          ],
          "internalType": "struct SharedStructs.status",
          "name": "_state",
          "type": "tuple"
        }
      ],
      "name": "deploy",
      "outputs": [
        {
          "internalType": "contract StandardToken",
          "name": "",
          "type": "address"
        }
      ],
      "stateMutability": "nonpayable",
      "type": "function"
    }
  ],
  "transactionHash": "0xd3b7c9aab2a13ac0c9f75d59354e874616c576bfc299292b61b1b0bc13aa3d13",
  "args": [],
  "solcInputHash": "77237734eb7e2788e63834288292ca4c",
  "bytecode": "0x608060405234801561001057600080fd5b50612067806100206000396000f3fe60806040523480156200001157600080fd5b50600436106200002e5760003560e01c8063213db6b71462000033575b600080fd5b6200004a620000443660046200021d565b62000073565b60405173ffffffffffffffffffffffffffffffffffffffff909116815260200160405180910390f35b60008686868686866040516200008990620000c3565b6200009a9695949392919062000359565b604051809103906000f080158015620000b7573d6000803e3d6000fd5b50979650505050505050565b611c4d80620003e583390190565b7f4e487b7100000000000000000000000000000000000000000000000000000000600052604160045260246000fd5b600082601f8301126200011257600080fd5b813567ffffffffffffffff80821115620001305762000130620000d1565b604051601f83017fffffffffffffffffffffffffffffffffffffffffffffffffffffffffffffffe0908116603f01168101908282118183101715620001795762000179620000d1565b816040528381528660208588010111156200019357600080fd5b836020870160208301376000602085830101528094505050505092915050565b600060808284031215620001c657600080fd5b6040516080810181811067ffffffffffffffff82111715620001ec57620001ec620000d1565b8060405250809150823581526020830135602082015260408301356040820152606083013560608201525092915050565b60008060008060008061012087890312156200023857600080fd5b863573ffffffffffffffffffffffffffffffffffffffff811681146200025d57600080fd5b9550602087013567ffffffffffffffff808211156200027b57600080fd5b620002898a838b0162000100565b96506040890135915080821115620002a057600080fd5b50620002af89828a0162000100565b945050606087013560ff81168114620002c757600080fd5b925060808701359150620002df8860a08901620001b3565b90509295509295509295565b6000815180845260005b818110156200031357602081850181015186830182015201620002f5565b8181111562000326576000602083870101525b50601f017fffffffffffffffffffffffffffffffffffffffffffffffffffffffffffffffe0169290920160200192915050565b600061012073ffffffffffffffffffffffffffffffffffffffff891683528060208401526200038b81840189620002eb565b90508281036040840152620003a18188620002eb565b91505060ff85166060830152836080830152825160a0830152602083015160c0830152604083015160e0830152606083015161010083015297965050505050505056fe608060405260016005553480156200001657600080fd5b5060405162001c4d38038062001c4d8339810160408190526200003991620005ab565b84516200004e906001906020880190620003be565b50835162000064906002906020870190620003be565b506003805460ff191660ff8516179055600080546001600160a01b0319166001600160a01b0388161790558051600755602081015160085560408101516009556060810151600a55620000b88683620000cf565b50506006805460ff1916905550620006d092505050565b6001600160a01b0382166200012b5760405162461bcd60e51b815260206004820152601f60248201527f45524332303a206d696e7420746f20746865207a65726f20616464726573730060448201526064015b60405180910390fd5b6200013960008383620001c6565b80600460008282546200014d91906200066d565b90915550506001600160a01b0382166000908152600b6020526040812080548392906200017c9084906200066d565b90915550506040518181526001600160a01b038316906000907fddf252ad1be2c89b69c2b068fc378daa952ba7f163c4a11628f55a4df523b3ef9060200160405180910390a35050565b600a54156200029357620001da83620002ed565b15620002315760405162461bcd60e51b8152602060048201526030602482015260008051602062001c2d83398151915260448201526f081a5cc81bdb88189b1858dadb1a5cdd60821b606482015260840162000122565b6200023c82620002ed565b15620002935760405162461bcd60e51b8152602060048201526030602482015260008051602062001c2d83398151915260448201526f081a5cc81bdb88189b1858dadb1a5cdd60821b606482015260840162000122565b60085415620002e857620002a662000360565b15620002e85760405162461bcd60e51b815260206004820152601060248201526f2a37b5b2b71034b9902830bab9b2b21760811b604482015260640162000122565b505050565b600a54600090620003415760405162461bcd60e51b815260206004820152601d60248201527f426c61636b6c6973743a2044697361626c656420426c61636b6c697374000000604482015260640162000122565b506001600160a01b03166000908152600d602052604090205460ff1690565b600754600090620003b45760405162461bcd60e51b815260206004820152601860248201527f5061757361626c653a2044697361626c65642050617573650000000000000000604482015260640162000122565b5060065460ff1690565b828054620003cc9062000694565b90600052602060002090601f016020900481019282620003f057600085556200043b565b82601f106200040b57805160ff19168380011785556200043b565b828001600101855582156200043b579182015b828111156200043b5782518255916020019190600101906200041e565b50620004499291506200044d565b5090565b5b808211156200044957600081556001016200044e565b634e487b7160e01b600052604160045260246000fd5b604051601f8201601f191681016001600160401b0381118282101715620004a557620004a562000464565b604052919050565b600082601f830112620004bf57600080fd5b81516001600160401b03811115620004db57620004db62000464565b6020620004f1601f8301601f191682016200047a565b82815285828487010111156200050657600080fd5b60005b838110156200052657858101830151828201840152820162000509565b83811115620005385760008385840101525b5095945050505050565b6000608082840312156200055557600080fd5b604051608081016001600160401b03811182821017156200057a576200057a62000464565b8060405250809150825181526020830151602082015260408301516040820152606083015160608201525092915050565b6000806000806000806101208789031215620005c657600080fd5b86516001600160a01b0381168114620005de57600080fd5b60208801519096506001600160401b0380821115620005fc57600080fd5b6200060a8a838b01620004ad565b965060408901519150808211156200062157600080fd5b506200063089828a01620004ad565b945050606087015160ff811681146200064857600080fd5b60808801519093509150620006618860a0890162000542565b90509295509295509295565b600082198211156200068f57634e487b7160e01b600052601160045260246000fd5b500190565b600181811c90821680620006a957607f821691505b602082108103620006ca57634e487b7160e01b600052602260045260246000fd5b50919050565b61154d80620006e06000396000f3fe608060405234801561001057600080fd5b50600436106101775760003560e01c80635c975abb116100d8578063a9059cbb1161008c578063dd62ed3e11610066578063dd62ed3e14610316578063e47d60601461034f578063fc8234cb1461036257600080fd5b8063a9059cbb146102ba578063b351dfe8146102cd578063c19d93fb146102e057600080fd5b80638da5cb5b116100bd5780638da5cb5b1461027457806395d89b411461029f578063a457c2d7146102a757600080fd5b80635c975abb1461024357806370a082311461024b57600080fd5b8063320b2ad91161012f57806340c10f191161011457806340c10f191461021457806342966c681461022757806349538af41461023a57600080fd5b8063320b2ad9146101f7578063395093511461020157600080fd5b806318160ddd1161016057806318160ddd146101bd57806323b872dd146101cf578063313ce567146101e257600080fd5b806306fdde031461017c578063095ea7b31461019a575b600080fd5b61018461036a565b60405161019191906112cc565b60405180910390f35b6101ad6101a8366004611356565b6103fc565b6040519015158152602001610191565b6004545b604051908152602001610191565b6101ad6101dd366004611380565b610412565b60035460405160ff9091168152602001610191565b6101ff6104dd565b005b6101ad61020f366004611356565b61062d565b6101ff610222366004611356565b610664565b6101ff6102353660046113bc565b6107f9565b6101c160055481565b6101ad610a10565b6101c16102593660046113d5565b6001600160a01b03166000908152600b602052604090205490565b600054610287906001600160a01b031681565b6040516001600160a01b039091168152602001610191565b610184610a6c565b6101ad6102b5366004611356565b610a7b565b6101ad6102c8366004611356565b610b2e565b6101ff6102db3660046113f7565b610b3b565b600754600854600954600a546102f69392919084565b604080519485526020850193909352918301526060820152608001610191565b6101c1610324366004611433565b6001600160a01b039182166000908152600c6020908152604080832093909416825291909152205490565b6101ad61035d3660046113d5565b610c43565b6101ff610cb8565b60606001805461037990611466565b80601f01602080910402602001604051908101604052809291908181526020018280546103a590611466565b80156103f25780601f106103c7576101008083540402835291602001916103f2565b820191906000526020600020905b8154815290600101906020018083116103d557829003601f168201915b5050505050905090565b6000610409338484610de6565b50600192915050565b600061041f848484610f3e565b6001600160a01b0384166000908152600c60209081526040808320338452909152902054828110156104be5760405162461bcd60e51b815260206004820152602860248201527f45524332303a207472616e7366657220616d6f756e742065786365656473206160448201527f6c6c6f77616e636500000000000000000000000000000000000000000000000060648201526084015b60405180910390fd5b6104d285336104cd86856114e8565b610de6565b506001949350505050565b6000546001600160a01b031633146105375760405162461bcd60e51b815260206004820181905260248201527f4f776e61626c653a2063616c6c6572206973206e6f7420746865206f776e657260448201526064016104b5565b6007546105865760405162461bcd60e51b815260206004820152601860248201527f5061757361626c653a2044697361626c6564205061757365000000000000000060448201526064016104b5565b61058e610a10565b156105db5760405162461bcd60e51b815260206004820152601060248201527f5061757361626c653a207061757365640000000000000000000000000000000060448201526064016104b5565b6006805460ff191660011790557f62e78cea01bee320cd4e420270b5ea74000d11b0c9f74754ebdbfc544b05a2586106103390565b6040516001600160a01b03909116815260200160405180910390a1565b336000818152600c602090815260408083206001600160a01b038716845290915281205490916104099185906104cd9086906114ff565b6000546001600160a01b031633146106be5760405162461bcd60e51b815260206004820181905260248201527f4f776e61626c653a2063616c6c6572206973206e6f7420746865206f776e657260448201526064016104b5565b60075461070d5760405162461bcd60e51b815260206004820152601760248201527f4d696e7461626c653a2044697361626c6564204d696e7400000000000000000060448201526064016104b5565b6001600160a01b0382166107635760405162461bcd60e51b815260206004820152601f60248201527f45524332303a206d696e7420746f20746865207a65726f20616464726573730060448201526064016104b5565b61076f6000838361116a565b806004600082825461078191906114ff565b90915550506001600160a01b0382166000908152600b6020526040812080548392906107ae9084906114ff565b90915550506040518181526001600160a01b038316906000907fddf252ad1be2c89b69c2b068fc378daa952ba7f163c4a11628f55a4df523b3ef906020015b60405180910390a35050565b6000546001600160a01b031633146108535760405162461bcd60e51b815260206004820181905260248201527f4f776e61626c653a2063616c6c6572206973206e6f7420746865206f776e657260448201526064016104b5565b6009546108a25760405162461bcd60e51b815260206004820152601760248201527f4275726e61626c653a2044697361626c6564204275726e00000000000000000060448201526064016104b5565b336109155760405162461bcd60e51b815260206004820152602160248201527f45524332303a206275726e2066726f6d20746865207a65726f2061646472657360448201527f730000000000000000000000000000000000000000000000000000000000000060648201526084016104b5565b6109213360008361116a565b336000908152600b6020526040902054818110156109a75760405162461bcd60e51b815260206004820152602260248201527f45524332303a206275726e20616d6f756e7420657863656564732062616c616e60448201527f636500000000000000000000000000000000000000000000000000000000000060648201526084016104b5565b6109b182826114e8565b336000908152600b6020526040812091909155600480548492906109d69084906114e8565b909155505060405182815260009033907fddf252ad1be2c89b69c2b068fc378daa952ba7f163c4a11628f55a4df523b3ef906020016107ed565b600754600090610a625760405162461bcd60e51b815260206004820152601860248201527f5061757361626c653a2044697361626c6564205061757365000000000000000060448201526064016104b5565b5060065460ff1690565b60606002805461037990611466565b336000908152600c602090815260408083206001600160a01b038616845290915281205482811015610b155760405162461bcd60e51b815260206004820152602560248201527f45524332303a2064656372656173656420616c6c6f77616e63652062656c6f7760448201527f207a65726f00000000000000000000000000000000000000000000000000000060648201526084016104b5565b610b2433856104cd86856114e8565b5060019392505050565b6000610409338484610f3e565b6000546001600160a01b03163314610b955760405162461bcd60e51b815260206004820181905260248201527f4f776e61626c653a2063616c6c6572206973206e6f7420746865206f776e657260448201526064016104b5565b600a54610be45760405162461bcd60e51b815260206004820152601d60248201527f426c61636b6c6973743a2044697361626c656420426c61636b6c69737400000060448201526064016104b5565b6001600160a01b0382166000818152600d6020908152604091829020805460ff191685151590811790915591519182527f6a12b3df6cba4203bd7fd06b816789f87de8c594299aed5717ae070fac781bac910160405180910390a25050565b600a54600090610c955760405162461bcd60e51b815260206004820152601d60248201527f426c61636b6c6973743a2044697361626c656420426c61636b6c69737400000060448201526064016104b5565b506001600160a01b0381166000908152600d602052604090205460ff165b919050565b6000546001600160a01b03163314610d125760405162461bcd60e51b815260206004820181905260248201527f4f776e61626c653a2063616c6c6572206973206e6f7420746865206f776e657260448201526064016104b5565b600754610d615760405162461bcd60e51b815260206004820152601860248201527f5061757361626c653a2044697361626c6564205061757365000000000000000060448201526064016104b5565b610d69610a10565b610db55760405162461bcd60e51b815260206004820152601460248201527f5061757361626c653a206e6f742070617573656400000000000000000000000060448201526064016104b5565b6006805460ff191690557f5db9ee0a495bf2e6ff9c91a7834c1ba4fdd244a5e8aa4e537bd38aeae4b073aa33610610565b6001600160a01b038316610e615760405162461bcd60e51b8152602060048201526024808201527f45524332303a20617070726f76652066726f6d20746865207a65726f2061646460448201527f726573730000000000000000000000000000000000000000000000000000000060648201526084016104b5565b6001600160a01b038216610edd5760405162461bcd60e51b815260206004820152602260248201527f45524332303a20617070726f766520746f20746865207a65726f20616464726560448201527f737300000000000000000000000000000000000000000000000000000000000060648201526084016104b5565b6001600160a01b038381166000818152600c602090815260408083209487168084529482529182902085905590518481527f8c5be1e5ebec7d5bd14f71427d1e84f3dd0314c0f7b2291e5b200ac8c7c3b925910160405180910390a3505050565b6001600160a01b038316610fba5760405162461bcd60e51b815260206004820152602560248201527f45524332303a207472616e736665722066726f6d20746865207a65726f20616460448201527f647265737300000000000000000000000000000000000000000000000000000060648201526084016104b5565b6001600160a01b0382166110365760405162461bcd60e51b815260206004820152602360248201527f45524332303a207472616e7366657220746f20746865207a65726f206164647260448201527f657373000000000000000000000000000000000000000000000000000000000060648201526084016104b5565b61104183838361116a565b6001600160a01b0383166000908152600b6020526040902054818110156110d05760405162461bcd60e51b815260206004820152602660248201527f45524332303a207472616e7366657220616d6f756e742065786365656473206260448201527f616c616e6365000000000000000000000000000000000000000000000000000060648201526084016104b5565b6110da82826114e8565b6001600160a01b038086166000908152600b602052604080822093909355908516815290812080548492906111109084906114ff565b92505081905550826001600160a01b0316846001600160a01b03167fddf252ad1be2c89b69c2b068fc378daa952ba7f163c4a11628f55a4df523b3ef8460405161115c91815260200190565b60405180910390a350505050565b600a541561126a5761117b83610c43565b156111ee5760405162461bcd60e51b815260206004820152603060248201527f546f6b656e207472616e7366657220726566757365642e20526563656976657260448201527f206973206f6e20626c61636b6c6973740000000000000000000000000000000060648201526084016104b5565b6111f782610c43565b1561126a5760405162461bcd60e51b815260206004820152603060248201527f546f6b656e207472616e7366657220726566757365642e20526563656976657260448201527f206973206f6e20626c61636b6c6973740000000000000000000000000000000060648201526084016104b5565b600854156112c75761127a610a10565b156112c75760405162461bcd60e51b815260206004820152601060248201527f546f6b656e206973205061757365642e0000000000000000000000000000000060448201526064016104b5565b505050565b600060208083528351808285015260005b818110156112f9578581018301518582016040015282016112dd565b8181111561130b576000604083870101525b50601f017fffffffffffffffffffffffffffffffffffffffffffffffffffffffffffffffe016929092016040019392505050565b80356001600160a01b0381168114610cb357600080fd5b6000806040838503121561136957600080fd5b6113728361133f565b946020939093013593505050565b60008060006060848603121561139557600080fd5b61139e8461133f565b92506113ac6020850161133f565b9150604084013590509250925092565b6000602082840312156113ce57600080fd5b5035919050565b6000602082840312156113e757600080fd5b6113f08261133f565b9392505050565b6000806040838503121561140a57600080fd5b6114138361133f565b91506020830135801515811461142857600080fd5b809150509250929050565b6000806040838503121561144657600080fd5b61144f8361133f565b915061145d6020840161133f565b90509250929050565b600181811c9082168061147a57607f821691505b6020821081036114b3577f4e487b7100000000000000000000000000000000000000000000000000000000600052602260045260246000fd5b50919050565b7f4e487b7100000000000000000000000000000000000000000000000000000000600052601160045260246000fd5b6000828210156114fa576114fa6114b9565b500390565b60008219821115611512576115126114b9565b50019056fea2646970667358221220f7a5eebd617db4b8823e5605c9c10be5446d6fe16d276c0cf55851da606b817564736f6c634300080d0033546f6b656e207472616e7366657220726566757365642e205265636569766572a2646970667358221220e9dae91012bbee896947dcc345ae1a69e6556be80711d11466df6dfa180e118e64736f6c634300080d0033",
  "devdoc": {
    "kind": "dev",
    "methods": {},
    "version": 1
  },
  "userdoc": {
    "kind": "user",
    "methods": {},
    "version": 1
  },
  "storageLayout": {
    "storage": [],
    "types": null
  }
}